:1000000003C2000032C2000030C200002EC2000055
:100010002CC200002AC2000028C2000026C2000034
:1000200024C2000022C2000020C200001EC2000044
:100030001CC200001AC2000018C2000016C2000054
:1000400014C2000012C2000010C200000EC2000064
:100050000C9471160AC2000008C200000C94261706
:1000600004C200000C947D1B0C94B31BFEC1000065
:10007000FCC10000FAC10000F8C10000F6C1000098
:10008000F4C10000F2C10000F0C10000EEC10000A8
:10009000ECC10000EAC10000E8C10000E6C10000B8
:1000A000E4C10000E2C10000E0C10000DEC10000C8
:1000B000DCC10000DAC10000D8C10000D6C10000D8
:1000C000D4C10000D2C10000D0C10000CEC10000E8
:1000D000CCC10000CAC10000C8C10000C6C10000F8
:1000E000C4C100000D0B110B150B190B1D0B210BBF
:1000F0008E0B250B330B390B3F0B450B4B0B510B69
:10010000821887188C189618A0181919AA18B218EE
:10011000BA18C418CE18D818E718F1181919FB180E
:1001200005190F193B193E192D1931193719751970
:10013000421946194C19501954195A195E19621965
:10014000751968196C1970193A30003A3100415329
:100150003D003A30004F533D003A31004F533D00CF
:100160003A300049533D003A310049533D00696E31
:10017000707574006F7574707574002C20002C20DD
:100180000070696E002C20616E616C6F674F757432
:10019000707574002C200070696E002C20616E61F7
:1001A0006C6F67496E707574002C200041005275A9
:1001B0006E74696D6556657273696F6E49643D0052
:1001C00052756E74696D6549643D0042797465735A
:1001D0003D0042797465733D0066616C736500741F
:1001E00072756500537563636573733D00454F4DCC
:1001F000004572726F723D6E6F2073756368206385
:100200006F6D6D616E643A20003000310066616C84
:10021000736500747275650052756E6E696E673D28
:10022000004572726F723D4E6F7420612076616C72
:1002300069642050574D2070696E3A2000446576FD
:10024000696365204E616D653D0043757272656E30
:10025000742050726F6772616D2053697A653D003A
:100260004D61782050726F6772616D2053697A65B5
:100270003D00537472696E67733D004E756D657213
:100280006963733D00426F6F6C65616E733D005032
:10029000726F746F636F6C2056657273696F6E3D19
:1002A00000657A486F6D653D0000000A0B02090C7D
:1002B0000D0E08070304010000000000000000000C
:1002C000000000000000000000000000000000002E
:1002D00000000000001211100000000000000000EB
:1002E000000000000000000000000000000000010D
:1002F0000210202008081020401020408002010237
:1003000001080402010102040810204080804020FE
:100310001008040201800402018040201008040239
:1003200001080402010102040810204080010204B7
:100330000810204080050505050705080808080283
:100340000202020A0A08080404040401010101016E
:100350000101010303030303030303040707070C5D
:100360000C0C0C0C0C0C0C02020202060606060613
:100370000606060B0B0B0B0B0B0B0B0000200023D0
:1003800000260029002C002F00320000010000038D
:10039000010601090100002200250028002B002E83
:1003A000003100340002010000050108010B0100CA
:1003B000002100240027002A002D00300033000116
:1003C000010000040107010A014E414E494E495403
:1003D00059494E46CDCCCC3D0AD7233C17B7D1382E
:1003E00077CC2B329595E6241FB14F0A00002041AF
:1003F0000000C84200401C4620BCBE4CCA1B0E5A1E
:10040000AEC59D74180FE51B11241FBECFEFD1E2BE
:10041000DEBFCDBF00E00CBF13E0A0E0B2E0EAEB2E
:10042000FFE400E00BBF02C007900D92A030B107BF
:10043000D9F725E1A0E0B3E001C01D92A335B207D2
:10044000E1F714E0C8E0D4E000E006C0229701091B
:10045000FE010BBF0E949523C430D10780E008073E
:10046000A9F70E94D4200C94DB27CACDFC0171832C
:10047000608308950F931F93CF93DF938C01C0E0A7
:10048000D0E0F801808191818C0F9D1F0E9442264F
:10049000F801EC0FFD1F82832196C833D10589F73F
:1004A000DF91CF911F910F9108950F931F93CF93D9
:1004B000DF938C01C0E0D0E0F801EC0FFD1FD80104
:1004C0008D919C9162818C0F9D1F0E944A262196DE
:1004D000C833D10589F7DF91CF911F910F9108950E
:1004E0009B01225031092433310550F46D307105E0
:1004F00039F0FC01E60FF71F81E092819F3F09F080
:1005000080E008959B01225031092433310540F4E5
:100510006D30710529F0FC01E60FF71F8FEF828324
:1005200008959B01225031092433310550F46D3078
:10053000710539F0FC01E60FF71F81E092819130DF
:1005400009F080E008959B012250310924333105E0
:1005500040F46D30710529F0FC01E60FF71F81E0D2
:10056000828308950F931F93CF93DF938C01C2E092
:10057000D0E0CD30D10519F0BE01C801C3DF21960E
:10058000C633D105B1F7DF91CF911F910F91089537
:10059000CB0102970895E7E0F2E0819191918617EF
:1005A000970731F082E0E332F807B9F780E0089569
:1005B00081E008950F931F93CF93DF938C01EB019C
:1005C000EADF882331F0C00FD11F81E09A81923099
:1005D00009F080E0DF91CF911F910F910895DF9294
:1005E000EF92FF920F931F93CF93DF938C017B01C8
:1005F000E1DF8823A1F0C7E0D2E080E1D82E699145
:1006000079916E157F0549F0C801D4DF8111D3942B
:1006100082E0C332D80799F702C08D2D01C080E077
:10062000DF91CF911F910F91FF90EF90DF90089590
:100630000F931F93CF93DF938C01EB01ACDF8823E3
:1006400021F0C00FD11F82E08A83DF91CF911F91EB
:100650000F910895FC017183608353834283358336
:100660002483118E128613861486158616861786A5
:10067000108A118A128A138A0895FC0182850895CE
:10068000FC01818D0895CF93DF93EC018D89811159
:100690000EC06E817F818A819B810E945A108C8B53
:1006A0008E819F8101969F838E8388E08D8B8C89BC
:1006B000982F990F9C8B9D8991509D8B881F88271F
:1006C000881FDF91CF910895DF92EF92FF920F93F1
:1006D0001F93CF93DF937C01862FC0E0D0E0042FDF
:1006E00010E0C017D1073CF4D82EDD0CC701CBDFDA
:1006F0008D292196F6CFDF91CF911F910F91FF9019
:10070000EF90DF900895EF92FF920F931F93CF9396
:10071000DF938C01C0E0D0E020E030E0F80180857C
:1007200090E0C817D9074CF47901EE0CFF1CC80102
:10073000AADF9701282B2196F1CFC901DF91CF9134
:100740001F910F91FF90EF900895DF92EF92FF922B
:100750000F931F93CF93DF93EC01D5DF8C018F892B
:10076000882321F0FB8481E0F82601C0F12CCE0122
:100770008ADFD82EB8018C819D810E946A0FE82EF5
:100780004F2DB8018C819D810E94850F81E0D81288
:100790001AC0EF14C1F06EE471E080EB94E10E94A6
:1007A000661C4AE050E0B80180EB94E10E94661DAF
:1007B000FF2019F06BE471E002C068E471E080EBA7
:1007C00094E10E94A21CCE015EDF813059F448E022
:1007D00060E0CE01DF91CF911F910F91FF90EF90DC
:1007E000DF9072CFDF91CF911F910F91FF90EF902B
:1007F000DF900895FF920F931F93CF93DF93EC0147
:1008000082DF8C01BC018C819D810E946A0FF82ED1
:100810008F89811102C04B8501C041E0B8018C81F4
:100820009D810E94850FF11007C08F89882321F0D8
:100830008B8591E0892701C080E08F8BDF91CF917C
:100840001F910F91FF900895FF920F931F93CF93E5
:10085000DF93EC0158DF8C01BC018C819D810E94EB
:100860006A0FF82E8F89882321F04B8581E0482775
:1008700001C040E0B8018C819D810E94850FFF205E
:1008800039F08F89811104C08B8591E0892701C0DF
:1008900080E08F8BDF91CF911F910F91FF90089592
:1008A000CF93DF93EC01EFDE811107C0CE01EBDEC9
:1008B00091E0813059F090E009C0CE0124DFBC0105
:1008C0008C819D81DF91CF910C946A0F892FDF91EC
:1008D000CF910895CF93DF93EC01E2DF9F899111CF
:1008E00001C080E08F8BDF91CF910895CF93DF938C
:1008F000EC01D6DF9F89992319F091E0982701C078
:1009000090E09F8BDF91CF9108951F93CF93DF935A
:10091000EC01C6DF182FCE01F6DEBC018B858111FC
:100920000FC08F89882361F08C819D81112311F084
:1009300040E001C041E0DF91CF911F910C94850F01
:10094000DF91CF911F910895FC01418560E0BCCEFD
:10095000AF92BF92CF92DF92EF92FF920F931F93CD
:10096000CF93DF938C01C62F60E070E0CB01A12C08
:10097000B12CD0E0AC16BD068CF46B017C01CC0C24
:10098000DD1CEE1CFF1CC8017EDEA7019601282B92
:10099000CA01B9013FEFA31AB30AECCFDF91CF919F
:1009A0001F910F91FF90EF90DF90CF90BF90AF908D
:1009B0000895FF920F931F93CF93DF93CDB7DEB7C8
:1009C0002A970FB6F894DEBF0FBECDBF8C015BDE59
:1009D00081112DC0C80157DE813039F042E060E05E
:1009E000C80172DE8F5FF12C03C0FF24F39484E012
:1009F000682F660F660F660FC801AADF6F837887BE
:100A000089879A87FE8285E0FE013696DE0111967F
:100A100001900D928A95E1F7F98285E0FE01319609
:100A2000DE01169601900D928A95E1F70DC0C8017E
:100A30008BDF682FF801848195810E94A70F2E8398
:100A40003F83488759876A872E813F81488559852A
:100A50006A8570E080E090E02A960FB6F894DEBFD9
:100A60000FBECDBFDF91CF911F910F91FF900895E1
:100A70002F923F924F925F926F927F928F929F92AE
:100A8000AF92BF92CF92DF92EF92FF920F931F939C
:100A9000CF93DF93CDB7DEB72C970FB6F894DEBFB8
:100AA0000FBECDBF5C01662E84DF2C873F83488755
:100AB00059876A87CF80D884E984FA84C50123DE08
:100AC0004C01C50141DF8B87B401F501848195811B
:100AD0000E946A0F782EF5012789662041F0811166
:100AE00002C0822F01C080E091E0922707C08823D6
:100AF00019F081E0822701C080E0922FF501238563
:100B000021114BC0882309F446C06B8584819581EF
:100B10000E94A70F3A834B835C836D83022F8A81E7
:100B20009B81AC81BD81002321F080E090E0DC015D
:100B300000E0F5012088318842885388280E391E4C
:100B40004A1E5B1E84819581122D2A823B824C8233
:100B50005D822B813C814D816B850E94F10FFC856C
:100B6000F11106C02C143D044E045F047CF10AC050
:100B7000C201B1010E94E621A70196010E94E9226B
:100B800087FD24C0462DB401F501848195810E9422
:100B9000850F762C1BC09923C9F077247394762493
:100BA000472DB401F501848195810E94850FF501DF
:100BB000848195811A821B821C821D8200E010E0D4
:100BC0002B813C814D816B850E94F10FF501778A65
:100BD0002C960FB6F894DEBF0FBECDBFDF91CF913C
:100BE0001F910F91FF90EF90DF90CF90BF90AF904B
:100BF0009F908F907F906F905F904F903F902F903D
:100C0000089561E035CF60E033CF2F923F924F924D
:100C10005F926F927F928F929F92AF92BF92CF928C
:100C2000DF92EF92FF920F931F93CF93DF93CDB795
:100C3000DEB72C970FB6F894DEBF0FBECDBF8C0188
:100C40006B87B7DE3F83488759876A87CF80D88410
:100C5000E984FA84222331F0C701B6010E94B3214E
:100C60006B017C01C8011CDE8C87C8014CDD4C0186
:100C7000C8016ADE682EC80146DD5C01B401F801D6
:100C8000848195810E946A0F782E662DF8018481F7
:100C900095810E94A70F3A834B835C836D832A80E2
:100CA0003B804C805D80B501F801848195810E9474
:100CB0006A0FF8019385248135819923E9F041E099
:100CC000B501C9012C960FB6F894DEBF0FBECDBF9B
:100CD000DF91CF911F910F91FF90EF90DF90CF9018
:100CE000BF90AF909F908F907F906F905F904F904C
:100CF0003F902F900C94850F1982FC85FF2339F0CB
:100D00008B85882351F1212C312C210128C07110B1
:100D10002AC0F8019789992331F1811124C0FB85FC
:100D2000FF2369F08FEF281A380A480A580A2C1452
:100D30003D044E045F04BCF01601270112C091E08F
:100D4000291A310841085108121413041404150417
:100D500054F0212C312C210104C016012701712CE3
:100D600002C077247394F8014789B501C9010E9434
:100D7000850FF801778A472DB401848195810E94FF
:100D8000850FF80184819581122D2A823B824C8245
:100D90005D8209812B813C814D81662D0E94F10F7E
:100DA0002C960FB6F894DEBF0FBECDBFDF91CF916A
:100DB0001F910F91FF90EF90DF90CF90BF90AF9079
:100DC0009F908F907F906F905F904F903F902F906B
:100DD000089561E01ACF60E018CF9F92AF92BF9262
:100DE000CF92DF92EF92FF920F931F93CF93DF93F7
:100DF000CDB7DEB72E970FB6F894DEBF0FBECDBFCE
:100E00005C018B01D6DD922E3F83488759876A8724
:100E1000CF80D884E984FA84C501CBDD822F3A8360
:100E20004B835C836D832A813B814C815D81911072
:100E300045C08111B1C002301105F9F03CF4011533
:100E4000110561F00130110581F02FC10430110549
:100E500021F1DCF00530110541F127C181E0C21616
:100E6000D306E406F50641F504C181E02C153D05E5
:100E70004E055F050CF4FDC01FC081E0C216D3060D
:100E8000E406F5060CF0F5C017C081E0C216D306E3
:100E9000E406F5060CF4EDC00FC081E02C153D050D
:100EA0004E055F050CF0E5C007C081E0C216D30611
:100EB000E406F50609F0DDC080E0DBC0882351F1CF
:100EC00002301105E1F05CF401151105A1F00130CB
:100ED000110509F0EAC011E0C701B601A1C0043054
:100EE0001105A1F084F00530110509F0DEC011E014
:100EF000C701B601D3C011E0C701B6018BC011E034
:100F0000C701B601A0C0C701B601AEC011E0C7015C
:100F1000B601BFC00230110539F174F40115110595
:100F2000D9F00130110509F0C0C0CA01B9010E9411
:100F3000E621A701960198C00430110529F1E4F0DB
:100F40000530110509F0B1C0CA01B9010E94E621BE
:100F500011E0A7019601A2C0CA01B9010E94E621D1
:100F600011E0A701960156C0CA01B9010E94E6210D
:100F700011E0A70196018DC0CA01B9010E94E621C6
:100F800011E0A70196014CC0CA01B9010E94E621F7
:100F900011E0A701960157C00230110509F446C0BF
:100FA000ACF40115110549F10130110509F07DC0BE
:100FB000C701B6012B873C874D875E870E94E621DB
:100FC00011E02B853C854D855E852AC004301105D6
:100FD00009F452C0ECF10530110509F066C0C701F3
:100FE000B6012B873C874D875E870E94E62111E082
:100FF0002B853C854D855E8551C0C701B6012B8789
:101000003C874D875E870E94E62111E02B853C8559
:101010004D855E850E944721882309F444C042C063
:101020000E94E92218160CF43EC03CC0C701B6016C
:101030002B873C874D875E870E94E62111E02B8538
:101040003C854D855E850E94E92287FF2CC02AC021
:10105000C701B6012B873C874D875E870E94E6213A
:101060002B853C854D855E850E944721881F8827FA
:10107000881FF501878B19C0C701B6012B873C87F4
:101080004D875E870E94E62111E02B853C854D85CA
:101090005E850E94472118162CF005C00E9447214A
:1010A000811101C010E0F501178B2E960FB6F89450
:1010B000DEBF0FBECDBFDF91CF911F910F91FF908B
:1010C000EF90DF90CF90BF90AF909F9008959F9248
:1010D000AF92BF92CF92DF92EF92FF920F931F9346
:1010E000CF93DF93CDB7DEB763970FB6F894DEBF2B
:1010F0000FBECDBF5C015DDC022F3C874D875E8754
:101100006F87CC84DD84EE84FF84C50152DC122F0E
:101110003F83488759876A872F81388549855A8553
:10112000C501288B398B4A8B5B8B0EDC982EF50121
:101130008789288939894A895B898823E1F10111E6
:101140000CC011110AC01982C20ED31EE41EF51E76
:10115000CA82DB82EC82FD8224C081E08983002385
:1011600029F0112391F0C701B60115C0112369F0D0
:10117000C701B601288B398B4A8B5B8B0E94E62115
:10118000288939894A895B8906C0CA01B9010E9448
:10119000E621A70196010E94E3206A837B838C836A
:1011A0009D8309811A812B813C814D81692DF50137
:1011B0008481958116D763960FB6F894DEBF0FBE73
:1011C000CDBFDF91CF911F910F91FF90EF90DF90F6
:1011D000CF90BF90AF909F9008959F92AF92BF9293
:1011E000CF92DF92EF92FF920F931F93CF93DF93F3
:1011F000CDB7DEB763970FB6F894DEBF0FBECDBF95
:101200005C01D7DB022F3C874D875E876F87CC84DC
:10121000DD84EE84FF84C501CCDB122F3F83488739
:1012200059876A872F81388549855A85C501288B5A
:10123000398B4A8B5B8B88DB982EF501878928894F
:1012400039894A895B898823E1F101110CC01111A8
:101250000AC01982C21AD30AE40AF50ACA82DB82DA
:10126000EC82FD8224C081E08983002319F01123E0
:1012700081F015C0112369F0C701B601288B398BA5
:101280004A8B5B8B0E94E621288939894A895B89D0
:1012900008C0CA01B9010E94E6219B01AC01C70147
:1012A000B6010E94E2206A837B838C839D8309813F
:1012B0001A812B813C814D81692DF50184819581B5
:1012C00090D663960FB6F894DEBF0FBECDBFDF9108
:1012D000CF911F910F91FF90EF90DF90CF90BF9033
:1012E000AF909F9008954F925F926F927F929F92DE
:1012F000AF92BF92CF92DF92EF92FF920F931F9324
:10130000CF93DF93CDB7DEB72F970FB6F894DEBF3C
:101310000FBECDBF5C014DDB022F3C874D875E8742
:101320006F87CC84DD84EE84FF84C50142DB122FFD
:101330003F83488759876A874F80588469847A84B5
:10134000C50102DB982EF50187898823D1F10111AF
:101350000EC011110CC01982A7019601C301B20180
:101360000E9454236A837B838C839D8320C081E009
:101370008983002339F0112371F0A3019201C70181
:10138000B6010FC0112339F0C701B6010E94E62152
:10139000A301920106C0C301B2010E94E621A70188
:1013A00096010E94ED226A837B838C839D83098151
:1013B0001A812B813C814D81692DF50184819581B4
:1013C00010D62F960FB6F894DEBF0FBECDBFDF91BB
:1013D000CF911F910F91FF90EF90DF90CF90BF9032
:1013E000AF909F907F906F905F904F9008954F9235
:1013F0005F926F927F929F92AF92BF92CF92DF9255
:10140000EF92FF920F931F93CF93DF93CDB7DEB789
:101410002F970FB6F894DEBF0FBECDBF5C01C9DABF
:10142000022F3C874D875E876F874C845D846E8476
:101430007F84C501BEDA122F3F83488759876A87A8
:10144000CF80D884E984FA84C5017EDA982EF5012C
:101450008789882309F465C001110FC011111CC0D0
:10146000C114D104E104F10409F45BC0C301B20169
:101470000E94E6212B013C0124C01123E9F020E069
:1014800030E0A901C701B6010E944721882309F471
:1014900048C0A70196011BC020E030E0A901C701A8
:1014A000B6010E9447218823E1F1C301B2010E94E5
:1014B000E621A70196010DC0C114D104E104F10495
:1014C00081F1C701B6010E94E6219B01AC01C30175
:1014D000B2010E944B216B017C010E9421229B01E1
:1014E000AC01C701B6010E94472181110AC01982CF
:1014F000C701B6010E94B3216A837B838C839D83DD
:1015000006C081E08983CA82DB82EC82FD82098188
:101510001A812B813C814D81692DF5018481958152
:1015200060D52F960FB6F894DEBF0FBECDBFDF910A
:10153000CF911F910F91FF90EF90DF90CF90BF90D0
:10154000AF909F907F906F905F904F9008950F9312
:101550001F93CF93DF93CDB7DEB72A970FB6F894DA
:10156000DEBF0FBECDBF8C0124DA2E833F834887B8
:1015700059876A87C8011DDA29833A834B835C83C4
:101580006D83C801E1D9682FF8012789848195818D
:10159000222331F00E811F81288539854A8505C0B7
:1015A00009811A812B813C814D811BD52A960FB66A
:1015B000F894DEBF0FBECDBFDF91CF911F910F9189
:1015C00008951F93CF93DF93EC0143E060E07CD854
:1015D000813059F030F0823061F0833009F49CC0E2
:1015E0000CC0CE01B2D880E09AC0CE0173D981E0A0
:1015F00096C0CE017BD982E092C042E0682FCE0136
:1016000063D8482F50E0FA017097EE30F10508F0EA
:101610004EC0EE58FF4F0C948523CE01EBD880E1ED
:101620007EC0CE0111D981E17AC0CE016ED982E1AE
:1016300076C0CE01E6DA83E172C0CE01E4DA84E15D
:101640006EC0CE01EDD085E16AC041E067E1CE0118
:101650003BD8182FCE011E3219F4BBDB8EE25FC0DF
:10166000BADB812F5CC060E070E0CE01B6DB88E1C0
:1016700056C061E070E0CE01B0DB89E150C062E0AD
:1016800070E0CE01AADB8AE14AC063E070E0CE01DF
:10169000A4DB8BE144C064E070E0CE019EDB8CE112
:1016A0003EC065E070E0CE0198DB8DE138C042E0DD
:1016B000682FCE0109D88A37A9F040F4883771F035
:1016C0008937C1F4CE0189DD89E729C08B3771F0F4
:1016D0008C3781F4CE013BDF8CE721C0CE01F7DCF3
:1016E00088E71DC0CE01FFDD8AE719C0CE017FDE8D
:1016F0008BE715C041E0682FCE010E9464038F3F45
:1017000021F481E08E8B8FEF0AC091E0998F2E81BA
:10171000288F9E8B1F8A03C083E001C086E1DF9182
:10172000CF911F9108951F93CF93DF93EC016B87A7
:101730008A819B81AFD48397FCF060E270E08A815C
:101740009B81B8D4888761E270E08A819B81B2D4A2
:10175000898782E290E09F838E831C8A1D8A1E8A7D
:1017600081E08F8B11E08E89811106C0CE0129DFC7
:101770008330C9F71F8BF7CFDF91CF911F91089569
:10178000CF93DF93EC010E9470176C877D878E8763
:101790009F87188A198A1A8A1B8A61E0CE01DF9115
:1017A000CF91C1CFCF92DF92EF92FF920F931F9311
:1017B000CF93DF93EC010E9470170C851D852E8559
:1017C0003F85601771078207930758F06B017C0112
:1017D000C01AD10AE20AF30AC88AD98AEA8AFB8ABD
:1017E00004C0688B798B8A8B9B8B6C877D878E87F7
:1017F0009F878A85882359F060E0CE01DF91CF91E1
:101800001F910F91FF90EF90DF90CF908CCFDF91E1
:10181000CF911F910F91FF90EF90DF90CF9008959F
:10182000FF920F931F93CF93DF93EC01FF8800E0AB
:1018300010E08E89882339F01F8BDF91CF911F91A3
:101840000F91FF9008950111F7CFCE01BADE8330DA
:1018500029F4111101C01F89FF8AEBCF01E0863105
:1018600041F300E0E6CFFF920F931F93CF93DF93F6
:10187000EC0108811981C8010E944226F82EC80196
:1018800001960E944226FF2011F01A8603C0813083
:10189000E1F78A87DF91CF911F910F91FF90089513
:1018A0000F931F93CF93DF93EC01888199818C0173
:1018B0000F5F1F4F60E00E944A268A85882311F03F
:1018C00061E001C060E0C801DF91CF911F910F91ED
:1018D0000C944A26CF93DF93EC018A85811102C0D4
:1018E000CE014EDF81E08A87CE01DADF81E0DF9131
:1018F000CF910895FC011286D3DF81E00895FC01A9
:10190000718360835383428308950F931F93CF9312
:10191000DF938C01C2E0D0E0BE01F80180819181AB
:101920000E949102811108C0BE01F801808191815D
:101930000E94DA02882311F061E001C062E08C2F7E
:101940000E9476192196C633D10531F7DF91CF91E8
:101950001F910F910895EF92FF920F931F93CF93D2
:10196000DF938C01EB01FC01808191810E94C80210
:101970007C0161E871E080EB94E10E94661C4AE022
:1019800050E0BE0180EB94E10E94661D6EE771E0BD
:1019900080EB94E10E94661C4AE050E0B70180EBC6
:1019A00094E10E94661D6BE771E080EB94E10E9478
:1019B000661CBE01F801808191810E9491028823FA
:1019C00019F064E771E00AC0BE01F80180819181DD
:1019D0000E947002882331F06EE671E080EB94E1A2
:1019E0000E94661C80EB94E1DF91CF911F910F91D3
:1019F000FF90EF900C949F1CFF920F931F93CF9337
:101A0000DF938C01C2E0D0E0CD30D10519F0BE01EA
:101A1000C801A1DF2196C633D105B1F7C0E0D0E0FF
:101A20006CEA71E080EB94E10E94661C4AE050E0B1
:101A3000BE0180EB94E10E94661D69EA71E080EBD3
:101A400094E10E94661C4AE050E0BE0180EB94E104
:101A50000E94661D6BE971E080EB94E10E94A21C7C
:101A60002196C031D105E1F6C2E0D0E0BE01F80117
:101A7000808191810E94DA02882339F1BE01F80148
:101A8000808191810E94EF02F82E67E971E080EB7E
:101A900094E10E94661C4AE050E0BE0180EB94E1B4
:101AA0000E94661D64E971E080EB94E10E94661C6F
:101AB0004AE050E06F2D80EB94E10E949F1D65E8A5
:101AC00071E080EB94E10E94A21C2196C633D105FF
:101AD00069F6DF91CF911F910F91FF900895BF920A
:101AE000CF92DF92EF92FF920F931F93CF93DF93EA
:101AF00000D01F921F92CDB7DEB77C0102E010E04C
:101B00000D301105B1F1B801F701808191810E947A
:101B10007002882371F1B801F701808191810E94E0
:101B2000C8026C01BC01F70182819381D3D1B82E28
:101B3000802F0E94E419F701228133810197D9F5A2
:101B400041E0B601C901E1D1B11013C06AE671E00C
:101B500080EB94E10E94661C4AE050E0B60180EB05
:101B600094E10E94661D67E671E080EB94E10E94BB
:101B7000A21C0F5F1F4F0633110509F0C1CFD12CF6
:101B80008D2D0E943918AC01662757FD6095762F80
:101B9000142F4A835B836C837D8300E02B813C811F
:101BA0004D816D2DF701828193811BD2D394F0E199
:101BB000DF12E6CF16C040E0B601C901A6D1BB20B6
:101BC000C1F263E671E080EB94E10E94661C4AE09A
:101BD00050E0B60180EB94E10E94661D60E671E082
:101BE000C4CF0F900F900F900F900F90DF91CF9177
:101BF0001F910F91FF90EF90DF90CF90BF900895CD
:101C00009F92AF92BF92CF92DF92EF92FF920F938B
:101C10001F93CF93DF9300D01F921F92CDB7DEB7F3
:101C20007C0102E010E00D30110509F47DC0B8011F
:101C3000F701808191810E949102F7012081318119
:101C4000B801882309F446C0C9010E94C8026C018A
:101C5000BC01F701828193813DD1982EA02E802F67
:101C60000E94E419BB24B394019709F0B12C992088
:101C7000B1F061E08A2D0E94AF19B11055C06CE53A
:101C800071E080EB94E10E94661C4AE050E0B601EE
:101C900080EB94E10E94661D69E571E016C060E08A
:101CA0008A2D0E94AF19BB2009F43EC065E571E0A2
:101CB00080EB94E10E94661C4AE050E0B60180EBA4
:101CC00094E10E94661D62E571E080EB94E10E9460
:101CD000A21C2AC0C9010E94DA02882329F1B80196
:101CE000F701808191810E94EF02682FF7018281C4
:101CF00093812DD13A834B835C836D836A817B8191
:101D00008C819D8121110E94B3216F3F7105810556
:101D1000910509F024F497FF03C060E001C06FEF64
:101D200070E0802F0E945E180F5F1F4F0633110571
:101D300009F079CF0F900F900F900F900F90DF91D7
:101D4000CF911F910F91FF90EF90DF90CF90BF90B8
:101D5000AF909F9008950F931F93CF93DF938C01C3
:101D6000C2E0D0E0CD30D105D1F0BE01F8018081D4
:101D700091810E949102882329F060E08C2F0E94BB
:101D8000AF190DC0BE01F801808191810E94DA0275
:101D9000882329F060E070E08C2F0E945E18219665
:101DA000C633D105F9F6DF91CF911F910F910895B8
:101DB00080E093E08CC787E694E10E943A028DEBC5
:101DC00095E020D2882319F083E993E04CDD83E984
:101DD00093E0D6DC8DEA93E098DD80E093E04BD78A
:101DE00086E093E0B0D22FEF3FEFA90168ED7EE0EF
:101DF00081EA94E10C940D178DEA93E070DE83E99B
:101E000093E0D0DC83E993E00E943D03882331F026
:101E100083E993E00E944003882331F08DEA93E048
:101E20009ADF86E093E0C8C68DEA93E0E9DEF9CF59
:101E3000EF92FF920F931F9360E070E087E694E1CA
:101E40000E9436026AE370E08DEB95E015D181EBDC
:101E500093E02AD041EB53E067E674E18DEA93E02A
:101E60004EDD21EB33E04DEB55E068E370E083E9B4
:101E700093E00E942A0383E9E82E83E0F82E0DEB1D
:101E800015E027E634E141EB53E06DEA73E086E0CC
:101E900093E03FD2A7016DE070E080E093E01F91F6
:101EA0000F91FF90EF90DFC620E8DC011D922A958C
:101EB000E9F7FC01E058FF4F2CE0DF011D922A9565
:101EC000E9F73C9620E831E0DF01C9011D92019756
:101ED000E9F70895611524E07207A8F4462F4770CA
:101EE00021E030E0042E01C0220F0A94EAF7FB0142
:101EF00033E0F595E7953A95E1F7E80FF91F908102
:101F0000922381E009F480E00895611524E07207CE
:101F1000E0F4FB0153E0F595E7955A95E1F767701A
:101F200021E030E0062E01C0220F0A94EAF7E80F04
:101F3000F91F442321F08081822B808304C02095E7
:101F400080812823208381E0089580E00895CF9345
:101F5000DF9300D01F921F92CDB7DEB7262F6036D9
:101F600030F019821A821B821C821D822AC0A62F81
:101F7000B0E0FD01B396EE0FFF1FEE0FFF1FE80F5D
:101F8000F91F4081518162817381E22FE77021E066
:101F900030E001C0220FEA95EAF7FD01A3E0F595D4
:101FA000E795AA95E1F7E80FF91FE058FF4F808108
:101FB000822391E009F490E099834A835B836C83E8
:101FC0007D8329813A814B815C816D8170E080E065
:101FD00090E00F900F900F900F900F90DF91CF91A6
:101FE00008950F931F93CF93DF9300D01F921F92FA
:101FF000CDB7DEB709831A832B833C834D836036CC
:1020000080F5E62FF0E0AF0113E0559547951A955E
:10201000E1F7677021E030E0062E01C0220F0A943C
:10202000EAF7480F591FDA01A058BF4F002321F0EB
:102030003C91322B3C9304C020953C9123232C935C
:10204000B396EE0FFF1FEE0FFF1FE80FF91F8A81F7
:102050009B81AC81BD8180839183A283B38381E026
:1020600001C080E00F900F900F900F900F90DF91C4
:10207000CF911F910F910895FC01718360831382AA
:1020800012820895663A2EE0720718F4FC017383F9
:1020900062830895FC0182819381089557FD09C0F0
:1020A000FC0122813381421753071CF4E40FF51F12
:1020B0006483089577FD0AC0FC0122813381621791
:1020C000730724F4E60FF71F8481089580E00895D4
:1020D000CF93C62F603130F463E272E080EB94E17D
:1020E0000E94971C40E150E06C2F80EB94E1CF916F
:1020F0000C949F1D1F93CF93DF93EC0110E160E0E0
:10210000CE01E6DF1150D9F7DF91CF911F910895ED
:10211000EF92FF920F931F93CF93DF93EC018B010C
:102120007B0183E0E80EF11CE016F10654F0FE019D
:10213000EE0DFF1D6481CE01CBDFE1E0EE1AF10868
:10214000F3CF7E01E00EF11EF7016185CE01C0DF05
:10215000F7016085CE01BCDFF7016385CE01B8DFF2
:10216000F7016285CE01B4DF7801F8E0EF0EF11CD3
:10217000015F1F4F0E151F0554F0FE01EE0DFF1DF0
:102180006481CE01A5DF8FEFE81AF80AF3CFDF9163
:10219000CF911F910F91FF90EF900895CF93DF9310
:1021A000EC0160EC71E080EB94E10E94661C8A8196
:1021B0009B8140971CF4CE019DDF04C060E070E07D
:1021C000CE01A6DF80EB94E1DF91CF910C949F1CB0
:1021D000CF93DF93EC016EEA71E080EB94E10E9413
:1021E000661C8A819B8180971CF4CE0183DF04C02A
:1021F00060E170E0CE018CDF80EB94E1DF91CF9164
:102200000C949F1CCF92DF92EF92FF920F931F933B
:10221000CF93DF936C01FC01E080F180C7010E9445
:1022200042268A3811F080E02AC0C70101960E9438
:102230004226C82FC70102960E944226D0E0DC2F1A
:10224000CC27C80FD11DC73AFEE0DF0760F7F601C3
:10225000D383C28300E010E0F3E0EF0EF11C0C1713
:102260001D0761F0C701800F911F0E944226F601F1
:10227000E00FF11F84830F5F1F4FF1CF81E0DF91EB
:10228000CF911F910F91FF90EF90DF90CF90089525
:10229000EF92FF920F931F93CF93DF93EC01E880AF
:1022A000F9806AE8C7010E944A261A816B81C7013A
:1022B00001960E944A26612FC70102960E944A2673
:1022C00000E010E083E0E80EF11C8A819B81081792
:1022D000190764F4FE01E00FF11F6481C701800F4C
:1022E000911F0E944A260F5F1F4FEFCFDF91CF91C2
:1022F0001F910F91FF90EF900895CF93DF93EC0122
:10230000FB01248135810E941720CE01DF91CF91FE
:102310000895EF92FF920F931F93FC0171836083E6
:10232000538342833583248317830683F186E086B3
:10233000DC01A557BF4F1D921C9212861F910F9171
:10234000FF90EF900895CF93DF93EC0126E040E0FB
:1023500052EC61E070E080EB94E10E941B1B64EFA3
:1023600071E080E090E0EBD58E819F81DF91CF918D
:1023700015CF6DEE71E080EB94E10C94A21CCF932D
:10238000C62F64EE71E080EB94E10E94661CCC23C2
:1023900019F06FED71E002C069ED71E080EB94E13E
:1023A000CF910C94A21C9F92AF92BF92CF92DF92DA
:1023B000EF92FF920F931F93CF93DF93CDB7DEB7CA
:1023C00027970FB6F894DEBF0FBECDBF8C01942EB9
:1023D000442319F046E050E002C049E050E0CE014D
:1023E00001968BDFCE0101960E946D20CE010196F1
:1023F0000E94C9206B017C015B01F80186819781F5
:1024000041DE61E0C801BBDF62ED71E080EB94E189
:102410000E94661C4AE050E0B60180EB94E10E9405
:102420006D1DC801A6DF911004C0F801808591855B
:1024300061DAE12CF12CEA14FB04ACF441E050E049
:10244000BE01695F7F4F80EB94E10E94CD1E019732
:10245000A9F7A7016F81F801868197811FDEFFEF41
:10246000EF1AFF0AE8CFF8018681978111DF61E05A
:10247000C80185DF6BEC71E080EB94E10E94661C83
:102480004AE050E0B70180EB94E10E946D1D91108D
:1024900004C0F801808591851DDACE0101960E9465
:1024A000EF1E27960FB6F894DEBF0FBECDBFDF91AB
:1024B000CF911F910F91FF90EF90DF90CF90BF9041
:1024C000AF909F900895CF93DF93EC018C819D8115
:1024D0000E94B2028C819D810E945502888199815F
:1024E000DF91CF9112CACF93DF93EC018885998554
:1024F00001DACE01E8DF60E070E08E819F81C2DD0D
:102500008E819F81DF91CF91C3CEAF92BF92CF9248
:10251000DF92EF92FF920F931F93CF93DF93CDB78C
:10252000DEB7E7970FB6F894DEBF0FBECDBF5C01F4
:102530007B0165E272E0C7010E94811F882309F4D4
:1025400060C061EA72E080EB94E10E94A21C6AED37
:1025500072E080EB94E10E94C21C6FE872E080EBB5
:1025600094E10E94661C66ED72E080EB94E10E94AB
:10257000C21C65E872E080EB94E10E94661C4AE0B0
:1025800050E060E074E080EB94E10E946D1D6BE729
:1025900072E080EB94E10E94661C4AE050E060E645
:1025A00080EB94E10E94A51D62E772E080EB94E16C
:1025B0000E94661C4AE050E060E080EB94E10E94DB
:1025C000A51D60E672E080EB94E10E94661C4AE083
:1025D00050E066EA7EE080EB94E10E946D1D6AE4C3
:1025E00072E080EB94E10E94661CF5018681978180
:1025F00051DD4AE050E0BC0180EB94E10E946D1D8A
:1026000063C261E372E0C7010E94811F882389F0E1
:102610006DE372E080EB94E10E94661C6EEC72E068
:1026200080EB94E10E94C21CF50180819181E4D984
:102630004BC26FE372E0C7010E94811F882319F02B
:10264000C50151DF09C06DE472E0C7010E94811F1E
:10265000882331F0C50137DF61E0C50190DE34C267
:102660006AE572E0CE0101960E94561FBE016F5FBF
:102670007F4FC7010E94C21F182FCE0101960E94F2
:10268000EF1E112381F04EE050E0B701CE0101961C
:1026900034DECE0101960E94C920F5018481958126
:1026A0000E94A3022CC069E672E0CE0101960E944E
:1026B000561FBE016F5F7F4FC7010E94C21F182FB8
:1026C000CE0101960E94EF1E1123A1F14BE050E0D4
:1026D000B701CE01019611DECE0101960E94C920FC
:1026E0006B017C01F501848195810E94CB028823D6
:1026F00099F0B601F501848195810E941803F501D6
:10270000848195810E945502F50180819181FDD8D7
:1027100061E0C50134DE4DC161E272E080EB94E11D
:102720000E94661C4AE050E0B60180EB94E10E94F2
:102730006D1D3FC165E772E0C7010E94811F8823BC
:10274000B9F068E172E080EB94E10E94661CF5014B
:10275000808591850E943D03882319F063E172E032
:1027600002C06DE072E080EB94E10E94A21CACC15B
:102770006CE772E0C7010E94811F882329F0F501F0
:1027800080859185A7D80BC062E872E0C7010E94DE
:10279000811F882331F0F50180859185ABD8682FA2
:1027A0005CCF67E872E0CE0101960E94561FBE0121
:1027B0006F5F7F4FC7010E94C21F182FCE01019685
:1027C0000E94EF1E112311F040E014C061E972E095
:1027D000CE0101960E94561FBE016F5F7F4FC70159
:1027E0000E94C21F182FCE0101960E94EF1E1123D6
:1027F00029F041E0B701C501D6DD66C168E972E0A4
:10280000C7010E94811F882329F0F50186819781E5
:10281000C5DC5AC163EA72E0C7010E94811F8823A8
:1028200029F0F50186819781D3DC4EC16EEA72E012
:10283000CE0101960E94561FBE016F5F7F4FC701F8
:102840000E94C21F182FCE0101960E94EF1E112375
:10285000D1F046E050E0B701CE0101964EDDCE0149
:1028600001960E94C920F5018281938133DB882380
:1028700019F06BE072E002C069E072E080EB94E175
:102880000E94A21C96C065EB72E0CE0101960E94E8
:10289000561FBE016F5F7F4FC7010E94C21F182FD6
:1028A000CE0101960E94EF1E112309F449C047E0B2
:1028B00050E0B701CE018D9620DDCE018D960E94AD
:1028C0006D2060E2CE018D960E9414207C011816C6
:1028D00019060CF0EBC09C0140E050E0BE01635DC6
:1028E0007F4FCE0187960E941720A7014F5F5F4F51
:1028F000BE01635D7F4FCE018196FFDCCE018796DE
:102900000E94C9206B017C016DEB72E0CE01019643
:102910000E94561FBE016F5F7F4FCE0181960E94BD
:10292000C21F182FCE0101960E94EF1E41E0111127
:1029300001C040E0B601F50182819381E6DAAEC0C4
:102940006FEB72E0CE0101960E94561FBE016F5FD1
:102950007F4FC7010E94C21FD82ECE0101960E9450
:10296000EF1EDD2049F146E050E0B701CE010196AF
:10297000C4DCCE0101960E94C920F50182819381B9
:10298000E6DA29A33AA34BA35CA36DA34AA15BA1FA
:102990006CA17DA1222339F026E030E080EB94E1A8
:1029A0000E94911E06C02AE030E080EB94E10E9474
:1029B000831DCE0101967CC066EC72E0CE010196CB
:1029C0000E94561FBE016F5F7F4FC7010E94C21F4A
:1029D000D82ECE0101960E94EF1EDD2009F46BC0B7
:1029E00047E050E0B701CE018D9687DCCE018D9691
:1029F0000E946D2060E2CE018D960E9414207C0121
:102A0000181619060CF052C09C0140E050E0BE01BF
:102A1000635D7F4FCE0187960E941720A7014F5F0D
:102A20005F4FBE01635D7F4FCE01819666DC8DA155
:102A30009EA14E9798F520E030E040E250E0BE01C4
:102A40006F5F7F4FCE0181960E94D01F6EE2CE0154
:102A500081960E941420019651F41BAACE01019682
:102A60000E94B6256CAB7DAB8EAB9FAB0AC081E0FC
:102A70008BABCE0101960E94B3256CAB7DAB8EABC8
:102A80009FABCE0187960E94C9200BA91CA92DA936
:102A90003EA94FA9F50182819381A3DACE018196E7
:102AA0000E94EF1ECE0187960E94EF1ECE018D96EA
:102AB0000E94EF1E09C061EF71E080EB94E106D740
:102AC000B70180EB94E14ED7C50153DCE7960FB612
:102AD000F894DEBF0FBECDBFDF91CF911F910F9154
:102AE000FF90EF90DF90CF90BF90AF900895EF925E
:102AF000FF920F931F93CF93DF9300D000D0CDB7F9
:102B0000DEB78C0167FD4BC085579F4F7C01FC01F0
:102B100080819181683031F4181619060CF03FC09D
:102B2000019737C06A3079F51816190674F4F80160
:102B3000E80FF91F22852D3041F40197F7019183A9
:102B40008083F801E80FF91F1286B801665F7F4F96
:102B5000CE0101960E94561FF70111821082F801E2
:102B60001286CE0101960E946D20CE0101960E9430
:102B70005A20BE016F5F7F4FC801C7DCCE010196AE
:102B80000E94EF1E0CC0F801E80FF91F6287019642
:102B9000F70191838083F801E80FF91F12862696CA
:102BA0000FB6F894DEBF0FBECDBFDF91CF911F915E
:102BB0000F91FF90EF900895AF92BF92CF92DF9266
:102BC000EF92FF920F931F93CF93DF93CDB7DEB7B2
:102BD000C054D1090FB6F894DEBF0FBECDBF7C0143
:102BE00080EB94E119D4882361F1AC015527CE0123
:102BF00001966C01BC0180EB94E10E94CD1E8C011A
:102C00001127F701E557FF4F80819181800F911FB8
:102C10008138910514F4560108C011821082F70121
:102C2000128680EB94E18BD60CC0C5018C199D09EE
:102C30008017910734F4F50161915F01C70157DFF7
:102C4000F4CFC05CDF4F0FB6F894DEBF0FBECDBF30
:102C5000DF91CF911F910F91FF90EF90DF90CF9078
:102C6000BF90AF900895FC017183608353834283CA
:102C700014821582089561E0FC01808137C3CF93EF
:102C8000DF93EC018D818F5F8A3010F48D8301C05A
:102C90001D828A819B810E94400381110EC08A811E
:102CA0009B810E943D039D8161E0882319F099304A
:102CB00051F408C0992339F005C0888185D361E0BB
:102CC000019709F460E08881DF91CF9148C3FC014E
:102CD00024812F5F213310F424830895FC01148292
:102CE000CECF1F920F920FB60F9211240BB60F92F8
:102CF0002F933F934F935F936F937F938F939F9304
:102D0000AF93BF93EF93FF93E091A514F091A614B6
:102D10001995FF91EF91BF91AF919F918F917F9105
:102D20006F915F914F913F912F910F900BBE0F903C
:102D30000FBE0F901F901895FC01A3E0440F551F84
:102D4000661F771FAA95D1F74115510581E06807E5
:102D5000710514F481E00EC033E0759567955795C1
:102D600047953A95D1F74115510581E068077105FE
:102D70001CF482E0828331C023E0759567955795F6
:102D800047952A95D1F74115510581E068077105EE
:102D900014F483E0EFCF92E07595679557954795CA
:102DA0009A95D1F74115510581E06807710514F432
:102DB00084E0E0CF82E075956795579547958A95B1
:102DC000D1F785E082834115510581E068077105DF
:102DD00024F04FEF5FEF60E070E08FB78383F894EB
:102DE00051834083509387004093860083818FBF37
:102DF00080918100887F8093810080918100928101
:102E0000892B809381000895E1E8F0E02081DC01C6
:102E100012968C91282B208308950F931F93CF93A4
:102E2000DF93EC018B01BA01A901141615061606F1
:102E300017060CF481DF1D830C8381E080936F0003
:102E4000CE01DF91CF911F910F91DECF1F920F9294
:102E50000FB60F9211242F933F938F939F93AF93AD
:102E6000BF938091A8149091A914A091AA14B09135
:102E7000AB143091A71423E0230F2D3720F40196D3
:102E8000A11DB11D05C026E8230F0296A11DB11D8D
:102E90002093A7148093A8149093A914A093AA1424
:102EA000B093AB148091AC149091AD14A091AE147A
:102EB000B091AF140196A11DB11D8093AC149093F5
:102EC000AD14A093AE14B093AF14BF91AF919F9186
:102ED0008F913F912F910F900FBE0F901F901895DB
:102EE0002FB7F8946091A8147091A9148091AA1436
:102EF0009091AB142FBF08953FB7F8948091AC1414
:102F00009091AD14A091AE14B091AF1426B5A89BCA
:102F100005C02F3F19F00196A11DB11D3FBF6627C7
:102F2000782F892F9A2F620F711D811D911D42E00C
:102F3000660F771F881F991F4A95D1F708958F92C2
:102F40009F92AF92BF92CF92DF92EF92FF926B016E
:102F50007C01D2DF4B015C01C114D104E104F10416
:102F6000E9F00E94E120C8DF681979098A099B0904
:102F7000683E73408105910578F321E0C21AD108BB
:102F8000E108F10888EE880E83E0981EA11CB11CB0
:102F9000C114D104E104F10431F7DECFFF90EF90CA
:102FA000DF90CF90BF90AF909F908F9008957894CE
:102FB00084B5826084BD84B5816084BD85B582603E
:102FC00085BD85B5816085BDEEE6F0E080818160DC
:102FD0008083E1E8F0E010828081826080838081DC
:102FE00081608083E0E8F0E0808181608083E1EBB4
:102FF000F0E0808184608083E0EBF0E0808181609C
:103000008083E1E9F0E0808182608083808181605B
:103010008083E0E9F0E0808181608083E1EAF0E094
:10302000808182608083808181608083E0EAF0E03B
:10303000808181608083E1E2F1E080818260808331
:10304000808181608083E0E2F1E080818160808323
:10305000EAE7F0E080818460808380818260808301
:103060008081816080838081806880831092C1002C
:103070000895863308F0865320917B00982F98702E
:10308000277F922B90937B0087702091060290E41B
:10309000299F90011124822B80937C0080917A00DB
:1030A000806480937A0080917A0086FDFCCF8091C5
:1030B00078002091790090E0922B08951F93CF9390
:1030C000DF93182FEB0161E011D1209711F460E03C
:1030D00004C0CF3FD10531F461E0812FDF91CF9162
:1030E0001F913DC1E12FF0E0E755FD4F449150E0C5
:1030F000FA013197E231F10508F09BC0E058FF4F2B
:103100000C94852384B5806884BDC7BD97C084B501
:10311000806284BDC8BD92C0809180008068809329
:103120008000D0938900C093880088C0809180007F
:10313000806280938000D0938B00C0938A007EC011
:1031400080918000886080938000D0938D00C09330
:103150008C0074C08091B00080688093B000C093F0
:10316000B3006CC08091B00080628093B000C093C7
:10317000B40064C080919000806880939000D093E8
:103180009900C09398005AC080919000806280930B
:103190009000D0939B00C0939A0050C08091900003
:1031A000886080939000D0939D00C0939C0046C09F
:1031B0008091A00080688093A0008091A0008F7B08
:1031C0008093A000D093A900C093A80037C080913D
:1031D000A00080628093A000D093AB00C093AA00AF
:1031E0002DC08091A00088608093A000D093AD0096
:1031F000C093AC0023C0809120018068809320019F
:10320000D0932901C093280119C0809120018062C8
:1032100080932001D0932B01C0932A010FC080918D
:103220002001886080932001D0932D01C0932C0150
:1032300005C0C038D1050CF04FCF49CFDF91CF91F9
:103240001F91089590E0FC013197E231F10508F0FB
:103250004CC0EE56FF4F0C948523809180008F77F1
:1032600003C0809180008F7D8093800008958091BD
:103270008000877FF9CF84B58F7702C084B58F7DBA
:1032800084BD08958091B0008F7703C08091B00015
:103290008F7D8093B0000895809190008F7707C054
:1032A000809190008F7D03C080919000877F8093F4
:1032B000900008958091A0008F7707C08091A000B2
:1032C0008F7D03C08091A000877F8093A000089528
:1032D000809120018F7707C0809120018F7D03C0EE
:1032E00080912001877F809320010895CF93DF9301
:1032F00090E0FC01E151FD4F2491FC01EB5CFC4F9F
:103300008491882349F190E0880F991FFC01E155D1
:10331000FC4FA591B4918B569C4FFC01C591D49163
:103320009FB7611108C0F8948C91209582238C93EB
:10333000888182230AC0623051F4F8948C91322F34
:10334000309583238C938881822B888304C0F894E2
:103350008C91822B8C939FBFDF91CF9108950F9317
:103360001F93CF93DF931F92CDB7DEB7282F30E0A6
:10337000F901E755FD4F8491F901E151FD4F149199
:10338000F901EB5CFC4F04910023C1F0882319F094
:10339000698358DF6981E02FF0E0EE0FFF1FEB56E5
:1033A000FC4FA591B4919FB7F8948C91611103C023
:1033B0001095812301C0812B8C939FBF0F90DF91CB
:1033C000CF911F910F910895CF93DF93282F30E075
:1033D000F901E755FD4F8491F901E151FD4FD49179
:1033E000F901EB5CFC4FC491CC2389F081112ADFF9
:1033F000EC2FF0E0EE0FFF1FE558FC4FA591B491C4
:103400002C912D2381E090E021F480E002C080E047
:1034100090E0DF91CF910895FC01818D228D90E0A5
:10342000805C9F4F821B91098F7399270895FC013F
:10343000918D828D981731F0828DE80FF11D858D69
:1034400090E008958FEF9FEF0895FC01918D828D9C
:10345000981761F0828DDF01A80FB11D5D968C91E8
:10346000928D9F5F9F73928F90E008958FEF9FEFF3
:1034700008958CED9BE1892B39F080E090E0892B59
:1034800019F09AD1811125C080E090E0892B41F09C
:1034900080E090E0892B21F00E94000081111CC087
:1034A00080E090E0892B41F080E090E0892B21F0D2
:1034B0000E940000811113C080E090E0892BA1F0F0
:1034C00080E090E0892B81F00E94000081110AC009
:1034D00008950E940000D8CF0E940000E1CF0E9412
:1034E0000000EACF0C9400000895FC01848DDF01F8
:1034F000A80FB11DA35ABF4F2C91848D90E0019667
:103500008F739927848FA689B7892C93A089B18955
:103510008C9180648C93938D848D981306C002885F
:10352000F389E02D80818F7D80830895CF93DF9391
:10353000EC01888D8823C1F0EA89FB89808185FDB3
:1035400005C0A889B9898C9186FD0EC00FB607FC0D
:10355000F5CF808185FFF2CFA889B9898C9185FF4D
:10356000EDCFCE01C2DFE8CFDF91CF910895CF92AA
:10357000DF92FF920F931F93CF93DF931F92CDB7EC
:10358000DEB76C0181E0D60158968C9358975B9614
:103590009C915B975C968C915C97981307C05096B2
:1035A000ED91FC915197808185FD2DC0F601038D31
:1035B00010E00F5F1F4F0F731127F02EF601848D5F
:1035C000F81210C00FB607FCF9CFD6015096ED9156
:1035D000FC915197808185FFF1CFC601698385DF1A
:1035E0006981ECCF838DE80FF11DE35AFF4F6083B3
:1035F000D6015B960C935B975296ED91FC91539795
:10360000808180620CC0D6015696ED91FC9157974F
:1036100060835096ED91FC91519780818064808306
:1036200081E090E00F90DF91CF911F910F91FF907B
:10363000DF90CF900895BF92CF92DF92EF92FF92EA
:10364000CF93DF93EC016A017B01B22EE889F989FF
:1036500082E08083411581EE580761057105A1F074
:1036600060E079E08DE390E0A70196010E9463237A
:1036700021503109410951095695479537952795AC
:10368000211580E1380798F0E889F989108260E80F
:1036900074E88EE190E0A70196010E946323215017
:1036A0003109410951095695479537952795EC857C
:1036B000FD853083EE85FF852083188EEC89FD899A
:1036C000B082EA89FB89808180618083EA89FB89F5
:1036D000808188608083EA89FB898081806880831B
:1036E000EA89FB8980818F7D8083DF91CF91FF9074
:1036F000EF90DF90CF90BF9008951F920F920FB67A
:103700000F9211240BB60F922F938F939F93EF93E9
:10371000FF93E091C014F091C1148081E091C61430
:10372000F091C71482FD12C090818091C9148F5FFF
:103730008F732091CA14821751F0E091C914F0E000
:10374000E055FB4E958F8093C91401C08081FF9195
:10375000EF919F918F912F910F900BBE0F900FBE05
:103760000F901F9018951F920F920FB60F92112471
:103770000BB60F922F933F934F935F936F937F936B
:103780008F939F93AF93BF93EF93FF9380EB94E15D
:10379000ACDEFF91EF91BF91AF919F918F917F919F
:1037A0006F915F914F913F912F910F900BBE0F90B2
:1037B0000FBE0F901F90189580EB94E12DDE21E055
:1037C000892B09F420E0822F08951092B3141092EF
:1037D000B21488EE93E0A0E0B0E08093B41490932C
:1037E000B514A093B614B093B71482EE92E0909300
:1037F000B1148093B01485EC90E09093BD14809345
:10380000BC1484EC90E09093BF148093BE1480ECC1
:1038100090E09093C1148093C01481EC90E0909359
:10382000C3148093C21482EC90E09093C5148093EB
:10383000C41486EC90E09093C7148093C614109241
:10384000C9141092CA141092CB141092CC1408957B
:10385000CF92DF92EF92FF920F931F93CF93DF935C
:103860007C016A01EB0100E010E00C151D0571F010
:103870006991D701ED91FC910190F081E02DC70194
:103880001995892B19F00F5F1F4FEFCFC801DF91FA
:10389000CF911F910F91FF90EF90DF90CF900895FF
:1038A0006115710581F0DB010D900020E9F7AD0194
:1038B00041505109461B570BDC01ED91FC910280F0
:1038C000F381E02D199480E090E00895EF92FF924B
:1038D0000F931F93CF93DF938C017B01C0E0D0E067
:1038E000F701EC0FFD1F6491662359F0F801A081E8
:1038F000B181ED91FC91C8011995892B11F02196A8
:10390000EFCFCE01DF91CF911F910F91FF90EF90FC
:103910000895DC01ED91FC91DB0114964D915C91D1
:1039200015976D917C910280F381E02D1994B8CFA9
:10393000DC01ED91FC910190F081E02D19946EEE87
:1039400072E0AECF0F931F93CF93DF93EC01BEDFF6
:103950008C01CE01F4DF800F911FDF91CF911F9179
:103960000F9108950F931F93CF93DF93EC01D1DF55
:103970008C01CE01E4DF800F911FDF91CF911F9169
:103980000F9108950F931F93CF93DF93EC0188DF7E
:103990008C01CE01D4DF800F911FDF91CF911F9159
:1039A0000F9108958F929F92AF92BF92DF92EF9204
:1039B000FF920F931F93CF93DF93CDB7DEB7A197FD
:1039C0000FB6F894DEBF0FBECDBF7C01F42FD52E0D
:1039D000CB0119A2223008F42AE08E010F5D1F4F9F
:1039E000822E912CA12CB12C6F2F7D2DA50194013D
:1039F0006AD6F22FD32ECA01015011096A3014F48D
:103A0000E0E301C0E7E3E60FD801EC93232B242B7E
:103A1000252B51F7B801C70143DFA1960FB6F894E3
:103A2000DEBF0FBECDBFDF91CF911F910F91FF90F1
:103A3000EF90DF90BF90AF909F908F900895CF92BE
:103A4000DF92EF92FF920F931F93CF93DF93EC01DE
:103A50006A017B012115310579F4E881F981019032
:103A6000F081E02D642FDF91CF911F910F91FF9096
:103A7000EF90DF90CF9019942A303105D9F477FF79
:103A800018C06DE255DF8C0144275527BA014C1947
:103A90005D096E097F092AE0CE0184DF800F911F46
:103AA000DF91CF911F910F91FF90EF90DF90CF901A
:103AB00008952AE0B701A601CE01DF91CF911F91B1
:103AC0000F91FF90EF90DF90CF906CCF9A01AB01F8
:103AD000662757FD6095762FB2CF0F931F93CF9334
:103AE000DF93EC019A01AB01662757FD6095762FB5
:103AF000A6DF8C01CE0123DF800F911FDF91CF91D4
:103B00001F910F9108950F931F93CF93DF93EC01B3
:103B100096DF8C01CE0113DF800F911FDF91CF91D3
:103B20001F910F9108952115310541F4DC01ED91AC
:103B3000FC910190F081E02D642F199433CF9A010C
:103B4000462F50E060E070E0EECF0F931F93CF93CD
:103B5000DF93EC019A01462F50E060E070E0E3DF74
:103B60008C01CE01ECDE800F911FDF91CF911F9170
:103B70000F9108954F925F926F927F928F929F92D2
:103B8000AF92BF92CF92DF92EF92FF920F931F936B
:103B9000CF93DF93EC016A017B01B22E9A01AB0156
:103BA000C701B6017DD5882319F061EF72E024C00A
:103BB00026013701E89477F82FEF3FEF4FE75FE7F3
:103BC000C301B2016DD581110CC02FEF3FEF4FE75C
:103BD0005FE7C301B2015BD318161CF465EF72E016
:103BE0000BC02FEF3FEF4FE75FE4C701B601F1D401
:103BF0001816A4F469EF72E0CE01DF91CF911F9106
:103C00000F91FF90EF90DF90CF90BF90AF909F907B
:103C10008F907F906F905F904F9042CE2FEF3FEF4D
:103C20004FE75FECC701B60132D387FDE3CF20E059
:103C300030E0A901C701B6012AD387FF09C06DE2B0
:103C4000CE0176DE8C01F7FAF094F7F8F09402C01A
:103C500000E010E0A12C60E070E080E09FE3AB1496
:103C600039F020E030E040E251E415D3A394F7CFDF
:103C70009B01AC01C701B601A6D26B017C0178D3D0
:103C80002B013C01A1D39B01AC01C701B6019AD223
:103C90006B017C012AE0B301A201CE0183DE080F93
:103CA000191FBB2031F06DEF72E0CE01F9DD080F76
:103CB000191F7B2C772019F120E030E040E251E41D
:103CC000C701B6018AD46B017C014DD34B01AA24F4
:103CD00097FCA094BA2C2AE030E0B501A401CE01F3
:103CE000AEDE080F191FC501B40170D39B01AC01F2
:103CF000C701B60167D26B017C017A94DBCFC801A2
:103D0000DF91CF911F910F91FF90EF90DF90CF90B7
:103D1000BF90AF909F908F907F906F905F904F90EB
:103D200008950F931F93CF93DF93EC0123DF8C0152
:103D3000CE0105DE800F911FDF91CF911F910F9172
:103D400008950F931F93CF93DF93EC01C9D8688731
:103D500079878A879B87E881F9810680F781E02D42
:103D6000CE01199597FF14C0BBD8088519852A85FF
:103D70003B85601B710B820B930B0C811D812E8187
:103D80003F81601771078207930728F38FEF9FEF3A
:103D9000DF91CF911F910F910895CF92DF92EF9213
:103DA000FF920F931F93CF93DF937C016A01EB0186
:103DB00000E010E00C151D0541F0C701C2DF97FDC2
:103DC00004C089930F5F1F4FF5CFC801DF91CF91DA
:103DD0001F910F91FF90EF90DF90CF900895FC011D
:103DE000808191814DC5CF93DF93EC0188819981CA
:103DF000009709F045D5198218821D821C821B820A
:103E00001A82DF91CF9108950F931F93CF93DF9381
:103E1000EC018B016F5F7F4F88819981C0D500973E
:103E200031F0998388831B830A8381E001C080E09D
:103E3000DF91CF911F910F910895CF93DF93EC0104
:103E400088819981892B29F08A819B818617970720
:103E500058F4CE01D9DF882341F08C819D81892BD4
:103E600019F4E881F981108281E0DF91CF91089502
:103E7000EF92FF920F931F93CF93DF93EC017B019F
:103E80008A01BA01DADF811103C0CE01ACDF06C0BE
:103E90001D830C83B70188819981BBD6CE01DF9148
:103EA000CF911F910F91FF90EF900895FC01118227
:103EB000108213821282158214826115710551F0ED
:103EC000FB0101900020E9F7AF0141505109461B69
:103ED000570BCECF0895CF93DF93EC016115710599
:103EE00059F0FB0101900020E9F7AF014150510961
:103EF000461B570BBDDF01C076DFCE01DF91CF91AE
:103F00000895FC0124813581232B31F421E06115D2
:103F1000710599F0FB0108C0FC0180819181611558
:103F2000710531F421E0FC018081882331F004C067
:103F300067D621E0892B09F020E0822F0895FA014D
:103F4000DB0114964D915C911597DC0114962D912F
:103F50003C911597241B350B2E173F0780F08D9150
:103F60009C91009761F0DB016D917C916115710569
:103F700031F08E0F9F1F54D621E0892B09F020E0ED
:103F8000822F0895FC0144815581FB0124813581F4
:103F90004217530718F040E050E0D1CF80E0089579
:103FA0000F931F93CF93DF93EB0141155105E1F080
:103FB0002097D1F0FC01648175812617370798F4AA
:103FC000621B730B8A01015011096017710708F415
:103FD0008B01FC0160817181620F731FA801CE010A
:103FE0002DD6C00FD11F1882DF91CF911F910F9155
:103FF0000895CF93DF93FC01848195814817590779
:1040000070F4C081D181772767FD7095CE01840F50
:10401000951FEBD5009719F08C1B9D0B02C08FEFFD
:104020009FEFDF91CF91089540E050E0E2CFBF9243
:10403000CF92DF92EF92FF920F931F93CF93DF9374
:104040006C017B01EA0189012417350720F48D2FCB
:10405000E901042F182F60EF72E0C60127DFD701B6
:1040600014968D919C911597C817D907C0F48017A5
:10407000910708F48C01D701ED91FC911197E00FA5
:10408000F11FB08010826D917C916C0F7D1FC60175
:1040900022DFD701ED91FC91E00FF11FB082C60144
:1040A000DF91CF911F910F91FF90EF90DF90CF9014
:1040B000BF900895CF93DF93FC01C081D1812097F9
:1040C00049F08881882331F0992787FD90957CD528
:1040D0008993F7CFDF91CF910895AF92BF92CF929E
:1040E000DF92EF92FF920F931F93CF93DF937C01A8
:1040F000DC01CD90DC901197C114D10409F43EC0CD
:104100001496CD91DC9115972097C1F15601850148
:10411000BFEFAB1ABB0AF8018081992787FD909504
:104120004BD5892BA1F72197CC0DDD1D88819927CF
:1041300087FD909541D5892B89F4AE014F5F5F4F84
:10414000401B510BD70115965C934E931497C016E4
:10415000D10648F4B801C6013FD505C0C017D10744
:1041600060F32197E3CFD701ED91FC91119714965D
:104170008D919C911597E80FF91F1082DF91CF91D7
:104180001F910F91FF90EF90DF90CF90BF90AF9075
:104190000895FC0180819181009709F0E7C460E0F7
:1041A00070E0CB01089508950E94D717FCDF0E94AC
:1041B000DB0EC9E3DAE10E94FC0E2097E1F359D946
:1041C000FACF08955058BB27AA270ED0B1C1A2D16B
:1041D00030F0A7D120F031F49F3F11F41EF497C1C5
:1041E0000EF4E095E7FB64C1E92FB3D180F3BA1771
:1041F000620773078407950718F071F49EF5E2C112
:104200000EF4E0950B2EBA2FA02D0B01B9019001F1
:104210000C01CA01A0011124FF27591B99F0593F35
:1042200050F4503E68F11A16F040A22F232F342F7D
:104230004427585FF3CF469537952795A795F040CB
:104240005395C9F77EF41F16BA0B620B730B840BE0
:10425000BAF09150A1F0FF0FBB1F661F771F881F98
:10426000C2F70EC0BA0F621F731F841F48F48795F0
:1042700077956795B795F7959E3F08F0B3CF9395DF
:10428000880F08F09927EE0F979587950895ECD041
:1042900008F481E008950CD04BC143D140F03AD1ED
:1042A00030F021F45F3F19F003C151118CC12FC1CF
:1042B00050D198F39923C9F35523B1F3951B550BAE
:1042C000BB27AA2762177307840738F09F5F5F4FE9
:1042D000220F331F441FAA1FA9F333D00E2E3AF02A
:1042E000E0E830D091505040E695001CCAF729D044
:1042F000FE2F27D0660F771F881FBB1F2617370793
:104300004807AB07B0E809F0BB0B802DBF01FF27C2
:1043100093585F4F2AF09E3F510568F0C9C053C1C2
:104320005F3FECF3983EDCF3869577956795B795FC
:10433000F7959F5FC9F7880F911D9695879597F917
:104340000895E1E0660F771F881FBB1F6217730790
:104350008407BA0720F0621B730B840BBA0BEE1FA5
:1043600088F7E095089504D06894B1112CC10895A0
:10437000F8D088F09F5790F0B92F9927B751A0F047
:10438000D1F0660F771F881F991F1AF0BA95C9F7E9
:1043900012C0B13081F016D1B1E0089513C1672F7A
:1043A000782F8827B85F39F0B93FCCF38695779599
:1043B0006795B395D9F73EF4909580957095619582
:1043C0007F4F8F4F9F4F0895E89409C097FB3EF4AD
:1043D00090958095709561957F4F8F4F9F4F992352
:1043E000A9F0F92F96E9BB279395F69587957795D0
:1043F0006795B795F111F8CFFAF4BB0F11F460FF90
:104400001BC06F5F7F4F8F4F9F4F16C0882311F0E7
:1044100096E911C0772321F09EE8872F762F05C0FB
:10442000662371F096E8862F70E060E02AF09A9596
:10443000660F771F881FDAF7880F9695879597F98B
:104440000895A9D080F09F3740F491110EF0BBC0C1
:1044500060E070E080E89FEB089526F41B16611D74
:10446000711D811D2BC045C0990F0008550FAA0B67
:10447000E0E8FEEF16161706E807F907C0F0121677
:104480001306E407F50798F0621B730B840B950B7A
:1044900039F40A2661F0232B242B252B21F40895CF
:1044A0000A2609F4A140A6958FEF811D811D08956C
:1044B00097F99F6780E870E060E00895882371F4C1
:1044C000772321F09850872B762F07C0662311F4AD
:1044D00099270DC09051862B70E060E02AF09A95E4
:1044E000660F771F881FDAF7880F9695879597F9DB
:1044F00008959F3F31F0915020F487957795679507
:10450000B795880F911D9695879597F908959FEF18
:1045100080EC089500240A9416161706180609065A
:10452000089500240A941216130614060506089529
:10453000092E0394000C11F4882352F0BB0F40F4B1
:10454000BF2B11F460FF04C06F5F7F4F8F4F9F4FF1
:10455000089557FD9058440F551F59F05F3F71F073
:104560004795880F97FB991F61F09F3F79F08795DA
:104570000895121613061406551FF2CF4695F1DF63
:1045800008C0161617061806991FF1CF86957105F3
:10459000610508940895E5DFA0F0BEE7B91788F437
:1045A000BB279F3860F41616B11D672F782F882718
:1045B000985FF7CF869577956795B11D9395963956
:1045C000C8F30895E894BB2766277727CB0197F9AE
:1045D00008954ADF08F48FEF08950BD0A9CF9ADF32
:1045E00028F09FDF18F0952309F062CF90CF1124B7
:1045F000EACFAFDFA0F3959FD1F3950F50E0551FA1
:10460000629FF001729FBB27F00DB11D639FAA2727
:10461000F00DB11DAA1F649F6627B00DA11D661F76
:10462000829F2227B00DA11D621F739FB00DA11D97
:10463000621F839FA00D611D221F749F3327A00D51
:10464000611D231F849F600D211D822F762F6A2FED
:1046500011249F5750408AF0E1F088234AF0EE0F72
:10466000FF1FBB1F661F771F881F91505040A9F77F
:104670009E3F510570F01CCFA6CF5F3FECF3983EF4
:10468000DCF3869577956795B795F795E7959F5FE6
:10469000C1F7FE2B880F911D9695879597F9089580
:1046A000E3DE880B990B0895DB018F939F9333D042
:1046B000BF91AF91A29F800D911DA39F900DB29FBE
:1046C000900D11240895A1E21A2EAA1BBB1BFD0117
:1046D0000DC0AA1FBB1FEE1FFF1FA217B307E407E1
:1046E000F50720F0A21BB30BE40BF50B661F771F39
:1046F000881F991F1A9469F7609570958095909519
:104700009B01AC01BD01CF010895EE0FFF1F059085
:10471000F491E02D19940DD0A59F900DB49F900DAC
:10472000A49F800D911D112408950790F691E02D0E
:104730001994A29FB001B39FC001A39F700D811D6A
:104740001124911DB29F700D811D1124911D08959A
:10475000CF93DF938230910510F482E090E0E091F6
:104760004F15F091501520E030E0A0E0B0E0309718
:1047700039F14081518148175907B8F04817590756
:1047800071F482819381109729F013969C938E93F4
:1047900012972CC09093501580934F1527C0211568
:1047A000310531F04217530718F0A901DB0101C0B0
:1047B000EF019A01BD01DF010280F381E02DD7CF27
:1047C00021153105F9F0281B390B2430310580F40F
:1047D0008A819B816115710521F0FB01938382839E
:1047E00004C09093501580934F15FE01329644C03B
:1047F000FE01E20FF31F8193919322503109398317
:1048000028833AC020914D1530914E15232B41F449
:10481000209102023091030230934E1520934D15E2
:1048200020910002309101022115310541F42DB78C
:104830003EB74091040250910502241B350BE091D4
:104840004D15F0914E15E217F307A0F42E1B3F0B08
:104850002817390778F0AC014E5F5F4F24173507F2
:1048600048F04E0F5F1F50934E1540934D158193A6
:10487000919302C0E0E0F0E0CF01DF91CF91089585
:10488000CF93DF93009709F487C0FC01329713821E
:104890001282C0914F15D0915015209781F420813C
:1048A0003181280F391F80914D1590914E15821737
:1048B000930779F5F0934E15E0934D156DC0DE0129
:1048C00020E030E0AE17BF0750F412964D915C9196
:1048D00013979D014115510509F1DA01F3CFB38317
:1048E000A28340815181840F951F8A179B0771F421
:1048F0008D919C911197840F951F029691838083CF
:1049000012968D919C911397938382832115310583
:1049100029F4F0935015E0934F153EC0D90113963A
:10492000FC93EE9312974D915D91A40FB51FEA177A
:10493000FB0779F480819181840F951F0296D9013C
:1049400011969C938E938281938113969C938E9360
:104950001297E0E0F0E08A819B81009719F0FE0158
:10496000EC01F9CFCE01029628813981820F931F85
:1049700020914D1530914E152817390769F430975D
:1049800029F41092501510924F1502C01382128212
:10499000D0934E15C0934D15DF91CF9108956F922E
:1049A0007F928F929F92AF92BF92CF92DF92EF92BF
:1049B000FF920F931F93CF93DF93EC01CB012097CE
:1049C00079F4DF91CF911F910F91FF90EF90DF90DD
:1049D000CF90BF90AF909F908F907F906F90B8CE08
:1049E000FE01E60FF71F9E0122503109E217F3077F
:1049F00008F4A8C0D9010D911C911197061717074B
:104A0000B0F00530110508F49BC0A80144505109CD
:104A10004617570708F494C002501109061B170BDC
:104A2000019311936D937C93CF012ADF89C05B01C1
:104A3000A01AB10A4E01800E911EA0914F15B0919F
:104A40005015612C712C60E070E0109709F449C09A
:104A5000A815B905C9F5ED90FC901197670142E0E2
:104A6000C40ED11CCA14DB0478F147018A189B08D4
:104A7000640142E0C40ED11C1296BC9012971396AA
:104A8000AC91B5E0CB16D10440F0B282A383918201
:104A90008082D9018D939C9309C00E5F1F4F0E0D2C
:104AA0001F1DF90111830083EB2DFA2F611571058C
:104AB00031F0DB011396FC93EE93129741C0F09313
:104AC0005015E0934F153CC06D917C91119766167F
:104AD000770608F43B01BD0112960D90BC91A02D04
:104AE000B4CF60914D1570914E1568157905E9F4B4
:104AF00068167906D0F440910002509101024115E8
:104B0000510541F44DB75EB7609104027091050202
:104B1000461B570BE417F507A8F4F0934E15E093E6
:104B20004D15F901918380830BC012DE7C01009743
:104B300049F0A801BE0150D0CE01A2DEC70104C0D9
:104B4000CE0102C080E090E0DF91CF911F910F91E4
:104B5000FF90EF90DF90CF90BF90AF909F908F909D
:104B60007F906F90089566277727A2C01F93FC015E
:104B700099278827BC01E89411911032E9F3193084
:104B800010F01E30C8F31B3249F01D3241F4689416
:104B900005C063D0610F711D811D911D11911053CE
:104BA0001A30B8F33EF490958095709561957F4FDB
:104BB0008F4F9F4F1F9108959111E2C1803219F0DC
:104BC00089508550D0F708959111089581548A51E4
:104BD00008F4805E855A0895FB01DC0102C0019053
:104BE0000D9241505040D8F70895FC0181918617ED
:104BF00021F08823D9F7992708953197CF01089597
:104C0000FB01DC018D91019080190110D9F3990B02
:104C10000895FB01DC0101900D920020E1F7089559
:104C2000FB01DC014150504030F08D910190801922
:104C300019F40020B9F7881B990B0895FB01DC01DA
:104C40004150504048F001900D920020C9F701C03A
:104C50001D9241505040E0F70895592F482F372FAB
:104C6000262F660F771F881F991F660F771F881FD3
:104C7000991F620F731F841F951F660F771F881F70
:104C8000991F0895F999FECF92BD81BDF89A992791
:104C900080B50895262FF999FECF1FBA92BD81BD28
:104CA00020BD0FB6F894FA9AF99A0FBE01960895AE
:104CB0008F929F92AF92BF92CF92DF92EF92FF922C
:104CC0000F931F93CF93DF938B016115710521F033
:104CD000DB018C9311969C93EC015E01BFEFAB1A44
:104CE000BB0A7501C8808C2D90E066DF892B11F01E
:104CF000E501F3CFEDE2CE1208C07E01F2E0EF0E47
:104D0000F11CC980DD24D39409C02BE2C21205C076
:104D10007E0142E0E40EF11CC980D12CE70121970D
:104D200043E050E061ED73E0CE012DD1892BB9F461
:104D3000239645E050E06CEC73E0CE0124D1892B42
:104D400009F425960115110519F0D801CD93DC93CE
:104D5000D11000C160E070E080E89FE704C143E04B
:104D600050E069EC73E0CE010ED1892B59F40115A6
:104D7000110509F4F4C0B2E0EB0EF11CF801F18268
:104D8000E082EDC0F70160E070E0CB01C0E0D0E070
:104D90007F01A0EDAA2EAC0C29E02A1528F14D2D9B
:104DA0004260B42E2D2D2870D2FE04C0211124C0E3
:104DB000219622C021112197A5E0B0E09B01AC0112
:104DC000AADC660F771F881F991F6A0D711D811D50
:104DD000911D6839A9E97A078A07A9E19A0760F065
:104DE000BD2DB660BB2E08C02EEFA2120AC0D3FCA8
:104DF00050C04D2D4860B42E3196D701CC90DB2C9D
:104E0000C7CF2C2D2F7D253409F043C0A081AD32B2
:104E100041F4BD2DB061DB2E7F0122E0E20EF11CDA
:104E20000CC07F01AB3231F04FEFE41AF40A21E0FD
:104E300030E006C0A2E0EA0EF11CA18122E030E0E1
:104E4000A053AA3018F0E21AF30A23C0F70120E0B9
:104E500030E02038BCE03B075CF4A901440F551F4B
:104E6000440F551F240F351F220F331F2A0F311DEA
:104E7000AF014F5F5F4F7A01A081A053AA3010F4B9
:104E8000FA01E7CFD4FE03C0319521953109C20F55
:104E9000D31FD1FE09C00115110531F0E1E0EE1A72
:104EA000F108D801ED92FC928FDA2D2D237023307A
:104EB00019F04B015C0106C04B015C01B7FAB094DC
:104EC000B7F8B09420E030E0A901C501B401DFD902
:104ED000882309F43CC0D7FF06C0D195C195D109FC
:104EE00008EE13E002C000E014E06801B8E1CB1A5C
:104EF000D10890E2E92EF12CCE15DF056CF0F80117
:104F00002591359145915491C501B40166DB4B0162
:104F10005C01CE19DF09F0CF04501109F594E79434
:104F20000C151D0549F78A2D880F8B2D881F8F3F83
:104F300041F020E030E0A901C501B401A8D98111F8
:104F400006C082E290E09093521580935115C501FE
:104F5000B40109C060E070E080E89FEF04C060E049
:104F600070E080EC9FE7DF91CF911F910F91FF9050
:104F7000EF90DF90CF90BF90AF909F908F9008956B
:104F8000992788270895FB01DC014150504088F0A3
:104F90008D9181341CF08B350CF4805E6591613409
:104FA0001CF06B350CF4605E861B611171F3990B7C
:0A4FB0000895881BFCCFF894FFCF92
:104FBA0000005315800001020003000400050006EA
:104FCA00000700080009000A000B000C002C002D45
:104FDA00002E003000696E666F726D6174696F6EC3
:104FEA00006465766963652D636F6E66696700663E
:104FFA006163746F72792D726573657400636F6E85
:10500A006669672D726573657400636F6E6669679A
:10501A002D6F75747075742000636F6E6669672DE5
:10502A0070776D20007374617475730073746172A4
:10503A00740073746F7000646F776E6C6F616420B4
:10504A00007061746368200072756E74696D652DF5
:10505A0069640076657273696F6E2D6964007265A2
:10506A00616420620077726974652062003100729F
:10507A00656164206E007772697465206E00417202
:10508A006475696E6F00312E3000302E31000000D9
:10509A000000B71A281C0C1A251A171A961A0D0A94
:1050AA00006E616E00696E66006F7666002E000003
:00000001FF
