:10000000FBC100002AC2000028C2000026C2000076
:1000100024C2000022C2000020C200001EC2000054
:100020001CC200001AC2000018C2000016C2000064
:1000300014C2000012C2000010C200000EC2000074
:100040000CC200000AC2000008C2000006C2000084
:100050000C94A51502C2000000C200000C945A16B0
:10006000FCC100000C94561A0C948C1AF6C10000C6
:10007000F4C10000F2C10000F0C10000EEC10000B8
:10008000ECC10000EAC10000E8C10000E6C10000C8
:10009000E4C10000E2C10000E0C10000DEC10000D8
:1000A000DCC10000DAC10000D8C10000D6C10000E8
:1000B000D4C10000D2C10000D0C10000CEC10000F8
:1000C000CCC10000CAC10000C8C10000C6C1000008
:1000D000C4C10000C2C10000C0C10000BEC1000018
:1000E000BCC10000C30AC70ACB0ACF0AD30AD70A89
:1000F000430BDB0AE90AEF0AF50AFB0A010B070BBF
:100100005B17601765176F177917F21783178B172F
:1001100093179D17A717B117C017CA17F217D4174F
:10012000DE17E8171418171806180A1810184E18B2
:100130001B181F18251829182D18331837183B18A5
:100140004E18411845184918696E707574006F751E
:1001500074707574002C20002C200070696E002CC7
:1001600020616E616C6F674F7574707574002C2020
:100170000070696E002C20616E616C6F67496E7053
:100180007574002C2000410052756E74696D6556BF
:10019000657273696F6E49643D0052756E74696D66
:1001A0006549643D0042797465733D004279746528
:1001B000733D0066616C73650074727565005375FC
:1001C00063636573733D00454F4D004572726F72F6
:1001D0003D6E6F207375636820636F6D6D616E6433
:1001E0003A20003000310066616C736500747275EE
:1001F000650052756E6E696E673D004572726F7272
:100200003D4E6F7420612076616C69642050574DBB
:100210002070696E3A2000446576696365204E61FE
:100220006D653D0043757272656E742050726F6724
:1002300072616D2053697A653D004D61782050727E
:100240006F6772616D2053697A653D0053747269FE
:100250006E67733D004E756D65726963733D004254
:100260006F6F6C65616E733D0050726F746F636F7A
:100270006C2056657273696F6E3D00536F617042FA
:100280006F7820536E61702041726475696E6F20C3
:1002900052756E74696D650000000A0B02090C0D41
:1002A0000E08070304010000000000000000000029
:1002B000000000000000000000000000000000003E
:1002C00000000000121110000000000000000000FB
:1002D000000000000000000000000000000001021B
:1002E0001020200808102040102040800201020148
:1002F0000804020101020408102040808040201000
:100300000804020180040201804020100804020158
:1003100008040201010204081020408001020408C0
:100320001020408005050505070508080808020299
:1003300002020A0A0808040404040101010101017F
:1003400001010303030303030303040707070C0C62
:100350000C0C0C0C0C0C0202020206060606060629
:1003600006060B0B0B0B0B0B0B0B000020002300E6
:10037000260029002C002F0032000001000003019C
:100380000601090100002200250028002B002E0094
:100390003100340002010000050108010B010000DA
:1003A0002100240027002A002D0030003300010125
:1003B0000000040107010A014E414E494E495459BB
:1003C000494E46CDCCCC3D0AD7233C17B7D1387720
:1003D000CC2B329595E6241FB14F0A000020410036
:1003E00000C84200401C4620BCBE4CCA1B0E5AAE80
:1003F000C59D74005F0EBE1A11241FBECFEFD1E25F
:10040000DEBFCDBF00E00CBF12E0A0E0B2E0EAE644
:10041000FDE400E00BBF02C007900D92AC3FB107B6
:10042000D9F725E1ACEFB2E001C01D92AF34B207BD
:10043000E1F713E0C8EFD3E000E006C0229701091E
:10044000FE010BBF0E946D22C43FD10780E0080768
:10045000A9F70E94AD1F0C94B326D2CDFC01718385
:10046000608308950F931F93CF93DF938C01C0E0B7
:10047000D0E0F801808191818C0F9D1F0E941A2588
:10048000F801EC0FFD1F82832196C833D10589F74F
:10049000DF91CF911F910F9108950F931F93CF93E9
:1004A000DF938C01C0E0D0E0F801EC0FFD1FD80114
:1004B0008D919C9162818C0F9D1F0E942225219617
:1004C000C833D10589F7DF91CF911F910F9108951E
:1004D0009B01225031092433310550F46D307105F0
:1004E00039F0FC01E60FF71F81E092819F3F09F090
:1004F00080E008959B01225031092433310540F4F6
:100500006D30710529F0FC01E60FF71F8FEF828334
:1005100008959B01225031092433310550F46D3088
:10052000710539F0FC01E60FF71F81E092819130EF
:1005300009F080E008959B012250310924333105F0
:1005400040F46D30710529F0FC01E60FF71F81E0E2
:10055000828308950F931F93CF93DF938C01C2E0A2
:10056000D0E0CD30D10519F0BE01C801C3DF21961E
:10057000C633D105B1F7DF91CF911F910F91089547
:10058000CB0102970895E7E0F2E0819191918617FF
:10059000970731F082E0E332F807B9F780E0089579
:1005A00081E008950F931F93CF93DF938C01EB01AC
:1005B000EADF882331F0C00FD11F81E09A819230A9
:1005C00009F080E0DF91CF911F910F910895DF92A4
:1005D000EF92FF920F931F93CF93DF938C017B01D8
:1005E000E1DF8823A1F0C7E0D2E080E1D82E699155
:1005F00079916E157F0549F0C801D4DF8111D3943C
:1006000082E0C332D80799F702C08D2D01C080E087
:10061000DF91CF911F910F91FF90EF90DF900895A0
:100620000F931F93CF93DF938C01EB01ACDF8823F3
:1006300021F0C00FD11F82E08A83DF91CF911F91FB
:100640000F910895FC017183608353834283358346
:100650002483118E128613861486158616861786B5
:10066000108A118A128A138A0895FC0182850895DE
:10067000FC01818D0895CF93DF93EC018D89811169
:100680000EC06E817F818A819B810E94A10F8C8B1D
:100690008E819F8101969F838E8388E08D8B8C89CC
:1006A000982F990F9C8B9D8991509D8B881F88272F
:1006B000881FDF91CF910895DF92EF92FF920F9301
:1006C0001F93CF93DF937C01862FC0E0D0E0042FEF
:1006D00010E0C017D1073CF4D82EDD0CC701CBDFEA
:1006E0008D292196F6CFDF91CF911F910F91FF9029
:1006F000EF90DF900895EF92FF920F931F93CF93A7
:10070000DF938C01C0E0D0E020E030E0F80180858C
:1007100090E0C817D9074CF47901EE0CFF1CC80112
:10072000AADF9701282B2196F1CFC901DF91CF9144
:100730001F910F91FF90EF900895CF93DF93EC01FD
:10074000DADF2F89222321F04B8521E0422701C0E7
:1007500040E0BC018C819D81DF91CF910C94CC0E47
:10076000FF920F931F93CF93DF93EC01C4DF8C01B3
:10077000BC018C819D810E94B10EF82E8F89811160
:1007800002C04B8501C041E0B8018C819D810E946F
:10079000CC0EF11007C08F89882321F08B8591E062
:1007A000892701C080E08F8BDF91CF911F910F913E
:1007B000FF900895FF920F931F93CF93DF93EC0167
:1007C0009ADF8C01BC018C819D810E94B10EF82EB4
:1007D0008F89882321F04B8581E0482701C040E0C4
:1007E000B8018C819D810E94CC0EFF2039F08F8949
:1007F000811104C08B8591E0892701C080E08F8B37
:10080000DF91CF911F910F91FF900895CF93DF93C8
:10081000EC0131DF811107C0CE012DDF91E0813085
:1008200059F090E009C0CE0166DFBC018C819D814A
:10083000DF91CF910C94B10E892FDF91CF91089564
:10084000CF93DF93EC01E2DF9F89911101C080E03B
:100850008F8BDF91CF910895CF93DF93EC01D6DF9B
:100860009F89992319F091E0982701C090E09F8B10
:10087000DF91CF9108951F93CF93DF93EC01C6DFF3
:10088000182FCE0138DFBC018B8581110FC08F89F5
:10089000882361F08C819D81112311F040E001C01B
:1008A00041E0DF91CF911F910C94CC0EDF91CF915D
:1008B0001F910895FC01418560E0FECEAF92BF928A
:1008C000CF92DF92EF92FF920F931F93CF93DF931C
:1008D0008C01C62F60E070E0CB01A12CB12CD0E0E0
:1008E000AC16BD068CF46B017C01CC0CDD1CEE1C3F
:1008F000FF1CC801C0DEA7019601282BCA01B9015F
:100900003FEFA31AB30AECCFDF91CF911F910F9164
:10091000FF90EF90DF90CF90BF90AF900895FF923F
:100920000F931F93CF93DF93CDB7DEB72A970FB600
:10093000F894DEBF0FBECDBF8C019DDE81112DC0AE
:10094000C80199DE813039F042E060E0C801B4DED0
:100950008F5FF12C03C0FF24F39484E0682F660FAF
:10096000660F660FC801AADF6F83788789879A8729
:10097000FE8285E0FE013696DE01119601900D9211
:100980008A95E1F7F98285E0FE013196DE0116963F
:1009900001900D928A95E1F70DC0C8018BDF682F99
:1009A000F801848195810E94EE0E2E833F83488753
:1009B00059876A872E813F81488559856A8570E00D
:1009C00080E090E02A960FB6F894DEBF0FBECDBF50
:1009D000DF91CF911F910F91FF9008952F923F9239
:1009E0004F925F926F927F928F929F92AF92BF923F
:1009F000CF92DF92EF92FF920F931F93CF93DF93EB
:100A0000CDB7DEB72C970FB6F894DEBF0FBECDBFC3
:100A10005C01662E84DF2C873F83488759876A876D
:100A2000CF80D884E984FA84C50165DE4C01C50114
:100A300041DF8B87B401F501848195810E94B10E5D
:100A4000782EF5012789662041F0811102C0822F9E
:100A500001C080E091E0922707C0882319F081E06F
:100A6000822701C080E0922FF501238521114BC020
:100A7000882309F446C06B85848195810E94EE0E1F
:100A80003A834B835C836D83022F8A819B81AC8187
:100A9000BD81002321F080E090E0DC0100E0F50161
:100AA0002088318842885388280E391E4A1E5B1ED2
:100AB00084819581122D2A823B824C825D822B811A
:100AC0003C814D816B850E94380FFC85F11106C079
:100AD0002C143D044E045F047CF10AC0C201B10134
:100AE0000E94BE20A70196010E94C12187FD24C05B
:100AF000462DB401F501848195810E94CC0E762C9F
:100B00001BC09923C9F0772473947624472DB40130
:100B1000F501848195810E94CC0EF5018481958137
:100B20001A821B821C821D8200E010E02B813C8116
:100B30004D816B850E94380FF501778A2C960FB690
:100B4000F894DEBF0FBECDBFDF91CF911F910F9103
:100B5000FF90EF90DF90CF90BF90AF909F908F90DD
:100B60007F906F905F904F903F902F90089561E03D
:100B700035CF60E033CF2F923F924F925F926F92CA
:100B80007F928F929F92AF92BF92CF92DF92EF921D
:100B9000FF920F931F93CF93DF93CDB7DEB72C97C0
:100BA0000FB6F894DEBF0FBECDBF8C016B87B7DEEA
:100BB0003F83488759876A87CF80D884E984FA843D
:100BC000222331F0C701B6010E948B206B017C010A
:100BD000C8011CDE8C87C8018EDD4C01C8016ADEAD
:100BE000682EC80188DD5C01B401F801848195811B
:100BF0000E94B10E782E662DF801848195810E94A5
:100C0000EE0E3A834B835C836D832A803B804C805D
:100C10005D80B501F801848195810E94B10EF801D3
:100C20009385248135819923E9F041E0B501C9011B
:100C30002C960FB6F894DEBF0FBECDBFDF91CF91DB
:100C40001F910F91FF90EF90DF90CF90BF90AF90EA
:100C50009F908F907F906F905F904F903F902F90DC
:100C60000C94CC0E1982FC85FF2339F08B858823E8
:100C700051F1212C312C210128C071102AC0F8011A
:100C80009789992331F1811124C0FB85FF2369F0F5
:100C90008FEF281A380A480A580A2C143D044E04CB
:100CA0005F04BCF01601270112C091E0291A310837
:100CB00041085108121413041404150454F0212C93
:100CC000312C210104C016012701712C02C07724A8
:100CD0007394F8014789B501C9010E94CC0EF8014F
:100CE000778A472DB401848195810E94CC0EF8014A
:100CF00084819581122D2A823B824C825D820981FA
:100D00002B813C814D81662D0E94380F2C960FB6A9
:100D1000F894DEBF0FBECDBFDF91CF911F910F9131
:100D2000FF90EF90DF90CF90BF90AF909F908F900B
:100D30007F906F905F904F903F902F90089561E06B
:100D40001ACF60E018CF9F92AF92BF92CF92DF92FE
:100D5000EF92FF920F931F93CF93DF93CDB7DEB740
:100D60002E970FB6F894DEBF0FBECDBF5C018B018E
:100D7000D6DD922E3F83488759876A87CF80D884F3
:100D8000E984FA84C501CBDD822F3A834B835C83EF
:100D90006D832A813B814C815D81911045C0811119
:100DA000B1C002301105F9F03CF40115110561F0F4
:100DB0000130110581F02FC10430110521F1DCF063
:100DC0000530110541F127C181E0C216D306E406C2
:100DD000F50641F504C181E02C153D054E055F0582
:100DE0000CF4FDC01FC081E0C216D306E406F50670
:100DF0000CF0F5C017C081E0C216D306E406F50674
:100E00000CF4EDC00FC081E02C153D054E055F05CB
:100E10000CF0E5C007C081E0C216D306E406F50673
:100E200009F0DDC080E0DBC0882351F102301105FC
:100E3000E1F05CF401151105A1F00130110509F094
:100E4000EAC011E0C701B601A1C004301105A1F04C
:100E500084F00530110509F0DEC011E0C701B601CC
:100E6000D3C011E0C701B6018BC011E0C701B601C4
:100E7000A0C0C701B601AEC011E0C701B601BFC036
:100E80000230110539F174F401151105D9F0013062
:100E9000110509F0C0C0CA01B9010E94BE20A70116
:100EA000960198C00430110529F1E4F005301105D0
:100EB00009F0B1C0CA01B9010E94BE2011E0A7012A
:100EC0009601A2C0CA01B9010E94BE2011E0A7018B
:100ED000960156C0CA01B9010E94BE2011E0A701C7
:100EE00096018DC0CA01B9010E94BE2011E0A70180
:100EF00096014CC0CA01B9010E94BE2011E0A701B1
:100F0000960157C00230110509F446C0ACF4011532
:100F1000110549F10130110509F07DC0C701B60185
:100F20002B873C874D875E870E94BE2011E02B8572
:100F30003C854D855E852AC00430110509F452C0F8
:100F4000ECF10530110509F066C0C701B6012B8729
:100F50003C874D875E870E94BE2011E02B853C8533
:100F60004D855E8551C0C701B6012B873C874D87F3
:100F70005E870E94BE2011E02B853C854D855E85F5
:100F80000E941F20882309F444C042C00E94C1214E
:100F900018160CF43EC03CC0C701B6012B873C8735
:100FA0004D875E870E94BE2011E02B853C854D85D4
:100FB0005E850E94C12187FF2CC02AC0C701B601EF
:100FC0002B873C874D875E870E94BE202B853C8502
:100FD0004D855E850E941F20881F8827881FF50188
:100FE000878B19C0C701B6012B873C874D875E8769
:100FF0000E94BE2011E02B853C854D855E850E94B8
:101000001F2018162CF005C00E941F20811101C05E
:1010100010E0F501178B2E960FB6F894DEBF0FBEC9
:10102000CDBFDF91CF911F910F91FF90EF90DF9097
:10103000CF90BF90AF909F9008959F92AF92BF9234
:10104000CF92DF92EF92FF920F931F93CF93DF9394
:10105000CDB7DEB763970FB6F894DEBF0FBECDBF36
:101060005C015DDC022F3C874D875E876F87CC84F7
:10107000DD84EE84FF84C50152DC122F3F83488754
:1010800059876A872F81388549855A85C501288BFC
:10109000398B4A8B5B8B0EDC982EF501878928896A
:1010A00039894A895B898823E1F101110CC011114A
:1010B0000AC01982C20ED31EE41EF51ECA82DB824C
:1010C000EC82FD8224C081E08983002329F0112372
:1010D00091F0C701B60115C0112369F0C701B6012F
:1010E000288B398B4A8B5B8B0E94BE2028893989DB
:1010F0004A895B8906C0CA01B9010E94BE20A701C6
:1011000096010E94BB1F6A837B838C839D83098128
:101110001A812B813C814D81692DF5018481958156
:10112000A7D663960FB6F894DEBF0FBECDBFDF9192
:10113000CF911F910F91FF90EF90DF90CF90BF90D4
:10114000AF909F9008959F92AF92BF92CF92DF92FF
:10115000EF92FF920F931F93CF93DF93CDB7DEB73C
:1011600063970FB6F894DEBF0FBECDBF5C01D7DB2F
:10117000022F3C874D875E876F87CC84DD84EE84A9
:10118000FF84C501CCDB122F3F83488759876A87CC
:101190002F81388549855A85C501288B398B4A8B23
:1011A0005B8B88DB982EF5018789288939894A89E4
:1011B0005B898823E1F101110CC011110AC0198269
:1011C000C21AD30AE40AF50ACA82DB82EC82FD82E3
:1011D00024C081E08983002319F0112381F015C018
:1011E000112369F0C701B601288B398B4A8B5B8BC1
:1011F0000E94BE20288939894A895B8908C0CA01B2
:10120000B9010E94BE209B01AC01C701B6010E943A
:10121000BA1F6A837B838C839D8309811A812B810A
:101220003C814D81692DF5018481958121D663969C
:101230000FB6F894DEBF0FBECDBFDF91CF911F91E7
:101240000F91FF90EF90DF90CF90BF90AF909F9065
:1012500008954F925F926F927F929F92AF92BF924A
:10126000CF92DF92EF92FF920F931F93CF93DF9372
:10127000CDB7DEB72F970FB6F894DEBF0FBECDBF48
:101280005C014DDB022F3C874D875E876F87CC84E6
:10129000DD84EE84FF84C50142DB122F3F83488743
:1012A00059876A874F80588469847A84C50102DB34
:1012B000982EF50187898823D1F101110EC01111F3
:1012C0000CC01982A7019601C301B2010E942C2211
:1012D0006A837B838C839D8320C081E08983002384
:1012E00039F0112371F0A3019201C701B6010FC0BB
:1012F000112339F0C701B6010E94BE20A30192015B
:1013000006C0C301B2010E94BE20A70196010E943F
:10131000C5216A837B838C839D8309811A812B81FC
:101320003C814D81692DF50184819581A1D52F9650
:101330000FB6F894DEBF0FBECDBFDF91CF911F91E6
:101340000F91FF90EF90DF90CF90BF90AF909F9064
:101350007F906F905F904F9008954F925F926F9241
:101360007F929F92AF92BF92CF92DF92EF92FF92C5
:101370000F931F93CF93DF93CDB7DEB72F970FB6A1
:10138000F894DEBF0FBECDBF5C01C9DA022F3C87E7
:101390004D875E876F874C845D846E847F84C50132
:1013A000BEDA122F3F83488759876A87CF80D88457
:1013B000E984FA84C5017EDA982EF50187898823AD
:1013C00009F465C001110FC011111CC0C114D10472
:1013D000E104F10409F45BC0C301B2010E94BE2024
:1013E0002B013C0124C01123E9F020E030E0A901E9
:1013F000C701B6010E941F20882309F448C0A70135
:1014000096011BC020E030E0A901C701B6010E948F
:101410001F208823E1F1C301B2010E94BE20A70171
:1014200096010DC0C114D104E104F10481F1C7019A
:10143000B6010E94BE209B01AC01C301B2010E9413
:1014400023206B017C010E94F9209B01AC01C701A4
:10145000B6010E941F2081110AC01982C701B6017E
:101460000E948B206A837B838C839D8306C081E0EE
:101470008983CA82DB82EC82FD8209811A812B81F9
:101480003C814D81692DF50184819581F1D42F96A0
:101490000FB6F894DEBF0FBECDBFDF91CF911F9185
:1014A0000F91FF90EF90DF90CF90BF90AF909F9003
:1014B0007F906F905F904F9008950F931F93CF93FD
:1014C000DF93CDB7DEB72A970FB6F894DEBF0FBE15
:1014D000CDBF8C0124DA2E833F83488759876A87E2
:1014E000C8011DDA29833A834B835C836D83C8016D
:1014F000E1D9682FF801278984819581222331F071
:101500000E811F81288539854A8505C009811A8188
:101510002B813C814D81ACD42A960FB6F894DEBF66
:101520000FBECDBFDF91CF911F910F9108951F93F3
:10153000CF93DF93EC0143E060E0BED8813059F0F7
:1015400030F0823061F0833009F49BC00CC0CE01D2
:10155000F4D880E099C0CE0173D981E095C0CE0166
:101560007BD982E091C042E0682FCE01A5D8482FF8
:1015700050E0FA017097EE30F10508F04EC0EE58D9
:10158000FF4F0C945D22CE01EBD880E17DC0CE01EF
:1015900011D981E179C0CE016ED982E175C0CE0149
:1015A000E6DA83E171C0CE01E4DA84E16DC0CE01F8
:1015B000ECD085E169C041E067E1CE017DD8182F0C
:1015C000CE011E3219F4BBDB8EE25EC0BADB812F86
:1015D0005BC060E070E0CE01B6DB88E155C061E041
:1015E00070E0CE01B0DB89E14FC062E070E0CE0177
:1015F000AADB8AE149C063E070E0CE01A4DB8BE1A5
:1016000043C064E070E0CE019EDB8CE13DC065E04C
:1016100070E0CE0198DB8DE137C042E0682FCE014B
:101620004BD88A37A9F040F4883771F08937C1F474
:10163000CE0189DD89E728C08B3771F08C3781F4C2
:10164000CE013BDF8CE720C0CE01F7DC88E71CC071
:10165000CE01FFDD8AE718C0CE017FDE8BE714C024
:1016600041E0682FCE0128D88F3F21F481E08E8B96
:101670008FEF0AC091E0998F2E81288F9E8B1F8A51
:1016800003C083E001C086E1DF91CF911F910895EF
:101690001F93CF93DF93EC016B878A819B8141D4A9
:1016A0008397FCF060E270E08A819B814AD488874E
:1016B00061E270E08A819B8144D4898782E290E074
:1016C0009F838E831C8A1D8A1E8A81E08F8B11E086
:1016D0008E89811106C0CE012ADF8330C9F71F8BA6
:1016E000F7CFDF91CF911F910895CF93DF93EC0156
:1016F0000E94A4166C877D878E879F87188A198A17
:101700001A8A1B8A61E0CE01DF91CF91C1CFCF92BF
:10171000DF92EF92FF920F931F93CF93DF93EC0131
:101720000E94A4160C851D852E853F8560177107C4
:101730008207930758F06B017C01C01AD10AE20AB4
:10174000F30AC88AD98AEA8AFB8A04C0688B798B33
:101750008A8B9B8B6C877D878E879F878A85882362
:1017600059F060E0CE01DF91CF911F910F91FF9072
:10177000EF90DF90CF908CCFDF91CF911F910F91A1
:10178000FF90EF90DF90CF900895FF920F931F93FB
:10179000CF93DF93EC01FF8800E010E08E8988236F
:1017A00039F01F8BDF91CF911F910F91FF9008951A
:1017B0000111F7CFCE01BBDE833029F4111101C036
:1017C0001F89FF8AEBCF01E0863141F300E0E6CFCD
:1017D000FF920F931F93CF93DF93EC010881198140
:1017E000C8010E941A25F82EC80101960E941A25E8
:1017F000FF2011F01A8603C08130E1F78A87DF915C
:10180000CF911F910F91FF9008950F931F93CF9346
:10181000DF93EC01888199818C010F5F1F4F60E09D
:101820000E9422258A85882311F061E001C060E0D2
:10183000C801DF91CF911F910F910C942225CF9376
:10184000DF93EC018A85811102C0CE014EDF81E079
:101850008A87CE01DADF81E0DF91CF910895FC0124
:101860001286D3DF81E00895FC0171836083538386
:10187000428308950F931F93CF93DF938C01C2E0AF
:10188000D0E0BE01F801808191810E94890281111E
:1018900008C0BE01F801808191810E94D202882394
:1018A00011F061E001C060E08C2F0E944F1821967A
:1018B000C633D10531F7DF91CF911F910F91089574
:1018C000EF92FF920F931F93CF93DF938C01EB0165
:1018D000FC01808191810E94C0027C016BE571E076
:1018E0008CEA94E10E943F1B4AE050E0BE018CEA82
:1018F00094E10E943F1C68E571E08CEA94E10E944B
:101900003F1B4AE050E0B7018CEA94E10E943F1C83
:1019100065E571E08CEA94E10E943F1BBE01F8018D
:10192000808191810E948902882319F06EE471E020
:101930000AC0BE01F801808191810E94680288235B
:1019400031F068E471E08CEA94E10E943F1B8CEA7C
:1019500094E1DF91CF911F910F91FF90EF900C9444
:10196000781BFF920F931F93CF93DF938C01C2E0FC
:10197000D0E0CD30D10519F0BE01C801A1DF21961C
:10198000C633D105B1F7C0E0D0E066E871E08CEA7B
:1019900094E10E943F1B4AE050E0BE018CEA94E1D2
:1019A0000E943F1C63E871E08CEA94E10E943F1BB7
:1019B0004AE050E0BE018CEA94E10E943F1C65E7DA
:1019C00071E08CEA94E10E947B1B2196C031D10525
:1019D000E1F6C2E0D0E0BE01F801808191810E9471
:1019E000D202882339F1BE01F801808191810E94E1
:1019F000E702F82E61E771E08CEA94E10E943F1B58
:101A00004AE050E0BE018CEA94E10E943F1C6EE681
:101A100071E08CEA94E10E943F1B4AE050E06F2D98
:101A20008CEA94E10E94781C6FE571E08CEA94E105
:101A30000E947B1B2196C633D10569F6DF91CF91B9
:101A40001F910F91FF900895DF92EF92FF920F93F5
:101A50001F93CF93DF93CDB7DEB727970FB6F894D8
:101A6000DEBF0FBECDBF7C0102E010E00D301105DE
:101A7000F1F0B801F701808191810E94680288230A
:101A8000B1F0B801F701808191810E94C002BC01D0
:101A9000802F6E837F830E94BD18F70122813381DE
:101AA0006E817F81019721F541E0C90175D10F5FFA
:101AB0001F4F06331105D1F6D12C8D2D0E94121720
:101AC000AC01662757FD6095762F142F4A835B8300
:101AD0006C837D8300E02B813C814D816D2DF7016E
:101AE00082819381C5D1D394F0E1DF12E6CF02C0A9
:101AF00040E0DBCF27960FB6F894DEBF0FBECDBF18
:101B0000DF91CF911F910F91FF90EF90DF9008959B
:101B1000EF92FF920F931F93CF93DF9300D01F920A
:101B20001F92CDB7DEB77C0102E010E00D30110549
:101B300009F447C0B801F701808191810E948902B0
:101B4000F70120813181B801882389F0C9010E9401
:101B5000C002BC01F7018281938103D1882311F077
:101B600061E001C060E0802F0E9488182AC0C9018E
:101B70000E94D202882329F1B801F7018081918166
:101B80000E94E702682FF7018281938127D13A836F
:101B90004B835C836D836A817B818C819D81211164
:101BA0000E948B206F3F71058105910509F024F497
:101BB00097FF03C060E001C06FEF70E0802F0E94CC
:101BC00037170F5F1F4F0633110509F0AFCF0F9086
:101BD0000F900F900F900F90DF91CF911F910F9169
:101BE000FF90EF9008950F931F93CF93DF938C0195
:101BF000C2E0D0E0CD30D105D1F0BE01F801808146
:101C000091810E948902882329F060E08C2F0E9434
:101C100088180DC0BE01F801808191810E94D20216
:101C2000882329F060E070E08C2F0E9437172196FE
:101C3000C633D105F9F6DF91CF911F910F91089529
:101C40008CEF92E078C783E694E10E94320289EB40
:101C500095E01FD2882319F08FE893E0B9DD8FE873
:101C600093E043DD89EA93E005DE8CEF92E037D71D
:101C700082E093E0AFD22FEF3FEFA90160E27EE078
:101C80008DE994E1FEC789EA93E0DEDE8FE893E018
:101C90003EDD8FE893E00E943503882331F08FE822
:101CA00093E00E943803882331F089EA93E09BDFB8
:101CB00082E093E0B5C689EA93E02ADFF9CFEF929C
:101CC000FF920F931F9360E070E083E694E10E941F
:101CD0002E026AE370E089EB95E015D18DEA93E07E
:101CE0002AD04DEA53E063E674E189EA93E0BCDD73
:101CF0002DEA33E049EB55E068E370E08FE893E0CC
:101D00000E9422038FE8E82E83E0F82E09EB15E00D
:101D100023E634E14DEA53E069EA73E082E093E0C0
:101D20003FD2A7016DE070E08CEF92E01F910F9120
:101D3000FF90EF90CCC620E8DC011D922A95E9F7D0
:101D4000FC01E058FF4F2CE0DF011D922A95E9F7D6
:101D50003C9620E831E0DF01C9011D920197E9F7C7
:101D60000895611524E07207A8F4462F477021E01A
:101D700030E0042E01C0220F0A94EAF7FB0133E0A1
:101D8000F595E7953A95E1F7E80FF91F90819223D1
:101D900081E009F480E00895611524E07207E0F421
:101DA000FB0153E0F595E7955A95E1F7677021E05F
:101DB00030E0062E01C0220F0A94EAF7E80FF91F5F
:101DC000442321F08081822B808304C02095808170
:101DD0002823208381E0089580E00895CF93DF9346
:101DE00000D01F921F92CDB7DEB7262F603630F09D
:101DF00019821A821B821C821D822AC0A62FB0E083
:101E0000FD01B396EE0FFF1FEE0FFF1FE80FF91F46
:101E10004081518162817381E22FE77021E030E0DF
:101E200001C0220FEA95EAF7FD01A3E0F595E795D9
:101E3000AA95E1F7E80FF91FE058FF4F8081822350
:101E400091E009F490E099834A835B836C837D83FE
:101E500029813A814B815C816D8170E080E090E066
:101E60000F900F900F900F900F90DF91CF910895EA
:101E70000F931F93CF93DF9300D01F921F92CDB784
:101E8000DEB709831A832B833C834D83603680F54C
:101E9000E62FF0E0AF0113E0559547951A95E1F76D
:101EA000677021E030E0062E01C0220F0A94EAF7A5
:101EB000480F591FDA01A058BF4F002321F03C9171
:101EC000322B3C9304C020953C9123232C93B39652
:101ED000EE0FFF1FEE0FFF1FE80FF91F8A819B8196
:101EE000AC81BD8180839183A283B38381E001C0F3
:101EF00080E00F900F900F900F900F90DF91CF9197
:101F00001F910F910895FC017183608313821282E7
:101F10000895663A2EE0720718F4FC017383628319
:101F20000895FC0182819381089557FD09C0FC0149
:101F300022813381421753071CF4E40FF51F648399
:101F4000089577FD0AC0FC0122813381621773076F
:101F500024F4E60FF71F8481089580E00895CF935D
:101F6000C62F603130F463E272E08CEA94E10E94A3
:101F7000701B40E150E06C2F8CEA94E1CF910C94FF
:101F8000781C1F93CF93DF93EC0110E160E0CE014A
:101F9000E6DF1150D9F7DF91CF911F910895EF92AD
:101FA000FF920F931F93CF93DF93EC018B017B0183
:101FB00083E0E80EF11CE016F10654F0FE01EE0D90
:101FC000FF1D6481CE01CBDFE1E0EE1AF108F3CF13
:101FD0007E01E00EF11EF7016185CE01C0DFF70141
:101FE0006085CE01BCDFF7016385CE01B8DFF70164
:101FF0006285CE01B4DF7801F8E0EF0EF11C015FDD
:102000001F4F0E151F0554F0FE01EE0DFF1D6481DC
:10201000CE01A5DF8FEFE81AF80AF3CFDF91CF9159
:102020001F910F91FF90EF900895CF93DF93EC01F4
:102030006AE971E08CEA94E10E943F1B8A819B81EE
:1020400040971CF4CE019DDF04C060E070E0CE013B
:10205000A6DF8CEA94E1DF91CF910C94781BCF93AB
:10206000DF93EC0168E871E08CEA94E10E943F1B89
:102070008A819B8180971CF4CE0183DF04C060E1DC
:1020800070E0CE018CDF8CEA94E1DF91CF910C946B
:10209000781BCF92DF92EF92FF920F931F93CF9313
:1020A000DF936C01FC01E080F180C7010E941A25DA
:1020B0008A3811F080E02AC0C70101960E941A25D3
:1020C000C82FC70102960E941A25D0E0DC2FCC272A
:1020D000C80FD11DC73AFEE0DF0760F7F601D383D2
:1020E000C28300E010E0F3E0EF0EF11C0C171D07B7
:1020F00061F0C701800F911F0E941A25F601E00FC1
:10210000F11F84830F5F1F4FF1CF81E0DF91CF91EB
:102110001F910F91FF90EF90DF90CF900895EF9275
:10212000FF920F931F93CF93DF93EC01E880F98028
:102130006AE8C7010E9422251A816B81C7010196B6
:102140000E942225612FC70102960E94222500E0ED
:1021500010E083E0E80EF11C8A819B8108171907C3
:1021600064F4FE01E00FF11F6481C701800F911F2D
:102170000E9422250F5F1F4FEFCFDF91CF911F915C
:102180000F91FF90EF900895CF93DF93EC01FB0147
:10219000248135810E94F01ECE01DF91CF910895F8
:1021A000EF92FF920F931F93FC017183608353831F
:1021B00042833583248317830683F186E086DC011E
:1021C000A557BF4F1D921C9212861F910F91FF9031
:1021D000EF90089526E040E052EC61E070E08CEA78
:1021E00094E10C94F41967EC71E08CEA94E10C949E
:1021F0007B1BCF93C62F6EEB71E08CEA94E10E94BB
:102200003F1BCC2319F069EB71E002C063EB71E076
:102210008CEA94E1CF910C947B1B9F92AF92BF927A
:10222000CF92DF92EF92FF920F931F93CF93DF93A2
:10223000CDB7DEB727970FB6F894DEBF0FBECDBF80
:102240008C01942E442319F046E050E002C049E08E
:1022500050E0CE01019698DFCE0101960E94461F04
:10226000CE0101960E94A21F6B017C015B01F80167
:10227000868197814EDE61E0C801BBDF6CEA71E0C8
:102280008CEA94E10E943F1B4AE050E0B6018CEAE0
:1022900094E10E94461CC801A6DF911004C0F80119
:1022A00080859185DCDAE12CF12CEA14FB04ACF496
:1022B00041E050E0BE01695F7F4F8CEA94E10E94EB
:1022C000A61D0197A9F7A7016F81F8018681978163
:1022D0002CDEFFEFEF1AFF0AE8CFF8018681978125
:1022E0001EDF61E0C80185DF65EA71E08CEA94E1F8
:1022F0000E943F1B4AE050E0B7018CEA94E10E9443
:10230000461C911004C0F8018085918598DACE01B1
:1023100001960E94C81D27960FB6F894DEBF0FBE27
:10232000CDBFDF91CF911F910F91FF90EF90DF9084
:10233000CF90BF90AF909F900895CF93DF93EC0123
:102340008C819D810E94AA028C819D810E944D02F8
:1023500088819981DF91CF918DCACF93DF93EC0172
:10236000888599857CDACE01E8DF60E070E08E81B7
:102370009F81CFDD8E819F81DF91CF91D0CEAF92B3
:10238000BF92CF92DF92EF92FF920F931F93CF9362
:10239000DF93CDB7DEB7E7970FB6F894DEBF0FBE79
:1023A000CDBF5C017B0165E272E0C7010E945A1E4D
:1023B000882309F45AC06BE772E08CEA94E10E942A
:1023C0007B1B69E672E08CEA94E10E943F1B66ED9C
:1023D00072E08CEA94E10E949B1B6FE572E08CEA4C
:1023E00094E10E943F1B4AE050E060E074E08CEA18
:1023F00094E10E94461C65E572E08CEA94E10E943B
:102400003F1B4AE050E060E68CEA94E10E947E1CAB
:102410006CE472E08CEA94E10E943F1B4AE050E0D9
:1024200060E08CEA94E10E947E1C6AE372E08CEA30
:1024300094E10E943F1B4AE050E066EA7EE08CEAAD
:1024400094E10E94461C64E272E08CEA94E10E94EE
:102450003F1BF5018681978164DD4AE050E0BC01B5
:102460008CEA94E10E94461C63C261E372E0C701FA
:102470000E945A1E882389F067E172E08CEA94E199
:102480000E943F1B6EEC72E08CEA94E10E949B1B61
:10249000F5018081918165DA4BC26FE372E0C7017B
:1024A0000E945A1E882319F0C50157DF09C06DE448
:1024B00072E0C7010E945A1E882331F0C5013DDF3A
:1024C00061E0C50196DE34C26AE572E0CE01019694
:1024D0000E942F1EBE016F5F7F4FC7010E949B1E8F
:1024E000182FCE0101960E94C81D112381F04EE0E5
:1024F00050E0B701CE01019647DECE0101960E9461
:10250000A21FF501848195810E949B022CC069E67F
:1025100072E0CE0101960E942F1EBE016F5F7F4FB9
:10252000C7010E949B1E182FCE0101960E94C81D54
:102530001123A1F14BE050E0B701CE01019624DE5A
:10254000CE0101960E94A21F6B017C01F5018481DE
:1025500095810E94C302882399F0B601F501848118
:1025600095810E941003F501848195810E944D029E
:10257000F501808191817ED961E0C5013ADE4DC1CE
:102580006BEF71E08CEA94E10E943F1B4AE050E05F
:10259000B6018CEA94E10E94461C3FC165E772E0F7
:1025A000C7010E945A1E8823B9F062EF71E08CEADD
:1025B00094E10E943F1BF501808591850E943503BF
:1025C000882319F06DEE71E002C067EE71E08CEACD
:1025D00094E10E947B1BACC16CE772E0C7010E94D2
:1025E0005A1E882329F0F5018085918528D90BC0D2
:1025F00062E872E0C7010E945A1E882331F0F5019B
:10260000808591852CD9682F5CCF67E872E0CE0178
:1026100001960E942F1EBE016F5F7F4FC7010E946F
:102620009B1E182FCE0101960E94C81D112311F088
:1026300040E014C061E972E0CE0101960E942F1EB5
:10264000BE016F5F7F4FC7010E949B1E182FCE01F6
:1026500001960E94C81D112329F041E0B701C50170
:10266000DCDD66C168E972E0C7010E945A1E88235A
:1026700029F0F50186819781D8DC5AC163EA72E0BE
:10268000C7010E945A1E882329F0F501868197818F
:10269000E6DC4EC16EEA72E0CE0101960E942F1E6A
:1026A000BE016F5F7F4FC7010E949B1E182FCE0196
:1026B00001960E94C81D1123D1F046E050E0B701F9
:1026C000CE01019661DDCE0101960E94A21FF501A7
:1026D0008281938146DB882319F065EE71E002C0A8
:1026E00063EE71E08CEA94E10E947B1B96C065EB7F
:1026F00072E0CE0101960E942F1EBE016F5F7F4FD8
:10270000C7010E949B1E182FCE0101960E94C81D72
:10271000112309F449C047E050E0B701CE018D967E
:1027200033DDCE018D960E94461F60E2CE018D966C
:102730000E94ED1E7C01181619060CF0EBC09C01DE
:1027400040E050E0BE01635D7F4FCE0187960E945E
:10275000F01EA7014F5F5F4FBE01635D7F4FCE014B
:10276000819612DDCE0187960E94A21F6B017C012B
:102770006DEB72E0CE0101960E942F1EBE016F5FCD
:102780007F4FCE0181960E949B1E182FCE0101968D
:102790000E94C81D41E0111101C040E0B601F501E1
:1027A00082819381F9DAAEC06FEB72E0CE010196BF
:1027B0000E942F1EBE016F5F7F4FC7010E949B1EAC
:1027C000D82ECE0101960E94C81DDD2049F146E0B9
:1027D00050E0B701CE010196D7DCCE0101960E94F0
:1027E000A21FF50182819381F9DA29A33AA34BA3B1
:1027F0005CA36DA34AA15BA16CA17DA1222339F04A
:1028000026E030E08CEA94E10E946A1D06C02AE0CE
:1028100030E08CEA94E10E945C1CCE0101967CC001
:1028200066EC72E0CE0101960E942F1EBE016F5F22
:102830007F4FC7010E949B1ED82ECE0101960E9499
:10284000C81DDD2009F46BC047E050E0B701CE01A0
:102850008D969ADCCE018D960E94461F60E2CE01D5
:102860008D960E94ED1E7C01181619060CF052C0C0
:102870009C0140E050E0BE01635D7F4FCE01879632
:102880000E94F01EA7014F5F5F4FBE01635D7F4F47
:10289000CE01819679DC8DA19EA14E9798F520E01E
:1028A00030E040E250E0BE016F5F7F4FCE01819685
:1028B0000E94A91E6EE2CE0181960E94ED1E019635
:1028C00051F41BAACE0101960E948E246CAB7DAB05
:1028D0008EAB9FAB0AC081E08BABCE0101960E940C
:1028E0008B246CAB7DAB8EAB9FABCE0187960E94E9
:1028F000A21F0BA91CA92DA93EA94FA9F5018281F0
:102900009381B6DACE0181960E94C81DCE018796CA
:102910000E94C81DCE018D960E94C81D09C06BEC97
:1029200071E08CEA94E1ABD6B7018CEA94E1F3D67E
:10293000C50159DCE7960FB6F894DEBF0FBECDBFD8
:10294000DF91CF911F910F91FF90EF90DF90CF908B
:10295000BF90AF900895EF92FF920F931F93CF9384
:10296000DF9300D000D0CDB7DEB78C0167FD4BC040
:1029700085579F4F7C01FC0180819181683031F443
:10298000181619060CF03FC0019737C06A3079F568
:102990001816190674F4F801E80FF91F22852D3076
:1029A00041F40197F70191838083F801E80FF91F43
:1029B0001286B801665F7F4FCE0101960E942F1EDE
:1029C000F70111821082F8011286CE0101960E9451
:1029D000461FCE0101960E94331FBE016F5F7F4FDD
:1029E000C801CDDCCE0101960E94C81D0CC0F801C3
:1029F000E80FF91F62870196F70191838083F80140
:102A0000E80FF91F128626960FB6F894DEBF0FBEA8
:102A1000CDBFDF91CF911F910F91FF90EF9008955F
:102A2000AF92BF92CF92DF92EF92FF920F931F93DC
:102A3000CF93DF93CDB7DEB7C054D1090FB6F8946A
:102A4000DEBF0FBECDBF7C018CEA94E1BED38823EC
:102A500061F1AC015527CE0101966C01BC018CEAF5
:102A600094E10E94A61D8C011127F701E557FF4F45
:102A700080819181800F911F8138910514F4560156
:102A800008C011821082F70112868CEA94E130D6D8
:102A90000CC0C5018C199D098017910734F4F5010C
:102AA00061915F01C70157DFF4CFC05CDF4F0FB604
:102AB000F894DEBF0FBECDBFDF91CF911F910F9174
:102AC000FF90EF90DF90CF90BF90AF900895FC0102
:102AD000718360835383428314821582089561E079
:102AE000FC018081DCC2CF93DF93EC018D818F5F8D
:102AF0008A3010F48D8301C01D828A819B810E94DF
:102B0000380381110EC08A819B810E9435039D810B
:102B100061E0882319F0993051F408C0992339F005
:102B200005C088812AD361E0019709F460E08881BB
:102B3000DF91CF91EDC2FC0124812F5F213310F48E
:102B400024830895FC011482CECF1F920F920FB6FA
:102B50000F9211240BB60F922F933F934F935F93D5
:102B60006F937F938F939F93AF93BF93EF93FF9355
:102B7000E091A114F091A2141995FF91EF91BF91EA
:102B8000AF919F918F917F916F915F914F913F9105
:102B90002F910F900BBE0F900FBE0F901F901895A6
:102BA000FC01A3E0440F551F661F771FAA95D1F7BC
:102BB0004115510581E06807710514F481E00EC0EC
:102BC00033E075956795579547953A95D1F7411537
:102BD000510581E0680771051CF482E0828331C0F1
:102BE00023E075956795579547952A95D1F7411537
:102BF000510581E06807710514F483E0EFCF92E09E
:102C000075956795579547959A95D1F74115510553
:102C100081E06807710514F484E0E0CF82E07595E7
:102C20006795579547958A95D1F785E08283411539
:102C3000510581E06807710524F04FEF5FEF60E018
:102C400070E08FB78383F89451834083509387005B
:102C50004093860083818FBF80918100887F80931D
:102C60008100809181009281892B80938100089559
:102C7000E1E8F0E02081DC0112968C91282B208382
:102C800008950F931F93CF93DF93EC018B01BA014B
:102C9000A90114161506160617060CF481DF1D830C
:102CA0000C8381E080936F00CE01DF91CF911F9163
:102CB0000F91DECF1F920F920FB60F9211242F9318
:102CC0003F938F939F93AF93BF938091A414909160
:102CD000A514A091A614B091A7143091A31423E0D9
:102CE000230F2D3720F40196A11DB11D05C026E844
:102CF000230F0296A11DB11D2093A3148093A41449
:102D00009093A514A093A614B093A7148091A8142F
:102D10009091A914A091AA14B091AB140196A11D91
:102D2000B11D8093A8149093A914A093AA14B093F2
:102D3000AB14BF91AF919F918F913F912F910F90C5
:102D40000FBE0F901F9018952FB7F8946091A414A0
:102D50007091A5148091A6149091A7142FBF089587
:102D6000789484B5826084BD84B5816084BD85B566
:102D7000826085BD85B5816085BDEEE6F0E080812D
:102D800081608083E1E8F0E010828081826080834E
:102D9000808181608083E0E8F0E0808181608083D1
:102DA000E1EBF0E0808184608083E0EBF0E0808103
:102DB00081608083E1E9F0E08081826080838081AE
:102DC00081608083E0E9F0E0808181608083E1EAD6
:102DD000F0E0808182608083808181608083E0EA8E
:102DE000F0E0808181608083E1E2F1E080818260B7
:102DF0008083808181608083E0E2F1E08081816076
:102E00008083EAE7F0E08081846080838081826053
:102E1000808380818160808380818068808310923C
:102E2000C1000895863308F0865320917B00982FC7
:102E30009870277F922B90937B00877020910602D9
:102E400090E4299F90011124822B80937C00809133
:102E50007A00806480937A0080917A0086FDFCCFAE
:102E6000809178002091790090E0922B08951F9333
:102E7000CF93DF93182FEB0161E011D1209711F46C
:102E800060E004C0CF3FD10531F461E0812FDF91D4
:102E9000CF911F913DC1E12FF0E0E856FD4F4491E5
:102EA00050E0FA013197E231F10508F09BC0E0589B
:102EB000FF4F0C945D2284B5806884BDC7BD97C068
:102EC00084B5806284BDC8BD92C080918000806856
:102ED00080938000D0938900C093880088C080913F
:102EE0008000806280938000D0938B00C0938A0022
:102EF0007EC080918000886080938000D0938D0098
:102F0000C0938C0074C08091B00080688093B00042
:102F1000C093B3006CC08091B00080628093B00019
:102F2000C093B40064C0809190008068809390004A
:102F3000D0939900C09398005AC08091900080620D
:102F400080939000D0939B00C0939A0050C08091D2
:102F50009000886080939000D0939D00C0939C0067
:102F600046C08091A00080688093A0008091A0005E
:102F70008F7B8093A000D093A900C093A80037C096
:102F80008091A00080628093A000D093AB00C0939A
:102F9000AA002DC08091A00088608093A000D093EB
:102FA000AD00C093AC0023C0809120018068809365
:102FB0002001D0932901C093280119C080912001DC
:102FC000806280932001D0932B01C0932A010FC00F
:102FD00080912001886080932001D0932D01C093BF
:102FE0002C0105C0C038D1050CF04FCF49CFDF917F
:102FF000CF911F91089590E0FC013197E231F105E6
:1030000008F04CC0EE56FF4F0C945D22809180007A
:103010008F7703C0809180008F7D8093800008951A
:1030200080918000877FF9CF84B58F7702C084B507
:103030008F7D84BD08958091B0008F7703C080910B
:10304000B0008F7D8093B0000895809190008F77BD
:1030500007C0809190008F7D03C080919000877F92
:103060008093900008958091A0008F7707C0809191
:10307000A0008F7D03C08091A000877F8093A00077
:103080000895809120018F7707C0809120018F7D66
:1030900003C080912001877F809320010895CF9302
:1030A000DF9390E0FC01E252FD4F2491FC01EC5DC6
:1030B000FC4F8491882349F190E0880F991FFC010F
:1030C000E256FC4FA591B4918C579C4FFC01C591E1
:1030D000D4919FB7611108C0F8948C9120958223F8
:1030E0008C93888182230AC0623051F4F8948C91C9
:1030F000322F309583238C938881822B888304C060
:10310000F8948C91822B8C939FBFDF91CF9108957F
:103110000F931F93CF93DF931F92CDB7DEB7282F66
:1031200030E0F901E856FD4F8491F901E252FD4F7C
:103130001491F901EC5DFC4F04910023C1F0882348
:1031400019F0698358DF6981E02FF0E0EE0FFF1F6F
:10315000EC57FC4FA591B4919FB7F8948C916111F5
:1031600003C01095812301C0812B8C939FBF0F90CA
:10317000DF91CF911F910F910895CF93DF93282F67
:1031800030E0F901E856FD4F8491F901E252FD4F1C
:10319000D491F901EC5DFC4FC491CC2389F08111ED
:1031A0002ADFEC2FF0E0EE0FFF1FE659FC4FA59150
:1031B000B4912C912D2381E090E021F480E002C0B5
:1031C00080E090E0DF91CF910895FC01818D228D08
:1031D00090E0805C9F4F821B91098F73992708951F
:1031E000FC01918D828D981731F0828DE80FF11DD1
:1031F000858D90E008958FEF9FEF0895FC01918DEC
:10320000828D981761F0828DDF01A80FB11D5D9648
:103210008C91928D9F5F9F73928F90E008958FEFB6
:103220009FEF089585EB9AE1892B39F080E090E0DB
:10323000892B19F09AD1811125C080E090E0892B6B
:1032400041F080E090E0892B21F00E940000811184
:103250001CC080E090E0892B41F080E090E0892B59
:1032600021F00E940000811113C080E090E0892BC2
:10327000A1F080E090E0892B81F00E940000811194
:103280000AC008950E940000D8CF0E940000E1CF3C
:103290000E940000EACF0C9400000895FC01848D88
:1032A000DF01A80FB11DA35ABF4F2C91848D90E070
:1032B00001968F739927848FA689B7892C93A0894B
:1032C000B1898C9180648C93938D848D981306C002
:1032D0000288F389E02D80818F7D80830895CF93CC
:1032E000DF93EC01888D8823C1F0EA89FB89808116
:1032F00085FD05C0A889B9898C9186FD0EC00FB6E1
:1033000007FCF5CF808185FFF2CFA889B9898C9120
:1033100085FFEDCFCE01C2DFE8CFDF91CF910895D9
:10332000CF92DF92FF920F931F93CF93DF931F9261
:10333000CDB7DEB76C0181E0D60158968C935897D3
:103340005B969C915B975C968C915C97981307C0F9
:103350005096ED91FC915197808185FD2DC0F6012D
:10336000038D10E00F5F1F4F0F731127F02EF60132
:10337000848DF81210C00FB607FCF9CFD601509615
:10338000ED91FC915197808185FFF1CFC601698352
:1033900085DF6981ECCF838DE80FF11DE35AFF4F84
:1033A0006083D6015B960C935B975296ED91FC91EE
:1033B0005397808180620CC0D6015696ED91FC91A6
:1033C000579760835096ED91FC915197808180646E
:1033D000808381E090E00F90DF91CF911F910F915A
:1033E000FF90DF90CF900895BF92CF92DF92EF923F
:1033F000FF92CF93DF93EC016A017B01B22EE88943
:10340000F98982E08083411581EE580761057105D5
:10341000A1F060E079E08DE390E0A70196010E94C1
:103420003B2221503109410951095695479537955D
:103430002795211580E1380798F0E889F9891082ED
:1034400060E874E88EE190E0A70196010E943B22BB
:1034500021503109410951095695479537952795CE
:10346000EC85FD853083EE85FF852083188EEC8901
:10347000FD89B082EA89FB89808180618083EA8945
:10348000FB89808188608083EA89FB8980818068EC
:103490008083EA89FB8980818F7D8083DF91CF9152
:1034A000FF90EF90DF90CF90BF9008951F920F9202
:1034B0000FB60F9211240BB60F922F938F939F93F9
:1034C000EF93FF93E091BC14F091BD148081E091E3
:1034D000C214F091C31482FD12C090818091C51472
:1034E0008F5F8F732091C614821751F0E091C5143D
:1034F000F0E0E455FB4E958F8093C51401C08081A8
:10350000FF91EF919F918F912F910F900BBE0F9094
:103510000FBE0F901F9018951F920F920FB60F922B
:1035200011240BB60F922F933F934F935F936F939A
:103530007F938F939F93AF93BF93EF93FF938CEA07
:1035400094E1ACDEFF91EF91BF91AF919F918F918C
:103550007F916F915F914F913F912F910F900BBE93
:103560000F900FBE0F901F9018958CEA94E12DDEFE
:1035700021E0892B09F420E0822F08951092AF14E6
:103580001092AE1488EE93E0A0E0B0E08093B01407
:103590009093B114A093B214B093B3148EED92E053
:1035A0009093AD148093AC1485EC90E09093B91493
:1035B0008093B81484EC90E09093BB148093BA1479
:1035C00080EC90E09093BD148093BC1481EC90E06B
:1035D0009093BF148093BE1482EC90E09093C1143A
:1035E0008093C01486EC90E09093C3148093C2142F
:1035F0001092C5141092C6141092C7141092C814D9
:103600000895CF92DF92EF92FF920F931F93CF9383
:10361000DF937C016A01EB0100E010E00C151D0551
:1036200071F06991D701ED91FC910190F081E02D4D
:10363000C7011995892B19F00F5F1F4FEFCFC801F4
:10364000DF91CF911F910F91FF90EF90DF90CF907E
:1036500008956115710581F0DB010D900020E9F7F7
:10366000AD0141505109461B570BDC01ED91FC9116
:103670000280F381E02D199480E090E00895EF92AC
:10368000FF920F931F93CF93DF938C017B01C0E0D8
:10369000D0E0F701EC0FFD1F6491662359F0F801AB
:1036A000A081B181ED91FC91C8011995892B11F090
:1036B0002196EFCFCE01DF91CF911F910F91FF9017
:1036C000EF900895DC01ED91FC91DB0114964D9192
:1036D0005C9115976D917C910280F381E02D199496
:1036E000B8CFDC01ED91FC910190F081E02D1994AF
:1036F0006AEE72E0AECF0F931F93CF93DF93EC018E
:10370000BEDF8C01CE01F4DF800F911FDF91CF91DE
:103710001F910F9108950F931F93CF93DF93EC01A7
:10372000D1DF8C01CE01E4DF800F911FDF91CF91BB
:103730001F910F9108950F931F93CF93DF93EC0187
:1037400088DF8C01CE01D4DF800F911FDF91CF91F4
:103750001F910F9108958F929F92AF92BF92DF9227
:10376000EF92FF920F931F93CF93DF93CDB7DEB706
:10377000A1970FB6F894DEBF0FBECDBF7C01F42F2A
:10378000D52ECB0119A2223008F42AE08E010F5D5C
:103790001F4F822E912CA12CB12C6F2F7D2DA501B6
:1037A000940169D6F22FD32ECA01015011096A3053
:1037B00014F4E0E301C0E7E3E60FD801EC93232B18
:1037C000242B252B51F7B801C70143DFA1960FB673
:1037D000F894DEBF0FBECDBFDF91CF911F910F9147
:1037E000FF90EF90DF90BF90AF909F908F900895E3
:1037F000CF92DF92EF92FF920F931F93CF93DF93BD
:10380000EC016A017B012115310579F4E881F98128
:103810000190F081E02D642FDF91CF911F910F91E6
:10382000FF90EF90DF90CF9019942A303105D9F4B2
:1038300077FF18C06DE255DF8C0144275527BA0188
:103840004C195D096E097F092AE0CE0184DF800FE3
:10385000911FDF91CF911F910F91FF90EF90DF901B
:10386000CF9008952AE0B701A601CE01DF91CF9154
:103870001F910F91FF90EF90DF90CF906CCF9A0146
:10388000AB01662757FD6095762FB2CF0F931F933C
:10389000CF93DF93EC019A01AB01662757FD60954A
:1038A000762FA6DF8C01CE0123DF800F911FDF91E1
:1038B000CF911F910F9108950F931F93CF93DF9393
:1038C000EC0196DF8C01CE0113DF800F911FDF9199
:1038D000CF911F910F9108952115310541F4DC011D
:1038E000ED91FC910190F081E02D642F199433CF7C
:1038F0009A01462F50E060E070E0EECF0F931F93E7
:10390000CF93DF93EC019A01462F50E060E070E026
:10391000E3DF8C01CE01ECDE800F911FDF91CF91B0
:103920001F910F9108954F925F926F927F928F92A5
:103930009F92AF92BF92CF92DF92EF92FF920F933E
:103940001F93CF93DF93EC016A017B01B22E9A01A2
:10395000AB01C701B6017CD5882319F06DEE72E08A
:1039600024C026013701E89477F82FEF3FEF4FE7A7
:103970005FE7C301B2016CD581110CC02FEF3FEF9F
:103980004FE75FE7C301B2015AD318161CF461EF89
:1039900072E00BC02FEF3FEF4FE75FE4C701B601C6
:1039A000F0D41816A4F465EF72E0CE01DF91CF9148
:1039B0001F910F91FF90EF90DF90CF90BF90AF904D
:1039C0009F908F907F906F905F904F9042CE2FEF9F
:1039D0003FEF4FE75FECC701B60131D387FDE3CF7F
:1039E00020E030E0A901C701B60129D387FF09C053
:1039F0006DE2CE0176DE8C01F7FAF094F7F8F094E0
:103A000002C000E010E0A12C60E070E080E09FE3E5
:103A1000AB1439F020E030E040E251E414D3A39439
:103A2000F7CF9B01AC01C701B601A5D26B017C01A8
:103A300077D32B013C01A0D39B01AC01C701B60198
:103A400099D26B017C012AE0B301A201CE0183DE91
:103A5000080F191FBB2031F069EF72E0CE01F9DDCC
:103A6000080F191F7B2C772019F120E030E040E28D
:103A700051E4C701B60189D46B017C014CD34B01E1
:103A8000AA2497FCA094BA2C2AE030E0B501A40146
:103A9000CE01AEDE080F191FC501B4016FD39B0123
:103AA000AC01C701B60166D26B017C017A94DBCF11
:103AB000C801DF91CF911F910F91FF90EF90DF90A0
:103AC000CF90BF90AF909F908F907F906F905F90BE
:103AD0004F9008950F931F93CF93DF93EC0123DF53
:103AE0008C01CE0105DE800F911FDF91CF911F91D8
:103AF0000F9108950F931F93CF93DF93EC0124D977
:103B0000688779878A879B87E881F9810680F781B2
:103B1000E02DCE01199597FF14C016D90885198597
:103B20002A853B85601B710B820B930B0C811D81D9
:103B30002E813F81601771078207930728F38FEF6B
:103B40009FEFDF91CF911F910F910895CF92DF9258
:103B5000EF92FF920F931F93CF93DF937C016A0143
:103B6000EB0100E010E00C151D0541F0C701C2DFBC
:103B700097FD04C089930F5F1F4FF5CFC801DF91F8
:103B8000CF911F910F91FF90EF90DF90CF9008950C
:103B9000FC01808191814CC5CF93DF93EC0188813A
:103BA0009981009709F044D5198218821D821C82E0
:103BB0001B821A82DF91CF9108950F931F93CF93A9
:103BC000DF93EC018B016F5F7F4F88819981BFD5B7
:103BD000009731F0998388831B830A8381E001C0B9
:103BE00080E0DF91CF911F910F910895CF93DF93E4
:103BF000EC0188819981892B29F08A819B81861724
:103C0000970758F4CE01D9DF882341F08C819D813C
:103C1000892B19F4E881F981108281E0DF91CF913D
:103C20000895EF92FF920F931F93CF93DF93EC01D0
:103C30007B018A01BA01DADF811103C0CE01ACDF5A
:103C400006C01D830C83B70188819981BAD6CE0145
:103C5000DF91CF911F910F91FF90EF900895FC019C
:103C600011821082138212821582148261157105ED
:103C700051F0FB0101900020E9F7AF0141505109DB
:103C8000461B570BCECF0895CF93DF93EC01611500
:103C9000710559F0FB0101900020E9F7AF01415097
:103CA0005109461B570BBDDF01C076DFCE01DF9106
:103CB000CF910895FC0124813581232B31F421E03B
:103CC0006115710599F0FB0108C0FC0180819181AB
:103CD0006115710531F421E0FC018081882331F008
:103CE00004C066D621E0892B09F020E0822F0895D8
:103CF000FA01DB0114964D915C911597DC01149645
:103D00002D913C911597241B350B2E173F0780F002
:103D10008D919C91009761F0DB016D917C91611513
:103D2000710531F08E0F9F1F53D621E0892B09F0CA
:103D300020E0822F0895FC0144815581FB012481FC
:103D400035814217530718F040E050E0D1CF80E0B2
:103D500008950F931F93CF93DF93EB014115510506
:103D6000E1F02097D1F0FC016481758126173707B7
:103D700098F4621B730B8A010150110960177107D7
:103D800008F48B01FC0160817181620F731FA8012F
:103D9000CE012CD6C00FD11F1882DF91CF911F9179
:103DA0000F910895CF93DF93FC018481958148178B
:103DB000590770F4C081D181772767FD7095CE01D6
:103DC000840F951FEAD5009719F08C1B9D0B02C03C
:103DD0008FEF9FEFDF91CF91089540E050E0E2CF69
:103DE000BF92CF92DF92EF92FF920F931F93CF93E8
:103DF000DF936C017B01EA0189012417350720F468
:103E00008D2FE901042F182F6CEE72E0C60127DF19
:103E1000D70114968D919C911597C817D907C0F4B6
:103E20008017910708F48C01D701ED91FC9111974F
:103E3000E00FF11FB08010826D917C916C0F7D1F9F
:103E4000C60122DFD701ED91FC91E00FF11FB08296
:103E5000C601DF91CF911F910F91FF90EF90DF90FE
:103E6000CF90BF900895CF93DF93FC01C081D181A3
:103E7000209749F08881882331F0992787FD909514
:103E80007BD58993F7CFDF91CF910895AF92BF9201
:103E9000CF92DF92EF92FF920F931F93CF93DF9316
:103EA0007C01DC01CD90DC901197C114D10409F4A0
:103EB0003EC01496CD91DC9115972097C1F1560123
:103EC0008501BFEFAB1ABB0AF8018081992787FDF6
:103ED00090954AD5892BA1F72197CC0DDD1D8881BE
:103EE000992787FD909540D5892B89F4AE014F5FC6
:103EF0005F4F401B510BD70115965C934E9314975F
:103F0000C016D10648F4B801C6013ED505C0C01799
:103F1000D10760F32197E3CFD701ED91FC91119781
:103F200014968D919C911597E80FF91F1082DF91DF
:103F3000CF911F910F91FF90EF90DF90CF90BF90A6
:103F4000AF900895FC0180819181009709F0E6C44B
:103F500060E070E0CB01089508950E94B016FCDF88
:103F60000E94230EC2E1D9E10E94430E2097E1F3A3
:103F700059D9FACF5058BB27AA270ED0B1C1A2D128
:103F800030F0A7D120F031F49F3F11F41EF497C117
:103F90000EF4E095E7FB64C1E92FB3D180F3BA17C3
:103FA000620773078407950718F071F49EF5E2C164
:103FB0000EF4E0950B2EBA2FA02D0B01B901900144
:103FC0000C01CA01A0011124FF27591B99F0593F88
:103FD00050F4503E68F11A16F040A22F232F342FD0
:103FE0004427585FF3CF469537952795A795F0401E
:103FF0005395C9F77EF41F16BA0B620B730B840B33
:10400000BAF09150A1F0FF0FBB1F661F771F881FEA
:10401000C2F70EC0BA0F621F731F841F48F4879542
:1040200077956795B795F7959E3F08F0B3CF939531
:10403000880F08F09927EE0F979587950895ECD093
:1040400008F481E008950CD04BC143D140F03AD13F
:1040500030F021F45F3F19F003C151118CC12FC121
:1040600050D198F39923C9F35523B1F3951B550B00
:10407000BB27AA2762177307840738F09F5F5F4F3B
:10408000220F331F441FAA1FA9F333D00E2E3AF07C
:10409000E0E830D091505040E695001CCAF729D096
:1040A000FE2F27D0660F771F881FBB1F26173707E5
:1040B0004807AB07B0E809F0BB0B802DBF01FF2715
:1040C00093585F4F2AF09E3F510568F0C9C053C115
:1040D0005F3FECF3983EDCF3869577956795B7954F
:1040E000F7959F5FC9F7880F911D9695879597F96A
:1040F0000895E1E0660F771F881FBB1F62177307E3
:104100008407BA0720F0621B730B840BBA0BEE1FF7
:1041100088F7E095089504D06894B1112CC10895F2
:10412000F8D088F09F5790F0B92F9927B751A0F099
:10413000D1F0660F771F881F991F1AF0BA95C9F73B
:1041400012C0B13081F016D1B1E0089513C1672FCC
:10415000782F8827B85F39F0B93FCCF386957795EB
:104160006795B395D9F73EF49095809570956195D4
:104170007F4F8F4F9F4F0895E89409C097FB3EF4FF
:1041800090958095709561957F4F8F4F9F4F9923A4
:10419000A9F0F92F96E9BB279395F6958795779522
:1041A0006795B795F111F8CFFAF4BB0F11F460FFE2
:1041B0001BC06F5F7F4F8F4F9F4F16C0882311F03A
:1041C00096E911C0772321F09EE8872F762F05C04E
:1041D000662371F096E8862F70E060E02AF09A95E9
:1041E000660F771F881FDAF7880F9695879597F9DE
:1041F0000895A9D080F09F3740F491110EF0BBC014
:1042000060E070E080E89FEB089526F41B16611DC6
:10421000711D811D2BC045C0990F0008550FAA0BB9
:10422000E0E8FEEF16161706E807F907C0F01216C9
:104230001306E407F50798F0621B730B840B950BCC
:1042400039F40A2661F0232B242B252B21F4089521
:104250000A2609F4A140A6958FEF811D811D0895BE
:1042600097F99F6780E870E060E00895882371F413
:10427000772321F09850872B762F07C0662311F4FF
:1042800099270DC09051862B70E060E02AF09A9536
:10429000660F771F881FDAF7880F9695879597F92D
:1042A00008959F3F31F0915020F487957795679559
:1042B000B795880F911D9695879597F908959FEF6B
:1042C00080EC089500240A941616170618060906AD
:1042D000089500240A94121613061406050608957C
:1042E000092E0394000C11F4882352F0BB0F40F404
:1042F000BF2B11F460FF04C06F5F7F4F8F4F9F4F44
:10430000089557FD9058440F551F59F05F3F71F0C5
:104310004795880F97FB991F61F09F3F79F087952C
:104320000895121613061406551FF2CF4695F1DFB5
:1043300008C0161617061806991FF1CF8695710545
:10434000610508940895E5DFA0F0BEE7B91788F489
:10435000BB279F3860F41616B11D672F782F88276A
:10436000985FF7CF869577956795B11D93959639A8
:10437000C8F30895E894BB2766277727CB0197F900
:1043800008954ADF08F48FEF08950BD0A9CF9ADF84
:1043900028F09FDF18F0952309F062CF90CF112409
:1043A000EACFAFDFA0F3959FD1F3950F50E0551FF3
:1043B000629FF001729FBB27F00DB11D639FAA277A
:1043C000F00DB11DAA1F649F6627B00DA11D661FC9
:1043D000829F2227B00DA11D621F739FB00DA11DEA
:1043E000621F839FA00D611D221F749F3327A00DA4
:1043F000611D231F849F600D211D822F762F6A2F40
:1044000011249F5750408AF0E1F088234AF0EE0FC4
:10441000FF1FBB1F661F771F881F91505040A9F7D1
:104420009E3F510570F01CCFA6CF5F3FECF3983E46
:10443000DCF3869577956795B795F795E7959F5F38
:10444000C1F7FE2B880F911D9695879597F90895D2
:10445000E3DE880B990B0895DB018F939F9333D094
:10446000BF91AF91A29F800D911DA39F900DB29F10
:10447000900D11240895A1E21A2EAA1BBB1BFD0169
:104480000DC0AA1FBB1FEE1FFF1FA217B307E40733
:10449000F50720F0A21BB30BE40BF50B661F771F8B
:1044A000881F991F1A9469F760957095809590956B
:1044B0009B01AC01BD01CF010895EE0FFF1F0590D8
:1044C000F491E02D19940DD0A59F900DB49F900DFF
:1044D000A49F800D911D112408950790F691E02D61
:1044E0001994A29FB001B39FC001A39F700D811DBD
:1044F0001124911DB29F700D811D1124911D0895ED
:10450000CF93DF938230910510F482E090E0E09148
:104510004B15F0914C1520E030E0A0E0B0E0309772
:1045200039F14081518148175907B8F048175907A8
:1045300071F482819381109729F013969C938E9346
:1045400012972CC090934C1580934B1527C02115C2
:10455000310531F04217530718F0A901DB0101C002
:10456000EF019A01BD01DF010280F381E02DD7CF79
:1045700021153105F9F0281B390B2430310580F461
:104580008A819B816115710521F0FB0193838283F0
:1045900004C090934C1580934B15FE01329644C095
:1045A000FE01E20FF31F8193919322503109398369
:1045B00028833AC02091491530914A15232B41F4A4
:1045C000209102023091030230934A15209349153D
:1045D00020910002309101022115310541F42DB7DF
:1045E0003EB74091040250910502241B350BE09127
:1045F0004915F0914A15E217F307A0F42E1B3F0B63
:104600002817390778F0AC014E5F5F4F2417350744
:1046100048F04E0F5F1F50934A1540934915819300
:10462000919302C0E0E0F0E0CF01DF91CF910895D7
:10463000CF93DF93009709F487C0FC013297138270
:104640001282C0914B15D0914C15209781F4208196
:104650003181280F391F8091491590914A15821791
:10466000930779F5F0934A15E09349156DC0DE0183
:1046700020E030E0AE17BF0750F412964D915C91E8
:1046800013979D014115510509F1DA01F3CFB38369
:10469000A28340815181840F951F8A179B0771F473
:1046A0008D919C911197840F951F02969183808321
:1046B00012968D919C9113979383828321153105D6
:1046C00029F4F0934C15E0934B153EC0D901139695
:1046D000FC93EE9312974D915D91A40FB51FEA17CD
:1046E000FB0779F480819181840F951F0296D9018F
:1046F00011969C938E938281938113969C938E93B3
:104700001297E0E0F0E08A819B81009719F0FE01AA
:10471000EC01F9CFCE01029628813981820F931FD7
:104720002091491530914A152817390769F43097B7
:1047300029F410924C1510924B1502C0138212826C
:10474000D0934A15C0934915DF91CF9108956F9288
:104750007F928F929F92AF92BF92CF92DF92EF9211
:10476000FF920F931F93CF93DF93EC01CB01209720
:1047700079F4DF91CF911F910F91FF90EF90DF902F
:10478000CF90BF90AF909F908F907F906F90B8CE5A
:10479000FE01E60FF71F9E0122503109E217F307D1
:1047A00008F4A8C0D9010D911C911197061717079D
:1047B000B0F00530110508F49BC0A8014450510920
:1047C0004617570708F494C002501109061B170B2F
:1047D000019311936D937C93CF012ADF89C05B0114
:1047E000A01AB10A4E01800E911EA0914B15B091F6
:1047F0004C15612C712C60E070E0109709F449C0F1
:10480000A815B905C9F5ED90FC901197670142E034
:10481000C40ED11CCA14DB0478F147018A189B0826
:10482000640142E0C40ED11C1296BC9012971396FC
:10483000AC91B5E0CB16D10440F0B282A383918253
:104840008082D9018D939C9309C00E5F1F4F0E0D7E
:104850001F1DF90111830083EB2DFA2F61157105DE
:1048600031F0DB011396FC93EE93129741C0F09365
:104870004C15E0934B153CC06D917C9111976616D9
:10488000770608F43B01BD0112960D90BC91A02D56
:10489000B4CF6091491570914A1568157905E9F40E
:1048A00068167906D0F4409100025091010241153A
:1048B000510541F44DB75EB7609104027091050255
:1048C000461B570BE417F507A8F4F0934A15E0933D
:1048D0004915F901918380830BC012DE7C0100979A
:1048E00049F0A801BE0150D0CE01A2DEC70104C02C
:1048F000CE0102C080E090E0DF91CF911F910F9137
:10490000FF90EF90DF90CF90BF90AF909F908F90EF
:104910007F906F90089566277727A2C01F93FC01B0
:1049200099278827BC01E89411911032E9F31930D6
:1049300010F01E30C8F31B3249F01D3241F4689468
:1049400005C063D0610F711D811D911D1191105320
:104950001A30B8F33EF490958095709561957F4F2D
:104960008F4F9F4F1F9108959111E2C1803219F02E
:1049700089508550D0F708959111089581548A5136
:1049800008F4805E855A0895FB01DC0102C00190A5
:104990000D9241505040D8F70895FC01819186173F
:1049A00021F08823D9F7992708953197CF010895E9
:1049B000FB01DC018D91019080190110D9F3990B55
:1049C0000895FB01DC0101900D920020E1F70895AC
:1049D000FB01DC014150504030F08D910190801975
:1049E00019F40020B9F7881B990B0895FB01DC012D
:1049F0004150504048F001900D920020C9F701C08D
:104A00001D9241505040E0F70895592F482F372FFD
:104A1000262F660F771F881F991F660F771F881F25
:104A2000991F620F731F841F951F660F771F881FC2
:104A3000991F0895F999FECF92BD81BDF89A9927E3
:104A400080B50895262FF999FECF1FBA92BD81BD7A
:104A500020BD0FB6F894FA9AF99A0FBE0196089500
:104A60008F929F92AF92BF92CF92DF92EF92FF927E
:104A70000F931F93CF93DF938B016115710521F085
:104A8000DB018C9311969C93EC015E01BFEFAB1A96
:104A9000BB0A7501C8808C2D90E066DF892B11F070
:104AA000E501F3CFEDE2CE1208C07E01F2E0EF0E99
:104AB000F11CC980DD24D39409C02BE2C21205C0C9
:104AC0007E0142E0E40EF11CC980D12CE701219760
:104AD00043E050E060EC73E0CE012DD1892BB9F4B6
:104AE000239645E050E06BEB73E0CE0124D1892B97
:104AF00009F425960115110519F0D801CD93DC9321
:104B0000D11000C160E070E080E89FE704C143E09D
:104B100050E068EB73E0CE010ED1892B59F40115FA
:104B2000110509F4F4C0B2E0EB0EF11CF801F182BA
:104B3000E082EDC0F70160E070E0CB01C0E0D0E0C2
:104B40007F01A0EDAA2EAC0C29E02A1528F14D2DED
:104B50004260B42E2D2D2870D2FE04C0211124C035
:104B6000219622C021112197A5E0B0E09B01AC0164
:104B7000AADC660F771F881F991F6A0D711D811DA2
:104B8000911D6839A9E97A078A07A9E19A0760F0B7
:104B9000BD2DB660BB2E08C02EEFA2120AC0D3FCFA
:104BA00050C04D2D4860B42E3196D701CC90DB2CEF
:104BB000C7CF2C2D2F7D253409F043C0A081AD3205
:104BC00041F4BD2DB061DB2E7F0122E0E20EF11C2D
:104BD0000CC07F01AB3231F04FEFE41AF40A21E050
:104BE00030E006C0A2E0EA0EF11CA18122E030E034
:104BF000A053AA3018F0E21AF30A23C0F70120E00C
:104C000030E02038BCE03B075CF4A901440F551F9D
:104C1000440F551F240F351F220F331F2A0F311D3C
:104C2000AF014F5F5F4F7A01A081A053AA3010F40B
:104C3000FA01E7CFD4FE03C0319521953109C20FA7
:104C4000D31FD1FE09C00115110531F0E1E0EE1AC4
:104C5000F108D801ED92FC928FDA2D2D23702330CC
:104C600019F04B015C0106C04B015C01B7FAB0942E
:104C7000B7F8B09420E030E0A901C501B401DFD954
:104C8000882309F43CC0D7FF06C0D195C195D1094E
:104C900007ED13E002C00FEE13E06801B8E1CB1A94
:104CA000D10890E2E92EF12CCE15DF056CF0F80169
:104CB0002591359145915491C501B40166DB4B01B5
:104CC0005C01CE19DF09F0CF04501109F594E79487
:104CD0000C151D0549F78A2D880F8B2D881F8F3FD6
:104CE00041F020E030E0A901C501B401A8D981114B
:104CF00006C082E290E090934E1580934D15C50159
:104D0000B40109C060E070E080E89FEF04C060E09B
:104D100070E080EC9FE7DF91CF911F910F91FF90A2
:104D2000EF90DF90CF90BF90AF909F908F900895BD
:104D3000992788270895FB01DC014150504088F0F5
:104D40008D9181341CF08B350CF4805E659161345B
:104D50001CF06B350CF4605E861B611171F3990BCE
:0A4D60000895881BFCCFF894FFCFE4
:104D6A0000004F1580000102000300040005000640
:104D7A00000700080009000A000B000C002C002D97
:104D8A00002E003000696E666F726D6174696F6E15
:104D9A00006465766963652D636F6E666967006690
:104DAA006163746F72792D726573657400636F6ED7
:104DBA006669672D726573657400636F6E666967ED
:104DCA002D6F75747075742000636F6E6669672D38
:104DDA0070776D20007374617475730073746172F7
:104DEA00740073746F7000646F776E6C6F61642007
:104DFA00007061746368200072756E74696D652D48
:104E0A0069640076657273696F6E2D6964007265F4
:104E1A0061642062007772697465206200310072F1
:104E2A00656164206E007772697465206E00417254
:104E3A006475696E6F00312E300000000000901911
:104E4A00011BE518FE18F0186F190D0A006E616E45
:0C4E5A0000696E66006F7666002E000096
:00000001FF
