:100000000C9437010C945F010C945F010C945F0118
:100010000C945F010C945F010C945F010C945F01E0
:100020000C945F010C945F010C945F010C945F01D0
:100030000C945F010C946F150C945F010C945F019C
:100040000C9422160C945F010C9435190C946719CA
:100050000C945F010C945F010C945F010C945F01A0
:100060000C945F010C945F01260A2B0A300A350AB2
:100070003A0A3F0ABC0A440A550A5C0A630A6A0A39
:10008000710A780A696E707574006F757470757492
:10009000002C20002C200070696E002C20616E6105
:1000A0006C6F674F7574707574002C200070696EEA
:1000B000002C20616E616C6F67496E707574002C46
:1000C0002000410052756E74696D655665727369E2
:1000D0006F6E49643D0052756E74696D6549643D8B
:1000E0000042797465733D0042797465733D006622
:1000F000616C736500747275650053756363657335
:10010000733D00454F4D004572726F723D6E6F201A
:100110007375636820636F6D6D616E643A200030A3
:1001200000310066616C736500747275650052750C
:100130006E6E696E673D004572726F723D4E6F74F0
:1001400020612076616C69642050574D2070696E83
:100150003A2000446576696365204E616D653D0017
:1001600043757272656E742050726F6772616D2094
:1001700053697A653D004D61782050726F677261F6
:100180006D2053697A653D00537472696E67733DE3
:10019000004E756D65726963733D00426F6F6C65EB
:1001A000616E733D0050726F746F636F6C205665A3
:1001B0007273696F6E3D00536F6170426F782053A8
:1001C0006E61702041726475696E6F2052756E7435
:1001D000696D6500000000080002010000030407CB
:1001E0000000000000000000010204081020408010
:1001F0000102040810200102040810200404040471
:1002000004040404020202020202030303030303C0
:100210000000000023002600290000000000250047
:1002200028002B0000000000240027002A004E4177
:100230004E494E495459494E46CDCCCC3D0AD72360
:100240003C17B7D13877CC2B329595E6241FB14FA8
:100250000A000020410000C84200401C4620BCBEED
:100260004CCA1B0E5AAEC59D7400E70D9719112498
:100270001FBECFEFD8E0DEBFCDBF11E0A0E0B1E000
:10028000ECEDFBE402C005900D92AC3EB107D9F74E
:1002900026E0ACEEB1E001C01D92A63FB207E1F747
:1002A00012E0CEE6D2E004C02297FE010E94812136
:1002B000CA36D107C9F70E94CC1E0C94EC250C94C9
:1002C0000000FC017183608308950F931F93CF9307
:1002D000DF938C01C0E0D0E0F801808191818C0F28
:1002E0009D1F0E942124F801EC0FFD1F828321969F
:1002F000C031D10589F7DF91CF911F910F910895FA
:100300000F931F93CF93DF938C01C0E0D0E0F801EF
:10031000EC0FFD1FD8018D919C9162818C0F9D1F68
:100320000E9429242196C031D10589F7DF91CF9110
:100330001F910F9108959B01225031092B303105F7
:1003400038F4FC01E60FF71F81E092819F3F09F02E
:1003500080E008959B01225031092B30310528F4AB
:10036000FC01E60FF71F8FEF828308959B01225057
:1003700031092B30310538F4FC01E60FF71F81E01D
:100380009281913009F080E008959B01225031095B
:100390002B30310528F4FC01E60FF71F81E0828342
:1003A00008950F931F93CF93DF938C01C2E0D0E0A9
:1003B000BE01C8010E94AA012196CD30D105C1F726
:1003C000DF91CF911F910F910895CB01029708956E
:1003D000E7E0F1E0819191918617970731F081E094
:1003E000E331F807B9F780E0089581E008950F93AD
:1003F0001F93CF93DF938C01EB010E94E8018823C8
:1004000031F0C00FD11F81E09A81923009F080E075
:10041000DF91CF911F910F910895DF92EF92FF929C
:100420000F931F93CF93DF938C017B010E94F70101
:100430008823A9F0C7E0D1E088E0D82E69917991AE
:100440006E157F0551F0C8010E94F7018111D39408
:1004500081E0C331D80791F702C08D2D01C080E043
:10046000DF91CF911F910F91FF90EF90DF90089552
:100470000F931F93CF93DF938C01EB010E94E80150
:10048000882321F0C00FD11F82E08A83DF91CF91B2
:100490001F910F910895FC01718360835383428300
:1004A00035832483118E128613861486158616864C
:1004B0001786108A118A128A138A0895FC01828590
:1004C0000895FC01818D0895CF93DF93EC018D8910
:1004D00081110EC06E817F818A819B810E942E0FC7
:1004E0008C8B8E819F8101969F838E8388E08D8B7C
:1004F0008C89982F990F9C8B9D8991509D8B881F7B
:100500008827881FDF91CF910895DF92EF92FF92A5
:100510000F931F93CF93DF937C01862FC0E0D0E031
:10052000042F10E0C017D10744F4D82EDD0CC7010A
:100530000E9464028D292196F5CFDF91CF911F9102
:100540000F91FF90EF90DF900895EF92FF920F933D
:100550001F93CF93DF938C01C0E0D0E020E030E028
:10056000F801808590E0C817D90754F47901EE0CA2
:10057000FF1CC8010E9464029701282B2196F0CF2E
:10058000C901DF91CF911F910F91FF90EF900895D6
:10059000CF93DF93EC010E94A5022F89222321F043
:1005A0004B8521E0422701C040E0BC018C819D8148
:1005B000DF91CF910C94550EFF920F931F93CF9321
:1005C000DF93EC010E94A5028C01BC018C819D810E
:1005D0000E943A0EF82E8F89811102C04B8501C00E
:1005E00041E0B8018C819D810E94550EF11007C039
:1005F0008F89882321F08B8591E0892701C080E0D5
:100600008F8BDF91CF911F910F91FF900895FF92F3
:100610000F931F93CF93DF93EC010E94A5028C01EF
:10062000BC018C819D810E943A0EF82E8F8988230F
:1006300021F04B8581E0482701C040E0B8018C8162
:100640009D810E94550EFF2039F08F89811104C0D1
:100650008B8591E0892701C080E08F8BDF91CF915E
:100660001F910F91FF900895CF93DF93EC010E94AB
:100670006402811108C0CE010E94640291E08130C1
:1006800061F090E00AC0CE010E94A502BC018C81FD
:100690009D81DF91CF910C943A0E892FDF91CF91FC
:1006A0000895CF93DF93EC010E9434039F89911149
:1006B00001C080E08F8BDF91CF910895CF93DF93BE
:1006C000EC010E9434039F89992319F091E0982747
:1006D00001C090E09F8BDF91CF9108951F93CF933E
:1006E000DF93EC010E943403182FCE010E94A50273
:1006F000BC018B8581110FC08F89882361F08C81AB
:100700009D81112311F040E001C041E0DF91CF91C4
:100710001F910C94550EDF91CF911F910895FC010C
:10072000418560E00C948502AF92BF92CF92DF9238
:10073000EF92FF920F931F93CF93DF938C01C62FFD
:1007400060E070E0CB01A12CB12CD0E0AC16BD066E
:1007500094F46B017C01CC0CDD1CEE1CFF1CC80169
:100760000E946402A7019601282BCA01B9013FEF3C
:10077000A31AB30AEBCFDF91CF911F910F91FF9096
:10078000EF90DF90CF90BF90AF900895FF920F93BE
:100790001F93CF93DF93CDB7DEB72A970FB6F894A8
:1007A000DEBF0FBECDBF8C010E946402811130C03C
:1007B000C8010E946402813041F042E060E0C8015B
:1007C0000E9485028F5FF12C03C0FF24F39484E024
:1007D000682F660F660F660FC8010E9494036F832F
:1007E000788789879A87FE8285E0FE013696DE014A
:1007F000119601900D928A95E1F7F98285E0FE014C
:100800003196DE01169601900D928A95E1F70EC0A1
:10081000C8010E948F03682FF801848195810E948E
:10082000770E2E833F83488759876A872E813F81C1
:10083000488559856A8570E080E090E02A960FB679
:10084000F894DEBF0FBECDBFDF91CF911F910F9106
:10085000FF9008952F923F924F925F926F927F92F6
:100860008F929F92AF92BF92CF92DF92EF92FF92C0
:100870000F931F93CF93DF93CDB7DEB72C970FB6AF
:10088000F894DEBF0FBECDBF5C01662E0E94C6038A
:100890002C873F83488759876A87CF80D884E9842B
:1008A000FA84C5010E94A5024C01C5010E948F0374
:1008B0008B87B401F501848195810E943A0E782ED0
:1008C000F5012789662041F0811102C0822F01C005
:1008D00080E091E0922707C0882319F081E0822709
:1008E00001C080E0922FF501238521114BC08823A0
:1008F00009F446C06B85848195810E94770E3A8306
:100900004B835C836D83022F8A819B81AC81BD8187
:10091000002321F080E090E0DC0100E0F501208878
:10092000318842885388280E391E4A1E5B1E8481F6
:100930009581122D2A823B824C825D822B813C81E3
:100940004D816B850E94C20EFC85F11106C02C14EE
:100950003D044E045F047CF10AC0C201B1010E9453
:10096000DF1FA70196010E94E22087FD24C0462DCB
:10097000B401F501848195810E94550E762C1BC02F
:100980009923C9F0772473947624472DB401F50197
:10099000848195810E94550EF501848195811A828A
:1009A0001B821C821D8200E010E02B813C814D8166
:1009B0006B850E94C20EF501778A2C960FB6F894CB
:1009C000DEBF0FBECDBFDF91CF911F910F91FF9082
:1009D000EF90DF90CF90BF90AF909F908F907F90DF
:1009E0006F905F904F903F902F90089561E00C942E
:1009F0002A0460E00C942A042F923F924F925F9257
:100A00006F927F928F929F92AF92BF92CF92DF921E
:100A1000EF92FF920F931F93CF93DF93CDB7DEB783
:100A20002C970FB6F894DEBF0FBECDBF8C016B873D
:100A30000E94C6033F83488759876A87CF80D8843E
:100A4000E984FA84222331F0C701B6010E94AC1F69
:100A50006B017C01C8010E9434038C87C8010E948D
:100A6000A5024C01C8010E948F03682EC8010E9494
:100A7000A5025C01B401F801848195810E943A0EBF
:100A8000782E662DF801848195810E94770E3A8335
:100A90004B835C836D832A803B804C805D80B501F5
:100AA000F801848195810E943A0EF8019385248192
:100AB00035819923E9F041E0B501C9012C960FB6C3
:100AC000F894DEBF0FBECDBFDF91CF911F910F9184
:100AD000FF90EF90DF90CF90BF90AF909F908F905E
:100AE0007F906F905F904F903F902F900C94550E99
:100AF0001982FC85FF2339F08B85882351F1212C45
:100B0000312C210128C071102AC0F801978999233E
:100B100031F1811124C0FB85FF2369F08FEF281A82
:100B2000380A480A580A2C143D044E045F04BCF0ED
:100B30001601270112C091E0291A31084108510815
:100B4000121413041404150454F0212C312C210127
:100B500004C016012701712C02C077247394F80198
:100B60004789B501C9010E94550EF801778A472DC2
:100B7000B401848195810E94550EF801848195818C
:100B8000122D2A823B824C825D8209812B813C811D
:100B90004D81662D0E94C20E2C960FB6F894DEBFD2
:100BA0000FBECDBFDF91CF911F910F91FF90EF90BE
:100BB000DF90CF90BF90AF909F908F907F906F907D
:100BC0005F904F903F902F90089561E00C94FC044B
:100BD00060E00C94FC049F92AF92BF92CF92DF92A0
:100BE000EF92FF920F931F93CF93DF93CDB7DEB7B2
:100BF0002E970FB6F894DEBF0FBECDBF5C018B0100
:100C00000E94C603922E3F83488759876A87CF8008
:100C1000D884E984FA84C5010E94C603822F3A83EE
:100C20004B835C836D832A813B814C815D81911074
:100C300045C08111B1C002301105F9F03CF4011535
:100C4000110561F00130110581F02FC1043011054B
:100C500021F1DCF00530110541F127C181E0C21618
:100C6000D306E406F50641F504C181E02C153D05E7
:100C70004E055F050CF4FDC01FC081E0C216D3060F
:100C8000E406F5060CF0F5C017C081E0C216D306E5
:100C9000E406F5060CF4EDC00FC081E02C153D050F
:100CA0004E055F050CF0E5C007C081E0C216D30613
:100CB000E406F50609F0DDC080E0DBC0882351F1D1
:100CC00002301105E1F05CF401151105A1F00130CD
:100CD000110509F0EAC011E0C701B601A1C0043056
:100CE0001105A1F084F00530110509F0DEC011E016
:100CF000C701B601D3C011E0C701B6018BC011E036
:100D0000C701B601A0C0C701B601AEC011E0C7015E
:100D1000B601BFC00230110539F174F40115110597
:100D2000D9F00130110509F0C0C0CA01B9010E9413
:100D3000DF1FA701960198C00430110529F1E4F0E6
:100D40000530110509F0B1C0CA01B9010E94DF1FC9
:100D500011E0A7019601A2C0CA01B9010E94DF1FDC
:100D600011E0A701960156C0CA01B9010E94DF1F18
:100D700011E0A70196018DC0CA01B9010E94DF1FD1
:100D800011E0A70196014CC0CA01B9010E94DF1F02
:100D900011E0A701960157C00230110509F446C0C1
:100DA000ACF40115110549F10130110509F07DC0C0
:100DB000C701B6012B873C874D875E870E94DF1FE6
:100DC00011E02B853C854D855E852AC004301105D8
:100DD00009F452C0ECF10530110509F066C0C701F5
:100DE000B6012B873C874D875E870E94DF1F11E08D
:100DF0002B853C854D855E8551C0C701B6012B878B
:100E00003C874D875E870E94DF1F11E02B853C8564
:100E10004D855E850E94401F882309F444C042C06E
:100E20000E94E22018160CF43EC03CC0C701B60177
:100E30002B873C874D875E870E94DF1F11E02B8543
:100E40003C854D855E850E94E22087FF2CC02AC02C
:100E5000C701B6012B873C874D875E870E94DF1F45
:100E60002B853C854D855E850E94401F881F882705
:100E7000881FF501878B19C0C701B6012B873C87F6
:100E80004D875E870E94DF1F11E02B853C854D85D5
:100E90005E850E94401F18162CF005C00E94401F5E
:100EA000811101C010E0F501178B2E960FB6F89452
:100EB000DEBF0FBECDBFDF91CF911F910F91FF908D
:100EC000EF90DF90CF90BF90AF909F9008959F924A
:100ED000AF92BF92CF92DF92EF92FF920F931F9348
:100EE000CF93DF93CDB7DEB763970FB6F894DEBF2D
:100EF0000FBECDBF5C010E94C603022F3C874D8709
:100F00005E876F87CC84DD84EE84FF84C5010E94F8
:100F1000C603122F3F83488759876A872F813885F8
:100F200049855A85C501288B398B4A8B5B8B0E947A
:100F30008F03982EF5018789288939894A895B8929
:100F40008823E9F101110CC011110AC01982C20EE7
:100F5000D31EE41EF51ECA82DB82EC82FD8224C011
:100F600081E08983002329F0112391F0C701B601A4
:100F700015C0112369F0C701B601288B398B4A8B44
:100F80005B8B0E94DF1F288939894A895B8906C0EB
:100F9000CA01B9010E94DF1FA70196010E94DC1E51
:100FA0006A837B838C839D8309811A812B813C8199
:100FB0004D81692DF501848195810E94C20E639651
:100FC0000FB6F894DEBF0FBECDBFDF91CF911F915A
:100FD0000F91FF90EF90DF90CF90BF90AF909F90D8
:100FE00008959F92AF92BF92CF92DF92EF92FF92BD
:100FF0000F931F93CF93DF93CDB7DEB763970FB6F1
:10100000F894DEBF0FBECDBF5C010E94C603022F65
:101010003C874D875E876F87CC84DD84EE84FF84B8
:10102000C5010E94C603122F3F83488759876A87EC
:101030002F81388549855A85C501288B398B4A8B84
:101040005B8B0E948F03982EF50187892889398947
:101050004A895B898823E9F101110CC011110AC08A
:101060001982C21AD30AE40AF50ACA82DB82EC8228
:10107000FD8224C081E08983002319F0112381F0CF
:1010800015C0112369F0C701B601288B398B4A8B33
:101090005B8B0E94DF1F288939894A895B8908C0D8
:1010A000CA01B9010E94DF1F9B01AC01C701B60153
:1010B0000E94DB1E6A837B838C839D8309811A8156
:1010C0002B813C814D81692DF501848195810E94A0
:1010D000C20E63960FB6F894DEBF0FBECDBFDF9190
:1010E000CF911F910F91FF90EF90DF90CF90BF9025
:1010F000AF909F9008954F925F926F927F929F92D0
:10110000AF92BF92CF92DF92EF92FF920F931F9315
:10111000CF93DF93CDB7DEB72F970FB6F894DEBF2E
:101120000FBECDBF5C010E94C603022F3C874D87D6
:101130005E876F87CC84DD84EE84FF84C5010E94C6
:10114000C603122F3F83488759876A874F80588488
:1011500069847A84C5010E948F03982EF5018789DE
:101160008823D9F101110EC011110CC01982A701F9
:101170009601C301B2010E944D216A837B838C8357
:101180009D8320C081E08983002339F0112371F011
:10119000A3019201C701B6010FC0112339F0C701A5
:1011A000B6010E94DF1FA301920106C0C301B20174
:1011B0000E94DF1FA70196010E94E6206A837B83BD
:1011C0008C839D8309811A812B813C814D81692DFE
:1011D000F501848195810E94C20E2F960FB6F89476
:1011E000DEBF0FBECDBFDF91CF911F910F91FF905A
:1011F000EF90DF90CF90BF90AF909F907F906F90D7
:101200005F904F9008954F925F926F927F929F925E
:10121000AF92BF92CF92DF92EF92FF920F931F9304
:10122000CF93DF93CDB7DEB72F970FB6F894DEBF1D
:101230000FBECDBF5C010E94C603022F3C874D87C5
:101240005E876F874C845D846E847F84C5010E94B5
:10125000C603122F3F83488759876A87CF80D88477
:10126000E984FA84C5010E948F03982EF5018789CD
:10127000882309F466C001110FC011111CC0C114EC
:10128000D104E104F10409F45CC0C301B2010E947D
:10129000DF1F2B013C0124C01123E9F020E030E0E6
:1012A000A901C701B6010E94401F882309F449C063
:1012B000A70196011BC020E030E0A901C701B601DB
:1012C0000E94401F8823E9F1C301B2010E94DF1F81
:1012D000A70196010DC0C114D104E104F10489F104
:1012E000C701B6010E94DF1F9B01AC01C301B2011F
:1012F0000E94441F6B017C010E941A209B01AC01DB
:10130000C701B6010E94401F81110AC01982C7019E
:10131000B6010E94AC1F6A837B838C839D8306C0C9
:1013200081E08983CA82DB82EC82FD8209811A8195
:101330002B813C814D81692DF501848195810E942D
:10134000C20E2F960FB6F894DEBF0FBECDBFDF9151
:10135000CF911F910F91FF90EF90DF90CF90BF90B2
:10136000AF909F907F906F905F904F9008950F93F4
:101370001F93CF93DF93CDB7DEB72A970FB6F894BC
:10138000DEBF0FBECDBF8C010E94C6032E833F83FC
:10139000488759876A87C8010E94C60329833A8310
:1013A0004B835C836D83C8010E948F03682FF80113
:1013B000278984819581222331F00E811F81288520
:1013C00039854A8505C009811A812B813C814D816F
:1013D0000E94C20E2A960FB6F894DEBF0FBECDBF94
:1013E000DF91CF911F910F9108951F93CF93DF93BA
:1013F000EC0143E060E00E948502813061F030F052
:10140000823071F0833009F4B5C00FC0CE010E9464
:10141000C80280E0B2C0CE010E94510381E0ADC09D
:10142000CE010E945E0382E0A8C042E0682FCE0198
:101430000E948502482F50E0FA017097EE30F105C6
:1014400008F05DC0EC5CFF4F0C947F21CE010E9440
:10145000DC0280E192C0CE010E94070381E18DC0D1
:10146000CE010E946E0382E188C0CE010E94F60484
:1014700083E183C0CE010E94F90484E17EC0CE01E5
:101480000E94440B85E179C041E067E1CE010E94F2
:101490008502182FCE011E3221F40E94E5058EE24E
:1014A0006CC00E94E805812F68C060E070E0CE014A
:1014B0000E94EB0588E161C061E070E0CE010E940E
:1014C000EB0589E15AC062E070E0CE010E94EB05B5
:1014D0008AE153C063E070E0CE010E94EB058BE12E
:1014E0004CC064E070E0CE010E94EB058CE145C089
:1014F00065E070E0CE010E94EB058DE13EC042E068
:10150000682FCE010E9485028A37C1F048F48837DF
:1015100081F08937E9F4CE010E94F10789E72DC0F7
:101520008B3789F08C37A1F4CE010E94B7098CE784
:1015300024C0CE010E94670788E71FC0CE010E9429
:101540007B088AE71AC0CE010E9403098BE715C009
:1015500041E0682FCE010E9485028F3F21F481E097
:101560008E8B8FEF0AC091E0998F2E81288F9E8BF2
:101570001F8A03C083E001C086E1DF91CF911F91F4
:1015800008951F93CF93DF93EC016B878A819B8132
:101590000E941E0F839714F160E270E08A819B81A4
:1015A0000E942E0F888761E270E08A819B810E94F1
:1015B0002E0F898782E290E09F838E831C8A1D8A8A
:1015C0001E8A81E08F8B11E08E89811107C0CE01C8
:1015D0000E94F5098330C1F71F8BF6CFDF91CF91C1
:1015E0001F910895CF93DF93EC010E946C166C87D6
:1015F0007D878E879F87188A198A1A8A1B8A61E0DD
:10160000CE01DF91CF910C94C10ACF92DF92EF927D
:10161000FF920F931F93CF93DF93EC010E946C1600
:101620000C851D852E853F856017710782079307FE
:1016300058F06B017C01C01AD10AE20AF30AC88A89
:10164000D98AEA8AFB8A04C0688B798B8A8B9B8B48
:101650006C877D878E879F878A85882361F060E00D
:10166000CE01DF91CF911F910F91FF90EF90DF900E
:10167000CF900C94C10ADF91CF911F910F91FF90F1
:10168000EF90DF90CF900895FF920F931F93CF9329
:10169000DF93EC01FF8800E010E08E89882339F0A9
:1016A0001F8BDF91CF911F910F91FF900895011132
:1016B000F7CFCE010E94F509833029F4111101C042
:1016C0001F89FF8AEACF01E0863139F300E0E5CFD8
:1016D000FF920F931F93CF93DF93EC010881198141
:1016E000C8010E942124F82EC80101960E942124DD
:1016F000FF2011F01A8603C08130E1F78A87DF915D
:10170000CF911F910F91FF9008950F931F93CF9347
:10171000DF93EC01888199818C010F5F1F4F60E09E
:101720000E9429248A85882311F061E001C060E0CD
:10173000C801DF91CF911F910F910C942924CF9371
:10174000DF93EC018A85811103C0CE010E94F20A69
:1017500081E08A87CE010E94850B81E0DF91CF91E5
:101760000895FC0112860E94850B81E00895FC011A
:10177000718360835383428308950F931F93CF93A4
:10178000DF938C01C2E0D0E0BE01F801808191813D
:101790000E94B601811108C0BE01F80180819181CB
:1017A0000E94F701882311F061E001C060E08C2FF6
:1017B0000E9458172196CD30D10531F7DF91CF9196
:1017C0001F910F910895EF92FF920F931F93CF9364
:1017D000DF938C01EB01FC01808191810E94E50186
:1017E0007C0167E970E083E596E00E94181A4AE000
:1017F00050E0BE0183E596E00E94251B64E970E09D
:1018000083E596E00E94181A4AE050E0B70183E5AC
:1018100096E00E94251B61E970E083E596E00E9456
:10182000181ABE01F801808191810E94B6018823B7
:1018300019F06AE870E00AC0BE01F8018081918168
:101840000E949B01882331F064E870E083E596E014
:101850000E94181A83E596E0DF91CF911F910F91B6
:10186000FF90EF900C94521AFF920F931F93CF9317
:10187000DF938C01C2E0D0E0BE01C8010E94E30BFF
:101880002196CD30D105C1F7C0E0D0E062EC70E028
:1018900083E596E00E94181A4AE050E0BE0183E515
:1018A00096E00E94251B6FEB70E083E596E00E94B6
:1018B000181A4AE050E0BE0183E596E00E94251B1D
:1018C00061EB70E083E596E00E94561A2196C830DD
:1018D000D105E1F6C2E0D0E0BE01F801808191813E
:1018E0000E94F701882339F1BE01F80180819181BE
:1018F0000E940D02F82E6DEA70E083E596E00E94EA
:10190000181A4AE050E0BE0183E596E00E94251BCC
:101910006AEA70E083E596E00E94181A4AE050E017
:101920006F2D83E596E00E94641B6BE970E083E510
:1019300096E00E94561A2196CD30D10569F6DF91C6
:10194000CF911F910F91FF900895DF92EF92FF9238
:101950000F931F93CF93DF93CDB7DEB727970FB6C3
:10196000F894DEBF0FBECDBF7C0102E010E0B801ED
:10197000F701808191810E949B018823B9F0B80111
:10198000F701808191810E94E501BC01802F6E8367
:101990007F830E94C717F701228133816E817F8187
:1019A000019731F541E0C9010E94550E0F5F1F4FAD
:1019B0000D301105E1F6D12C8D2D0E94B316AC012E
:1019C000662757FD6095762F142F4A835B836C83BF
:1019D0007D8300E02B813C814D816D2DF70182815B
:1019E00093810E94C20ED394F8E0DF12E5CF02C0CB
:1019F00040E0D9CF27960FB6F894DEBF0FBECDBF1B
:101A0000DF91CF911F910F91FF90EF90DF9008959C
:101A1000EF92FF920F931F93CF93DF9300D000D0EC
:101A20001F92CDB7DEB77C0102E010E0B801F701EC
:101A3000808191810E94B601F70120813181B80136
:101A4000882391F0C9010E94E501BC01F701828160
:101A500093810E943A0E882311F061E001C060E09A
:101A6000802F0E9491172BC0C9010E94F701882383
:101A700031F1B801F701808191810E940D02682F38
:101A8000F701828193810E94770E3A834B835C83B6
:101A90006D836A817B818C819D8121110E94AC1FA5
:101AA0006F3F71058105910509F024F497FF03C08C
:101AB00060E001C06FEF70E0802F0E94D0160F5FD2
:101AC0001F4F0D30110509F0B1CF0F900F900F90FF
:101AD0000F900F90DF91CF911F910F91FF90EF909A
:101AE00008950F931F93CF93DF938C01C2E0D0E052
:101AF000BE01F801808191810E94B601882329F0FE
:101B000060E08C2F0E9491170DC0BE01F80180810A
:101B100091810E94F701882329F060E070E08C2F0A
:101B20000E94D0162196CD30D10511F7DF91CF91CB
:101B30001F910F9108958CEE91E00C94641582E34F
:101B400096E00E94650180E493E00E94E10F882303
:101B500021F08FE792E00E94680B8FE792E00E94ED
:101B6000F20A89E992E00E94BD0B8CEE91E00E949E
:101B7000351582EF91E00E9482102FEF3FEFA9010F
:101B80006BE97DE084E496E00C94071689E992E025
:101B90000E94A50C8FE792E00E94050B8FE792E070
:101BA0000E945E02882331F08FE792E00E9461027A
:101BB000882341F089E992E00E94710D82EF91E063
:101BC0000C94D31489E992E00E94080DF7CFEF92AC
:101BD000FF920F931F9360E070E082E396E00E9413
:101BE000610162E170E080E493E00E94100F8DE9F2
:101BF00092E00E94280E4DE952E062E376E089E926
:101C000092E00E94B70B2DE932E040E453E060E13E
:101C100070E08FE792E00E944B028FE7E82E82E0AF
:101C2000F82E00E413E022E336E04DE952E069E9E2
:101C300072E082EF91E00E946810A7016DE070E011
:101C40008CEE91E01F910F91FF90EF900C942D1569
:101C500020E4DC011D922A95E9F7FC01E05CFF4FCE
:101C6000108211821282339620E6DF011D922A959E
:101C7000E9F70895611522E07207A8F4462F47702E
:101C800021E030E0042E01C0220F0A94EAF7FB01A4
:101C900033E0F595E7953A95E1F7E80FF91F908164
:101CA000922381E009F480E00895611522E0720733
:101CB000E0F4FB0153E0F595E7955A95E1F767707D
:101CC00021E030E0062E01C0220F0A94EAF7E80F67
:101CD000F91F442321F08081822B808304C020954A
:101CE00080812823208381E0089580E00895CF93A8
:101CF000DF9300D000D01F92CDB7DEB7262F68311A
:101D000030F019821A821B821C821D822BC0E62FA2
:101D1000F0E0DF01AA0FBB1FAA0FBB1FAD5BBF4FD7
:101D2000A80FB91F4D915D916D917C91A22FA77065
:101D300021E030E00A2E01C0220F0A94EAF7A3E066
:101D4000F595E795AA95E1F7E80FF91FE05CFF4FDD
:101D50008081822391E009F490E099834A835B8338
:101D60006C837D8329813A814B815C816D8170E038
:101D700080E090E00F900F900F900F900F90DF9108
:101D8000CF9108950F931F93CF93DF9300D000D08E
:101D90001F92CDB7DEB709831A832B833C834D8313
:101DA000683198F5E62FF0E0AF0113E055954795BF
:101DB0001A95E1F7677021E030E0062E01C0220F8E
:101DC0000A94EAF7480F591FDA01A05CBF4F0023BD
:101DD00021F03C91322B3C9304C020953C9123236D
:101DE0002C939F01220F331F220F331F280F391FFF
:101DF000F901ED5BFF4F8A819B81AC81BD818083BE
:101E00009183A283B38381E001C080E00F900F90A3
:101E10000F900F900F90DF91CF911F910F91089528
:101E2000FC01718360831382128208956E3E22E06A
:101E3000720718F4FC01738362830895FC018281A8
:101E40009381089557FD09C0FC0122813381421717
:101E500053071CF4E40FF51F6483089577FD0AC04F
:101E6000FC01228133816217730724F4E60FF71F08
:101E70008481089580E00895CF93C62F603130F4B7
:101E800063E171E083E596E00E94491A40E150E089
:101E90006C2F83E596E0CF910C94641B1F93CF9336
:101EA000DF93EC0110E160E0CE010E943C0F115085
:101EB000D1F7DF91CF911F910895EF92FF920F9389
:101EC0001F93CF93DF93EC018B017B0183E0E80E3E
:101ED000F11CE016F1065CF0FE01EE0DFF1D6481C1
:101EE000CE010E943C0FE1E0EE1AF108F2CF7E0134
:101EF000E00EF11EF7016185CE010E943C0FF70153
:101F00006085CE010E943C0FF7016385CE010E94DF
:101F10003C0FF7016285CE010E943C0F7801F8E08A
:101F2000EF0EF11C015F1F4F0E151F055CF0FE0147
:101F3000EE0DFF1D6481CE010E943C0F8FEFE81A69
:101F4000F80AF2CFDF91CF911F910F91FF90EF90A0
:101F50000895CF93DF93EC0166ED70E083E596E0A2
:101F60000E94181A8A819B81409724F4CE010E9416
:101F70004E0F05C060E070E0CE010E945D0F83E56A
:101F800096E0DF91CF910C94521ACF93DF93EC013E
:101F900064EC70E083E596E00E94181A8A819B81C8
:101FA000809724F4CE010E944E0F05C060E170E0DE
:101FB000CE010E945D0F83E596E0DF91CF910C94F6
:101FC000521ACF92DF92EF92FF920F931F93CF930B
:101FD000DF936C01FC01E080F180C7010E942124A5
:101FE0008A3811F080E02AC0C70101960E9421249E
:101FF000C82FC70102960E942124D0E0DC2FCC27F5
:10200000C80FD11DCF3EF2E0DF0760F7F601D383A2
:10201000C28300E010E0F3E0EF0EF11C0C171D0787
:1020200061F0C701800F911F0E942124F601E00F8B
:10203000F11F84830F5F1F4FF1CF81E0DF91CF91BC
:102040001F910F91FF90EF90DF90CF900895EF9246
:10205000FF920F931F93CF93DF93EC01E880F980F9
:102060006AE8C7010E9429241A816B81C701019681
:102070000E942924612FC70102960E94292400E0B2
:1020800010E083E0E80EF11C8A819B810817190794
:1020900064F4FE01E00FF11F6481C701800F911FFE
:1020A0000E9429240F5F1F4FEFCFDF91CF911F9127
:1020B0000F91FF90EF900895CF93DF93EC01FB0118
:1020C000248135810E94081ECE01DF91CF910895B1
:1020D000EF92FF920F931F93FC01718360835383F0
:1020E00042833583248317830683F186E086DC01EF
:1020F000A557BF4F1D921C9212861F910F91FF9002
:10210000EF90089526E040E052EC61E070E083E556
:1021100096E00C94D31863E071E083E596E00C94AC
:10212000561ACF93C62F6AEF70E083E596E00E94BF
:10213000181ACC2319F065EF70E002C06FEE70E062
:1021400083E596E0CF910C94561A9F92AF92BF927E
:10215000CF92DF92EF92FF920F931F93CF93DF9373
:10216000CDB7DEB727970FB6F894DEBF0FBECDBF51
:102170008C01942E442319F046E050E002C049E05F
:1021800050E0CE0101960E945C10CE0101960E94A3
:10219000611ECE0101960E94C01E6B017C015B0195
:1021A000F801868197810E94160F61E0C8010E94A4
:1021B000911068EE70E083E596E00E94181A4AE0FC
:1021C00050E0B60183E596E00E942D1BC8010E94F5
:1021D0008B10911005C0F801808591850E94B10B8C
:1021E000E12CF12CEA14FB04B4F441E050E0BE0110
:1021F000695F7F4F83E596E00E94AD1C0197A9F7C8
:10220000A7016F81F801868197810E94220FFFEF5D
:10221000EF1AFF0AE7CFF801868197810E94271005
:1022200061E0C8010E94911061EE70E083E596E0E4
:102230000E94181A4AE050E0B70183E596E00E9438
:102240002D1B911005C0F801808591850E949F0B80
:10225000CE0101960E94D01C27960FB6F894DEBFDF
:102260000FBECDBFDF91CF911F910F91FF90EF90E7
:10227000DF90CF90BF90AF909F900895CF93DF9362
:10228000EC018C819D810E94D1018C819D810E94F5
:10229000800188819981DF91CF910C94BD0BCF9300
:1022A000DF93EC01888599850E94B10BCE010E94D5
:1022B0003E1160E070E08E819F810E94160F8E813A
:1022C0009F81DF91CF910C942710AF92BF92CF9254
:1022D000DF92EF92FF920F931F93CF93DF93CDB7CF
:1022E000DEB7E7970FB6F894DEBF0FBECDBF5C0137
:1022F0007B0165E171E0C7010E946C1D882309F430
:102300005BC067EB71E083E596E00E94561A65EAD0
:1023100071E083E596E00E94181A66EC71E083E5AF
:1023200096E00E947A1A6BE971E083E596E00E94DC
:10233000181A4AE050E060E072E083E596E00E94FF
:102340002D1B61E971E083E596E00E94181A4AE0CE
:1023500050E068E183E596E00E946B1B68E871E05D
:1023600083E596E00E94181A4AE050E060E083E5B9
:1023700096E00E946B1B66E771E083E596E00E94A1
:10238000181A4AE050E06EEE72E083E596E00E9493
:102390002D1B60E671E083E596E00E94181AF501B6
:1023A000868197810E941E0F4AE050E0BC0183E5C0
:1023B00096E00E942D1B7CC261E271E0C7010E9481
:1023C0006C1D882391F063E571E083E596E00E943F
:1023D000181A6EEB71E083E596E00E947A1AF50117
:1023E000808191810E94340C63C26FE271E0C70169
:1023F0000E946C1D882321F0C5010E944F110AC064
:102400006DE371E0C7010E946C1D882341F0C50196
:102410000E943E1161E0C5010E94911049C26AE428
:1024200071E0CE0101960E943E1DBE016F5F7F4F9D
:10243000C7010E94AF1D182FCE0101960E94D01C2B
:10244000112389F04EE050E0B701CE0101960E94C1
:102450005C10CE0101960E94C01EF5018481958119
:102460000E94C5012DC069E571E0CE0101960E9470
:102470003E1DBE016F5F7F4FC7010E94AF1D182F29
:10248000CE0101960E94D01C1123B9F14BE050E01F
:10249000B701CE0101960E945C10CE0101960E9408
:1024A000C01E6B017C01F501848195810E94E801C9
:1024B0008823A9F0B601F501848195810E94380234
:1024C000F501848195810E948001F50180819181CF
:1024D0000E94BD0B61E0C5010E94911059C167E3E4
:1024E00071E083E596E00E94181A4AE050E0B601D8
:1024F00083E596E00E942D1B4BC165E671E0C701A4
:102500000E946C1D8823B9F06EE271E083E596E0CD
:102510000E94181AF501808591850E945E02882329
:1025200019F069E271E002C063E271E083E596E0D0
:102530000E94561ABDC16CE671E0C7010E946C1D75
:10254000882331F0F501808591850E949F0B0CC096
:1025500062E771E0C7010E946C1D882339F0F50124
:10256000808591850E94B10B682F55CF67E771E098
:10257000CE0101960E943E1DBE016F5F7F4FC701D5
:102580000E94AF1D182FCE0101960E94D01C11236E
:1025900011F040E014C061E871E0CE0101960E94A4
:1025A0003E1DBE016F5F7F4FC7010E94AF1D182FF8
:1025B000CE0101960E94D01C112331F041E0B701F9
:1025C000C5010E94A51074C168E871E0C7010E94AE
:1025D0006C1D882331F0F501868197810E94A90F37
:1025E00067C163E971E0C7010E946C1D882331F067
:1025F000F501868197810E94C50F5AC16EE971E08D
:10260000CE0101960E943E1DBE016F5F7F4FC70144
:102610000E94AF1D182FCE0101960E94D01C1123DD
:10262000E1F046E050E0B701CE0101960E945C1057
:10263000CE0101960E94C01EF501828193810E9405
:102640003A0E882319F061E271E002C06FE171E097
:1026500083E596E00E94561A9BC065EA71E0CE01C0
:1026600001960E943E1DBE016F5F7F4FC7010E9411
:10267000AF1D182FCE0101960E94D01C112309F422
:102680004CC047E050E0B701CE018D960E945C102F
:10269000CE018D960E94611E60E2CE018D960E9451
:1026A000041E7C01181619060CF0F2C09C0140E0D3
:1026B00050E0BE01635D7F4FCE0187960E94081EE9
:1026C000A7014F5F5F4FBE01635D7F4FCE018196D3
:1026D0000E945C10CE0187960E94C01E6B017C0197
:1026E0006DEA71E0CE0101960E943E1DBE016F5F52
:1026F0007F4FCE0181960E94AF1D182FCE0101960B
:102700000E94D01C41E0111101C040E0B601F5016A
:10271000828193810E94550EB3C06FEA71E0CE01B1
:1027200001960E943E1DBE016F5F7F4FC7010E9450
:10273000AF1DD82ECE0101960E94D01CDD2059F18C
:1027400046E050E0B701CE0101960E945C10CE0138
:1027500001960E94C01EF501828193810E94770E2E
:1027600029A33AA34BA35CA36DA34AA15BA16CA1CF
:102770007DA1222339F026E030E083E596E00E9437
:102780006D1C06C02AE030E083E596E00E94451B00
:10279000CE0101967FC066EB71E0CE0101960E94EA
:1027A0003E1DBE016F5F7F4FC7010E94AF1DD82E37
:1027B000CE0101960E94D01CDD2009F46EC047E0D6
:1027C00050E0B701CE018D960E945C10CE018D962F
:1027D0000E94611E60E2CE018D960E94041E7C0163
:1027E000181619060CF054C09C0140E050E0BE01E0
:1027F000635D7F4FCE0187960E94081EA7014F5F41
:102800005F4FBE01635D7F4FCE0181960E945C10D9
:102810008DA19EA14E97A0F520E030E040E250E06F
:10282000BE016F5F7F4FCE0181960E94BE1D6EE29A
:10283000CE0181960E94041E019651F41BAACE017E
:1028400001960E9494236CAB7DAB8EAB9FAB0AC00C
:1028500081E08BABCE0101960E9490236CAB7DABE7
:102860008EAB9FABCE0187960E94C01E0BA91CA900
:102870002DA93EA94FA9F501828193810E94C20E24
:10288000CE0181960E94D01CCE0187960E94D01C5A
:10289000CE018D960E94D01C0BC067E071E083E5ED
:1028A00096E00E94181AB70183E596E00E94681A24
:1028B000C5010E948B10E7960FB6F894DEBF0FBEDD
:1028C000CDBFDF91CF911F910F91FF90EF90DF90DF
:1028D000CF90BF90AF900895EF92FF920F931F9308
:1028E000CF93DF9300D000D000D0CDB7DEB78C01FE
:1028F00067FD4CC085579F4F7C01FC018081918111
:10290000683031F4181619060CF040C0019738C031
:102910006A3081F51816190674F4F801E80FF91FEA
:1029200022852D3041F40197F70191838083F801CE
:10293000E80FF91F1286B801665F7F4FCE0101963E
:102940000E943E1DF70111821082F8011286CE010D
:1029500001960E94611ECE0101960E944D1EBE018D
:102960006F5F7F4FC8010E946511CE0101960E94E2
:10297000D01C0CC0F801E80FF91F62870196F7011F
:1029800091838083F801E80FF91F128626960FB60F
:10299000F894DEBF0FBECDBFDF91CF911F910F9195
:1029A000FF90EF900895AF92BF92CF92DF92EF9297
:1029B000FF920F931F93CF93DF93CDB7DEB7C05431
:1029C000D1090FB6F894DEBF0FBECDBF7C0183E501
:1029D00096E00E94F017882371F1AC015527CE01D3
:1029E00001966C01BC0183E596E00E94AD1C8C0150
:1029F0001127F701E557FF4F80819181800F911FCB
:102A00008138910514F4560109C011821082F70132
:102A1000128683E596E00E94521A0DC0C5018C19FA
:102A20009D09801791073CF4F50161915F01C70191
:102A30000E946C14F3CFC05CDF4F0FB6F894DEBF7A
:102A40000FBECDBFDF91CF911F910F91FF90EF90FF
:102A5000DF90CF90BF90AF900895FC0171836083A9
:102A60005383428314821582089561E0FC018081C2
:102A70000C945817CF93DF93EC018D818F5F8A30D0
:102A800010F48D8301C01D828A819B810E946102A6
:102A900081110EC08A819B810E945E029D8161E04E
:102AA000882319F0993059F409C0992341F006C0E0
:102AB00088810E94C71761E0019709F460E088816E
:102AC000DF91CF910C949117FC0124812F5F21336A
:102AD00010F424830895FC0114820C943A151F927B
:102AE0000F920FB60F9211242F933F934F935F9342
:102AF0006F937F938F939F93AF93BF93EF93FF93C6
:102B0000E0914806F09149060995FF91EF91BF9138
:102B1000AF919F918F917F916F915F914F913F9175
:102B20002F910F900FBE0F901F901895FC01A3E0FE
:102B3000440F551F661F771FAA95D1F74115510500
:102B400081E06807710514F481E00EC033E07595EB
:102B50006795579547953A95D1F74115510581E00D
:102B6000680771051CF482E0828331C023E075950B
:102B70006795579547952A95D1F74115510581E0FD
:102B80006807710514F483E0EFCF92E075956795BF
:102B9000579547959A95D1F74115510581E06807FA
:102BA000710514F484E0E0CF82E075956795579540
:102BB00047958A95D1F785E082834115510581E0DB
:102BC0006807710524F04FEF5FEF60E070E08FB7AA
:102BD0008383F89451834083509387004093860009
:102BE00083818FBF80918100887F80938100809155
:102BF00081009281892B809381000895E1E8F0E0C3
:102C00002081DC0112968C91282B208308950F934C
:102C10001F93CF93DF93EC018B01BA01A901141626
:102C200015061606170614F40E9496151D830C83CC
:102C300081E080936F00CE01DF91CF911F910F91C2
:102C40000C94FE151F920F920FB60F9211242F9322
:102C50003F938F939F93AF93BF9380914B06909137
:102C60004C06A0914D06B0914E0630914A0623E0E5
:102C7000230F2D3720F40196A11DB11D05C026E8B4
:102C8000230F0296A11DB11D20934A0680934B0687
:102C900090934C06A0934D06B0934E0680914F063C
:102CA00090915006A0915106B09152060196A11D37
:102CB000B11D80934F0690935006A0935106B09398
:102CC0005206BF91AF919F918F913F912F910F909D
:102CD0000FBE0F901F9018952FB7F89460914B0678
:102CE00070914C0680914D0690914E062FBF08952D
:102CF000789484B5826084BD84B5816084BD85B5D7
:102D0000826085BD85B5816085BDEEE6F0E080819D
:102D100081608083E1E8F0E01082808182608083BE
:102D2000808181608083E0E8F0E080818160808341
:102D3000E1EBF0E0808184608083E0EBF0E0808173
:102D400081608083EAE7F0E0808184608083808115
:102D500082608083808181608083808180688083BD
:102D60001092C10008958E3008F08E508770209127
:102D7000060190E4299F90011124822B80937C000E
:102D800080917A00806480937A0080917A0086FD39
:102D9000FCCF809178002091790090E0922B0895EB
:102DA0001F93CF93DF93182FEB0161E00E94581718
:102DB000209711F460E004C0CF3FD10539F461E001
:102DC000812FDF91CF911F910C949117E12FF0E0AB
:102DD000EC52FE4FE491E330F9F048F4E130B9F001
:102DE000E230A1F584B5806284BDC8BD34C0E7304F
:102DF000E9F0E83019F1E43049F580918000806213
:102E000080938000D0938B00C0938A0024C084B547
:102E1000806884BDC7BD1FC080918000806880939A
:102E20008000D0938900C093880015C08091B000C5
:102E300080688093B000C093B3000DC08091B00053
:102E400080628093B000C093B40005C0C038D10543
:102E50000CF0B5CFAFCFDF91CF911F9108958330A4
:102E600081F028F4813099F08230A1F00895873004
:102E7000A9F08830B9F08430D1F4809180008F7D42
:102E800003C0809180008F7780938000089584B57F
:102E90008F7702C084B58F7D84BD08958091B00086
:102EA0008F7703C08091B0008F7D8093B00008952C
:102EB000CF93DF9390E0FC01E851FE4F2491FC0199
:102EC000E450FE4F8491882349F190E0880F991FC8
:102ED000FC01EC5DFD4FA591B491865E9D4FFC0118
:102EE000C591D4919FB7611108C0F8948C91209539
:102EF00082238C93888182230AC0623051F4F89433
:102F00008C91322F309583238C938881822B8883F8
:102F100004C0F8948C91822B8C939FBFDF91CF914A
:102F200008950F931F93CF93DF931F92CDB7DEB712
:102F3000282F30E0F901EC52FE4F8491F901E8515D
:102F4000FE4F1491F901E450FE4F04910023C9F0A3
:102F5000882321F069830E942F176981E02FF0E018
:102F6000EE0FFF1FE65EFD4FA591B4919FB7F89459
:102F70008C91611103C01095812301C0812B8C932A
:102F80009FBF0F90DF91CF911F910F910895CF9325
:102F9000DF93282F30E0F901EC52FE4F8491F901C4
:102FA000E851FE4FD491F901E450FE4FC491CC2377
:102FB00091F081110E942F17EC2FF0E0EE0FFF1F10
:102FC000E05FFD4FA591B4912C912D2381E090E01D
:102FD00021F480E002C080E090E0DF91CF9108957D
:102FE000FC01818D228D90E0805C9F4F821B9109B6
:102FF0008F7399270895FC01918D828D981731F078
:10300000828DE80FF11D858D90E008958FEF9FEF81
:103010000895FC01918D828D981761F0828DDF01FA
:10302000A80FB11D5D968C91928D9F5F9F73928FBB
:1030300090E008958FEF9FEF08958DE899E1892B37
:1030400049F080E090E0892B29F00E948D198111D0
:103050000C9400000895FC01848DDF01A80FB11DC0
:10306000A35ABF4F2C91848D90E001968F739927BE
:10307000848FA689B7892C93A089B1898C918064AB
:103080008C93938D848D981306C00288F389E02D6C
:1030900080818F7D80830895CF93DF93EC01888DAD
:1030A0008823C9F0EA89FB89808185FD05C0A8894C
:1030B000B9898C9186FD0FC00FB607FCF5CF8081D2
:1030C00085FFF2CFA889B9898C9185FFEDCFCE011C
:1030D0000E942B18E7CFDF91CF910895CF92DF9216
:1030E000FF920F931F93CF93DF931F92CDB7DEB75D
:1030F0006C0181E0D60158968C9358975B969C9111
:103100005B975C968C915C97981307C05096ED91F5
:10311000FC915197808185FD2EC0F601038D10E052
:103120000F5F1F4F0F731127F02EF601848DF812D9
:1031300011C00FB607FCF9CFD6015096ED91FC9166
:103140005197808185FFF1CFC60169830E942B18BA
:103150006981EBCF838DE80FF11DE35AFF4F608348
:10316000D6015B960C935B975296ED91FC91539729
:10317000808180620CC0D6015696ED91FC915797E4
:1031800060835096ED91FC9151978081806480839B
:1031900081E090E00F90DF91CF911F910F91FF9010
:1031A000DF90CF900895BF92CF92DF92EF92FF927F
:1031B000CF93DF93EC016A017B01B22EE889F98994
:1031C00082E08083411581EE580761057105A1F009
:1031D00060E079E08DE390E0A70196010E945D2117
:1031E0002150310941095109569547953795279541
:1031F000211580E1380798F0E889F989108260E8A4
:1032000074E88EE190E0A70196010E945D212150B3
:103210003109410951095695479537952795EC8510
:10322000FD853083EE85FF852083188EEC89FD892E
:10323000B082EA89FB89808180618083EA89FB8989
:10324000808188608083EA89FB89808180688083AF
:10325000EA89FB8980818F7D8083DF91CF91FF9008
:10326000EF90DF90CF90BF9008951F920F920FB60E
:103270000F9211242F938F939F93EF93FF93E091DD
:103280006306F09164068081E0916906F0916A0618
:1032900082FD12C0908180916C068F5F8F732091A8
:1032A0006D06821751F0E0916C06F0E0ED5AF94F8F
:1032B000958F80936C0601C08081FF91EF919F9163
:1032C0008F912F910F900FBE0F901F9018951F9206
:1032D0000F920FB60F9211242F933F934F935F934A
:1032E0006F937F938F939F93AF93BF93EF93FF93CE
:1032F00083E596E00E942B18FF91EF91BF91AF916B
:103300009F918F917F916F915F914F913F912F91FD
:103310000F900FBE0F901F90189583E596E00E94C6
:10332000F01721E0892B09F420E0822F08951092F4
:1033300056061092550688EE93E0A0E0B0E0809328
:10334000570690935806A0935906B0935A068EECF0
:1033500091E0909354068093530685EC90E090930F
:10336000600680935F0684EC90E090936206809301
:10337000610680EC90E0909364068093630681EC94
:1033800090E0909366068093650682EC90E09093BF
:1033900068068093670686EC90E090936A068093B7
:1033A000690610926C0610926D0610926E061092CD
:1033B0006F060895CF92DF92EF92FF920F931F93C3
:1033C000CF93DF937C016A01EB0100E010E00C1564
:1033D0001D0571F06991D701ED91FC910190F0818B
:1033E000E02DC7010995892B19F00F5F1F4FEFCF13
:1033F000C801DF91CF911F910F91FF90EF90DF9067
:10340000CF9008956115710581F0DB010D900020CA
:10341000E9F7AD0141505109461B570BDC01ED9115
:10342000FC910280F381E02D099480E090E0089502
:10343000EF92FF920F931F93CF93DF938C017B0149
:10344000C0E0D0E0F701EC0FFD1F6491662359F056
:10345000F801A081B181ED91FC91C8010995892BFA
:1034600011F02196EFCFCE01DF91CF911F910F91F7
:10347000FF90EF900895DC01ED91FC91DB01149633
:103480004D915C9115976D917C910280F381E02DB7
:1034900009940C94021ADC01ED91FC910190F081E9
:1034A000E02D09946AED71E00C94021A0F931F93BA
:1034B000CF93DF93EC010E94181A8C01CE010E9479
:1034C000521A800F911FDF91CF911F910F91089594
:1034D0000F931F93CF93DF93EC010E943B1A8C0153
:1034E000CE010E94521A800F911FDF91CF911F9140
:1034F0000F9108950F931F93CF93DF93EC010E94D8
:10350000021A8C01CE010E94521A800F911FDF9186
:10351000CF911F910F9108958F929F92AF92BF927A
:10352000DF92EF92FF920F931F93CF93DF93CDB76C
:10353000DEB7A1970FB6F894DEBF0FBECDBF7C01FA
:10354000F42FD52ECB0119A2223008F42AE08E01E7
:103550000F5D1F4F822E912CA12CB12C6F2F7D2D32
:10356000A50194010E945D21F22FD32ECA010150C2
:1035700011096A3014F4E0E301C0E7E3E60FD80173
:10358000EC93232B242B252B49F7B801C7010E946C
:10359000021AA1960FB6F894DEBF0FBECDBFDF9121
:1035A000CF911F910F91FF90EF90DF90BF90AF9060
:1035B0009F908F900895CF92DF92EF92FF920F939A
:1035C0001F93CF93DF93EC016A017B012115310535
:1035D00079F4E881F9810190F081E02D642FDF9189
:1035E000CF911F910F91FF90EF90DF90CF900994B2
:1035F0002A303105E9F477FF1AC06DE20E944B1AB8
:103600008C0144275527BA014C195D096E097F09C1
:103610002AE0CE010E948C1A800F911FDF91CF917A
:103620001F910F91FF90EF90DF90CF9008952AE0C7
:10363000B701A601CE01DF91CF911F910F91FF90AD
:10364000EF90DF90CF900C948C1A9A01AB01662713
:1036500057FD6095762F0C94DB1A0F931F93CF9331
:10366000DF93EC019A01AB01662757FD6095762F39
:103670000E94DB1A8C01CE010E94521A800F911F0A
:10368000DF91CF911F910F9108950F931F93CF93C7
:10369000DF93EC010E94DB1A8C01CE010E94521ACA
:1036A000800F911FDF91CF911F910F9108952115E8
:1036B000310541F4DC01ED91FC910190F081E02DA8
:1036C000642F09940C948C1A9A01462F50E060E004
:1036D00070E00C94571B0F931F93CF93DF93EC0173
:1036E0009A01462F50E060E070E00E94571B8C0169
:1036F000CE010E94521A800F911FDF91CF911F912E
:103700000F9108954F925F926F927F928F929F9246
:10371000AF92BF92CF92DF92EF92FF920F931F93DF
:10372000CF93DF93EC016A017B01B22E9A01AB01CA
:10373000C701B6010E944921882319F06DED71E09F
:1037400027C026013701E89477F82FEF3FEF4FE7C6
:103750005FE7C301B2010E94492181110DC02FEF23
:103760003FEF4FE75FE7C301B2010E94401F181609
:103770001CF461EE71E00CC02FEF3FEF4FE75FE408
:10378000C701B6010E94E2201816ACF465EE71E0A4
:10379000CE01DF91CF911F910F91FF90EF90DF90BD
:1037A000CF90BF90AF909F908F907F906F905F90E1
:1037B0004F900C94021A2FEF3FEF4FE75FECC701D9
:1037C000B6010E94401F87FDE1CF20E030E0A90153
:1037D000C701B6010E94401F87FF0AC06DE2CE01FB
:1037E0000E944B1A8C01F7FAF094F7F8F09402C09B
:1037F00000E010E0A12C60E070E080E09FE3AB14FB
:1038000041F020E030E040E251E40E94441FA394E4
:10381000F6CF9B01AC01C701B6010E94DC1E6B0113
:103820007C010E94B11F2B013C010E94DD1F9B0106
:10383000AC01C701B6010E94DB1E6B017C012AE0CE
:10384000B301A201CE010E948C1A080F191FBB20E0
:1038500039F069EE71E0CE010E94021A080F191FBB
:103860007B2C772041F120E030E040E251E4C701B9
:10387000B6010E94E6206B017C010E94AC1F4B0147
:10388000AA2497FCA094BA2C2AE030E0B501A40148
:10389000CE010E94DB1A080F191FC501B4010E9456
:1038A000DF1F9B01AC01C701B6010E94DB1E6B014B
:1038B0007C017A94D6CFC801DF91CF911F910F91EF
:1038C000FF90EF90DF90CF90BF90AF909F908F9040
:1038D0007F906F905F904F9008950F931F93CF93B9
:1038E000DF93EC010E94821B8C01CE010E94521AD0
:1038F000800F911FDF91CF911F910F9108950F932A
:103900001F93CF93DF93EC010E946C166887798731
:103910008A879B87E881F9810680F781E02DCE01B7
:10392000099597FF15C00E946C16088519852A8590
:103930003B85601B710B820B930B0C811D812E81CB
:103940003F81601771078207930720F38FEF9FEF86
:10395000DF91CF911F910F910895CF92DF92EF9257
:10396000FF920F931F93CF93DF937C016A01EB01CA
:1039700000E010E00C151D0549F0C7010E947F1CF6
:1039800097FD04C089930F5F1F4FF4CFC801DF91EB
:10399000CF911F910F91FF90EF90DF90CF900895FE
:1039A000FC01808191810C943722CF93DF93EC014D
:1039B00088819981009711F00E943722198218821C
:1039C0001D821C821B821A82DF91CF9108950F9372
:1039D0001F93CF93DF93EC018B016F5F7F4F888143
:1039E00099810E94C622009731F0998388831B83B6
:1039F0000A8381E001C080E0DF91CF911F910F9198
:103A00000895CF93DF93EC0188819981892B29F068
:103A10008A819B818617970760F4CE010E94E71C7C
:103A2000882341F08C819D81892B19F4E881F981EB
:103A3000108281E0DF91CF910895EF92FF920F9372
:103A40001F93CF93DF93EC017B018A01BA010E949F
:103A5000011D811104C0CE010E94D51C07C01D8329
:103A60000C83B701888199810E94E823CE01DF9100
:103A7000CF911F910F91FF90EF900895FC0111825B
:103A8000108213821282158214826115710559F019
:103A9000FB0101900020E9F7AF0141505109461B9D
:103AA000570B0C941D1D0895CF93DF93EC01611506
:103AB000710561F0FB0101900020E9F7AF01415071
:103AC0005109461B570B0E941D1D02C00E94D51CA8
:103AD000CE01DF91CF910895FC0124813581232B04
:103AE00031F421E061157105A1F0FB0108C0FC0172
:103AF000808191816115710531F421E0FC018081A3
:103B0000882339F005C00E94DF2321E0892B09F0CA
:103B100020E0822F0895FA01DB0114964D915C910B
:103B20001597DC0114962D913C911597241B350BAC
:103B30002E173F0788F08D919C91009769F0DB016B
:103B40006D917C916115710539F08E0F9F1F0E9458
:103B5000EF2321E0892B09F020E0822F0895FC015A
:103B600044815581FB01248135814217530720F0A0
:103B700040E050E00C948B1D80E008950F931F935C
:103B8000CF93DF93EB0141155105E9F02097D9F070
:103B9000FC016481758126173707A0F4621B730B43
:103BA0008A01015011096017710708F48B01FC01AB
:103BB00060817181620F731FA801CE010E94FD23F5
:103BC000C00FD11F1882DF91CF911F910F910895DF
:103BD000CF93DF93FC01848195814817590778F4CE
:103BE000C081D181772767FD7095CE01840F951F25
:103BF0000E94D423009719F08C1B9D0B02C08FEFFD
:103C00009FEFDF91CF91089540E050E00C94E81DC4
:103C1000BF92CF92DF92EF92FF920F931F93CF93B9
:103C2000DF936C017B01EA0189012417350720F439
:103C30008D2FE901042F182F6CED71E0C6010E9451
:103C40003E1DD70114968D919C911597C817D907E1
:103C5000C8F48017910708F48C01D701ED91FC910D
:103C60001197E00FF11FB08010826D917C916C0F65
:103C70007D1FC6010E94541DD701ED91FC91E00FFC
:103C8000F11FB082C601DF91CF911F910F91FF907C
:103C9000EF90DF90CF90BF900895CF93DF93FC011A
:103CA000C081D181209751F08881882339F09927EC
:103CB00087FD90950E94C3238993F6CFDF91CF9122
:103CC0000895AF92BF92CF92DF92EF92FF920F933F
:103CD0001F93CF93DF937C01DC01CD90DC90119793
:103CE000C114D10409F441C01496CD91DC9115970B
:103CF0002097D9F156018501BFEFAB1ABB0AF80135
:103D00008081992787FD90950E94BB23892B99F785
:103D10002197CC0DDD1D8881992787FD90950E9404
:103D2000BB23892B91F4AE014F5F5F4F401B510BBA
:103D3000D70115965C934E931497C016D10650F494
:103D4000B801C6010E94CB2305C0C017D10758F3A4
:103D50002197E1CFD701ED91FC91119714968D91A8
:103D60009C911597E80FF91F1082DF91CF911F9159
:103D70000F91FF90EF90DF90CF90BF90AF9008959C
:103D8000FC0180819181009711F00C94942360E0F4
:103D900070E0CB01089508950E9478160E94CB1E12
:103DA0000E949F0DCDE1D8E10E94C60D2097E1F35E
:103DB0000E941D18F9CF5058BB27AA270ED0B1C1B9
:103DC000A2D130F0A7D120F031F49F3F11F41EF4BE
:103DD00097C10EF4E095E7FB64C1E92FB3D180F3FE
:103DE000BA17620773078407950718F071F49EF5F8
:103DF000E2C10EF4E0950B2EBA2FA02D0B01B901F4
:103E000090010C01CA01A0011124FF27591B99F050
:103E1000593F50F4503E68F11A16F040A22F232F5C
:103E2000342F4427585FF3CF469537952795A795AC
:103E3000F0405395C9F77EF41F16BA0B620B730B53
:103E4000840BBAF09150A1F0FF0FBB1F661F771FC4
:103E5000881FC2F70EC0BA0F621F731F841F48F479
:103E6000879577956795B795F7959E3F08F0B3CFFF
:103E70009395880F08F09927EE0F979587950895E9
:103E8000ECD008F481E008950CD04BC143D140F050
:103E90003AD130F021F45F3F19F003C151118CC1C8
:103EA0002FC150D198F39923C9F35523B1F3951B32
:103EB000550BBB27AA2762177307840738F09F5F4B
:103EC0005F4F220F331F441FAA1FA9F333D00E2EBA
:103ED0003AF0E0E830D091505040E695001CCAF727
:103EE00029D0FE2F27D0660F771F881FBB1F2617EC
:103EF00037074807AB07B0E809F0BB0B802DBF01BF
:103F0000FF2793585F4F2AF09E3F510568F0C9C0C4
:103F100053C15F3FECF3983EDCF386957795679548
:103F2000B795F7959F5FC9F7880F911D969587956F
:103F300097F90895E1E0660F771F881FBB1F62178E
:103F400073078407BA0720F0621B730B840BBA0B4C
:103F5000EE1F88F7E095089504D06894B1112CC144
:103F60000895F8D088F09F5790F0B92F9927B7514E
:103F7000A0F0D1F0660F771F881F991F1AF0BA952D
:103F8000C9F712C0B13081F016D1B1E0089513C164
:103F9000672F782F8827B85F39F0B93FCCF3869523
:103FA00077956795B395D9F73EF490958095709580
:103FB00061957F4F8F4F9F4F0895E89409C097FBFD
:103FC0003EF490958095709561957F4F8F4F9F4FF0
:103FD0009923A9F0F92F96E9BB279395F695879534
:103FE00077956795B795F111F8CFFAF4BB0F11F4F7
:103FF00060FF1BC06F5F7F4F8F4F9F4F16C088239E
:1040000011F096E911C0772321F09EE8872F762FD3
:1040100005C0662371F096E8862F70E060E02AF014
:104020009A95660F771F881FDAF7880F9695879500
:1040300097F90895A9D080F09F3740F491110EF0C0
:10404000BBC060E070E080E89FEB089526F41B168B
:10405000611D711D811D2BC045C0990F0008550FB2
:10406000AA0BE0E8FEEF16161706E807F907C0F0FE
:1040700012161306E407F50798F0621B730B840B06
:10408000950B39F40A2661F0232B242B252B21F4E0
:1040900008950A2609F4A140A6958FEF811D811D80
:1040A000089597F99F6780E870E060E0089588239D
:1040B00071F4772321F09850872B762F07C0662361
:1040C00011F499270DC09051862B70E060E02AF022
:1040D0009A95660F771F881FDAF7880F9695879550
:1040E00097F908959F3F31F0915020F48795779587
:1040F0006795B795880F911D9695879597F90895BF
:104100009FEF80EC089500240A94161617061806EF
:104110000906089500240A941216130614060506CB
:104120000895092E0394000C11F4882352F0BB0F5C
:1041300040F4BF2B11F460FF04C06F5F7F4F8F4FBF
:104140009F4F089557FD9058440F551F59F05F3FFA
:1041500071F04795880F97FB991F61F09F3F79F0A9
:1041600087950895121613061406551FF2CF46952B
:10417000F1DF08C0161617061806991FF1CF8695AD
:104180007105610508940895E5DFA0F0BEE7B91751
:1041900088F4BB279F3860F41616B11D672F782F5F
:1041A0008827985FF7CF869577956795B11D93958A
:1041B0009639C8F30895E894BB2766277727CB0183
:1041C00097F908954ADF08F48FEF08950BD0A9CF2F
:1041D0009ADF28F09FDF18F0952309F062CF90CF87
:1041E0001124EACFAFDFA0F3959FD1F3950F50E0F4
:1041F000551F629FF001729FBB27F00DB11D639F99
:10420000AA27F00DB11DAA1F649F6627B00DA11D3E
:10421000661F829F2227B00DA11D621F739FB00DE4
:10422000A11D621F839FA00D611D221F749F332754
:10423000A00D611D231F849F600D211D822F762FED
:104240006A2F11249F5750408AF0E1F088234AF0EA
:10425000EE0FFF1FBB1F661F771F881F9150504036
:10426000A9F79E3F510570F01CCFA6CF5F3FECF33E
:10427000983EDCF3869577956795B795F795E79522
:104280009F5FC1F7FE2B880F911D9695879597F933
:104290000895E3DE880B990B0895DB018F939F93BC
:1042A0000E948521BF91AF91A29F800D911DA39F78
:1042B000900DB29F900D11240895A1E21A2EAA1B11
:1042C000BB1BFD010DC0AA1FBB1FEE1FFF1FA217C6
:1042D000B307E407F50720F0A21BB30BE40BF50BC3
:1042E000661F771F881F991F1A9469F7609570954C
:1042F000809590959B01AC01BD01CF010895EE0F13
:10430000FF1F0590F491E02D09940E949021A59F34
:10431000900DB49F900DA49F800D911D11240895C0
:10432000A29FB001B39FC001A39F700D811D1124F6
:10433000911DB29F700D811D1124911D0895CF9381
:10434000DF938230910510F482E090E0E091F20674
:10435000F091F30620E030E0A0E0B0E0309739F1D2
:104360004081518148175907B8F04817590771F42F
:1043700082819381109729F013969C938E931297C4
:104380002CC09093F3068093F20627C021153105C7
:1043900031F04217530718F0A901DB0101C0EF010A
:1043A0009A01BD01DF010280F381E02DD7CF2115F5
:1043B0003105F9F0281B390B2430310580F48A814E
:1043C0009B816115710521F0FB019383828304C0F9
:1043D0009093F3068093F206FE01329644C0FE01EC
:1043E000E20FF31F8193919322503109398328837F
:1043F0003AC02091F0063091F106232B41F4209130
:104400000201309103013093F1062093F0062091D0
:104410000001309101012115310541F42DB73EB75E
:104420004091040150910501241B350BE091F006E9
:10443000F091F106E217F307A0F42E1B3F0B2817AB
:10444000390778F0AC014E5F5F4F2417350748F00D
:104450004E0F5F1F5093F1064093F00681939193A6
:1044600002C0E0E0F0E0CF01DF91CF910895CF935B
:10447000DF93009709F487C0FC0132971382128200
:10448000C091F206D091F306209781F4208131810A
:10449000280F391F8091F0069091F106821793073B
:1044A00079F5F093F106E093F0066DC0DE0120E0AF
:1044B00030E0AE17BF0750F412964D915C91139700
:1044C0009D014115510509F1DA01F3CFB383A283B0
:1044D00040815181840F951F8A179B0771F48D913C
:1044E0009C911197840F951F029691838083129659
:1044F0008D919C911397938382832115310529F423
:10450000F093F306E093F2063EC0D9011396FC93B4
:10451000EE9312974D915D91A40FB51FEA17FB071B
:1045200079F480819181840F951F0296D9011196AB
:104530009C938E938281938113969C938E93129772
:10454000E0E0F0E08A819B81009719F0FE01EC0128
:10455000F9CFCE01029628813981820F931F2091D5
:10456000F0063091F1062817390769F4309729F4DD
:104570001092F3061092F20602C013821282D093B8
:10458000F106C093F006DF91CF910895A0E0B0E06E
:10459000ECECF2E20C94B925EC01CB01209719F474
:1045A0000E949F21B8C0FE01E60FF71F9E01225016
:1045B0003109E217F30708F4ACC0D9010D911C9141
:1045C000119706171707B8F00530110508F49FC0BA
:1045D000A801445051094617570708F498C00250E3
:1045E0001109061B170B019311936D937C93CF0157
:1045F0000E9437228CC05B01A01AB10A4E01800EC6
:10460000911EA091F206B091F306612C712C60E02E
:1046100070E0109709F449C0A815B905C9F5ED90E7
:10462000FC901197670142E0C40ED11CCA14DB0450
:1046300078F147018A189B08640142E0C40ED11C3E
:104640001296BC9012971396AC91B5E0CB16D1049C
:1046500040F0B282A38391828082D9018D939C9392
:1046600009C00E5F1F4F0E0D1F1DF901118300833E
:10467000EB2DFA2F6115710531F0DB011396FC93D8
:10468000EE93129744C0F093F306E093F2063FC016
:104690006D917C9111976616770608F43B01BD0178
:1046A00012960D90BC91A02DB4CF6091F006709140
:1046B000F10668157905E9F468167906D0F4409199
:1046C0000001509101014115510541F44DB75EB70C
:1046D0006091040170910501461B570BE417F50723
:1046E000C0F4F093F106E093F006F9019183808322
:1046F0000EC00E949F217C01009759F0A801BE01C5
:104700000E94CB23CE010E943722C70104C0CE01F4
:1047100002C080E090E0CDB7DEB7EEE00C94D52586
:10472000662777270C9437241F93FC019927882745
:10473000BC01E89411911032E9F3193010F01E30E9
:10474000C8F31B3251F01D3249F4689406C00E9430
:104750000C24610F711D811D911D119110531A3090
:10476000B0F33EF490958095709561957F4F8F4F93
:104770009F4F1F9108959111DDC1803219F089502A
:104780008550D0F708959111089581548A5108F405
:10479000805E855A0895FB01DC0102C001900D92F4
:1047A00041505040D8F70895FC018191861721F0BF
:1047B0008823D9F7992708953197CF010895FB01F0
:1047C000DC018D91019080190110D9F3990B0895A6
:1047D000FB01DC0101900D920020E1F70895FB013F
:1047E000DC014150504030F08D910190801919F456
:1047F0000020B9F7881B990B0895FB01DC0141509B
:10480000504048F001900D920020C9F701C01D9260
:1048100041505040E0F70895592F482F372F262F49
:10482000660F771F881F991F660F771F881F991FB4
:10483000620F731F841F951F660F771F881F991FB4
:104840000895F999FECF92BD81BDF89A992780B558
:104850000895262FF999FECF1FBA92BD81BD20BDC4
:104860000FB6F894FA9AF99A0FBE01960895A0E04F
:10487000B0E0EDE3F4E20C94BB258B01611571050A
:1048800021F0DB018C9311969C93EC015E01BFEF4C
:10489000AB1ABB0A7501C8808C2D90E00E94BB2327
:1048A000892B11F0E501F2CFEDE2CE1208C07E01B6
:1048B000F2E0EF0EF11CC980DD24D39409C02BE295
:1048C000C21205C07E0142E0E40EF11CC980D12C69
:1048D000E701219743E050E066E372E0CE010E94D9
:1048E0009D25892BC1F4239645E050E061E372E0F9
:1048F000CE010E949D25892B09F4259601151105ED
:1049000019F0D801CD93DC93D11006C160E070E0BE
:1049100080E89FE70AC143E050E06EE272E0CE011A
:104920000E949D25892B59F40115110509F4F9C040
:10493000B2E0EB0EF11CF801F182E082F2C0F70167
:1049400060E070E0CB01C0E0D0E07F01A0EDAA2ED6
:10495000AC0C29E02A1530F14D2D4260B42E2D2DDE
:104960002870D2FE04C0211125C0219623C0211138
:104970002197A5E0B0E09B01AC010E948521660F64
:10498000771F881F991F6A0D711D811D911D683940
:10499000A9E97A078A07A9E19A0760F0BD2DB660F8
:1049A000BB2E08C02EEFA2120AC0D3FC50C04D2D62
:1049B0004860B42E3196D701CC90DB2CC6CF2C2D7D
:1049C0002F7D253409F043C0A081AD3241F4BD2DC7
:1049D000B061DB2E7F0122E0E20EF11C0CC07F01F2
:1049E000AB3231F04FEFE41AF40A21E030E006C0B8
:1049F000A2E0EA0EF11CA18122E030E0A053AA302F
:104A000018F0E21AF30A23C0F70120E030E0203862
:104A1000BCE03B075CF4A901440F551F440F551F30
:104A2000240F351F220F331F2A0F311DAF014F5F97
:104A30005F4F7A01A081A053AA3010F4FA01E7CFAA
:104A4000D4FE03C0319521953109C20FD31FD1FE89
:104A500009C00115110531F0E1E0EE1AF108D801A5
:104A6000ED92FC920E94DD1F2D2D2370233019F052
:104A70004B015C0106C04B015C01B7FAB094B7F87A
:104A8000B09420E030E0A901C501B4010E94401FAC
:104A9000882309F43EC0D7FF06C0D195C195D1093E
:104AA0000DE412E002C005E612E06801B8E1CB1A9D
:104AB000D10890E2E92EF12CCE15DF0574F0F80153
:104AC0002591359145915491C501B4010E94E6208C
:104AD0004B015C01CE19DF09EFCF04501109F594A9
:104AE000E7940C151D0541F78A2D880F8B2D881F23
:104AF0008F3F49F020E030E0A901C501B4010E94D8
:104B0000401F811106C082E290E09093F5068093E9
:104B1000F406C501B40109C060E070E080E89FEFD1
:104B200004C060E070E080EC9FE7CDB7DEB7ECE05A
:104B30000C94D725992788270895FB01DC01415063
:104B4000504088F08D9181341CF08B350CF4805EE0
:104B5000659161341CF06B350CF4605E861B61114D
:104B600071F3990B0895881BFCCF2F923F924F92BF
:104B70005F926F927F928F929F92AF92BF92CF92ED
:104B8000DF92EF92FF920F931F93CF93DF93CDB7F6
:104B9000DEB7CA1BDB0B0FB6F894DEBF0FBECDBF6E
:104BA00009942A88398848885F846E847D848C843F
:104BB0009B84AA84B984C884DF80EE80FD800C8148
:104BC0001B81AA81B981CE0FD11D0FB6F894DEBF2B
:0C4BD0000FBECDBFED010895F894FFCF9B
:104BDC000000F60680000103000500060009000A2B
:104BEC00000B003000696E666F726D6174696F6ED8
:104BFC00006465766963652D636F6E666967006630
:104C0C006163746F72792D726573657400636F6E76
:104C1C006669672D726573657400636F6E6669678C
:104C2C002D6F75747075742000636F6E6669672DD7
:104C3C0070776D2000737461747573007374617296
:104C4C00740073746F7000646F776E6C6F616420A6
:104C5C00007061746368200072756E74696D652DE7
:104C6C0069640076657273696F6E2D696400726594
:104C7C006164206200777269746520620031007291
:104C8C00656164206E007772697465206E004172F4
:104C9C006475696E6F00312E3000000000006E18D4
:104CAC00DA19F0170918FB174C180D0A006E616E13
:0C4CBC0000696E66006F7666002E000036
:107800000C94343C0C94513C0C94513C0C94513CE1
:107810000C94513C0C94513C0C94513C0C94513CB4
:107820000C94513C0C94513C0C94513C0C94513CA4
:107830000C94513C0C94513C0C94513C0C94513C94
:107840000C94513C0C94513C0C94513C0C94513C84
:107850000C94513C0C94513C0C94513C0C94513C74
:107860000C94513C0C94513C11241FBECFEFD8E036
:10787000DEBFCDBF11E0A0E0B1E0ECE9FFE702C060
:1078800005900D92A230B107D9F712E0A2E0B1E065
:1078900001C01D92AD30B107E1F70E942D3D0C945F
:1078A000CC3F0C94003C982F959595959595959582
:1078B000905D8F708A307CF0282F295A8091C0000B
:1078C00085FFFCCF9093C6008091C00085FFFCCF60
:1078D0002093C6000895282F205DF0CF982F809127
:1078E000C00085FFFCCF9093C6000895EF92FF92F1
:1078F0000F931F93EE24FF2487018091C00087FD22
:1079000017C00894E11CF11C011D111D81E4E8164B
:1079100082E4F8068FE0080780E0180770F3E09132
:107920000401F091050109958091C00087FFE9CF1E
:107930008091C6001F910F91FF90EF9008950E94D3
:10794000763C982F8091C00085FFFCCF9093C600B5
:1079500091362CF490330CF09053892F089597555D
:10796000892F08951F930E949F3C182F0E949F3CCF
:107970001295107F810F1F9108951F93182F882350
:1079800021F00E94763C1150E1F71F9108951F935A
:10799000182F0E94763C803249F0809103018F5F5E
:1079A000809303018530C1F01F9108958091C0003C
:1079B00085FFFCCF84E18093C6008091C00085FFE5
:1079C000FCCF1093C6008091C00085FFFCCF80E102
:1079D0008093C6001F910895E0910401F091050184
:1079E00009951F9108950E94763C803241F0809164
:1079F00003018F5F80930301853081F008958091AA
:107A0000C00085FFFCCF84E18093C6008091C00058
:107A100085FFFCCF80E18093C6000895E0910401CA
:107A2000F09105010995089540E951E08823A1F0FE
:107A30002D9A28EE33E0FA013197F1F721503040CA
:107A4000D1F72D9828EE33E0FA013197F1F7215064
:107A50003040D1F7815061F708953F924F925F9285
:107A60006F927F928F929F92AF92BF92CF92DF924E
:107A7000EF92FF920F931F93CF93DF93000080E16B
:107A80008093C4001092C50088E18093C10086E015
:107A90008093C2005098589A259A81E00E94143D24
:107AA00024E1F22E9EE1E92E85E9D82E0FE0C02ECA
:107AB00010E1B12EAA24A394B1E49B2EA6E58A2E50
:107AC000F2E57F2EE0E26E2E79E4572E63E5462E36
:107AD00050E5352E0E94763C8033B1F18133B9F107
:107AE000803409F46FC0813409F476C0823409F41B
:107AF00085C0853409F488C0803531F1823521F1A3
:107B0000813511F1853509F485C0863509F48DC0BC
:107B1000843609F496C0843709F403C1853709F423
:107B200072C1863709F466C0809103018F5F80932C
:107B30000301853079F6E0910401F0910501099582
:107B40000E94763C803351F60E94F33CC3CF0E94E2
:107B5000763C803249F78091C00085FFFCCFF092DF
:107B6000C6008091C00085FFFCCF9092C600809136
:107B7000C00085FFFCCF8092C6008091C00085FFC9
:107B8000FCCF7092C6008091C00085FFFCCF609250
:107B9000C6008091C00085FFFCCF5092C600809146
:107BA000C00085FFFCCF4092C6008091C00085FFD9
:107BB000FCCF3092C6008091C00085FFFCCFB09210
:107BC000C60088CF0E94763C863808F4BDCF0E945C
:107BD000763C0E94F33C7ECF0E94763C803809F4CC
:107BE0009CC0813809F40BC1823809F43CC1883942
:107BF00009F48FC080E00E94C73C6CCF84E10E94F2
:107C0000BD3C0E94F33C66CF85E00E94BD3C0E94D3
:107C1000F33C60CF0E94763C809306010E94763C44
:107C2000809307010E94F33C55CF0E94763C80333D
:107C300009F41DC183E00E94BD3C80E00E94C73C66
:107C400049CF0E94763C809309020E94763C809343
:107C5000080280910C028E7F80930C020E94763C79
:107C6000853409F415C18091080290910902892B8D
:107C700089F000E010E00E94763CF801E85FFE4FDA
:107C800080830F5F1F4F80910802909109020817AF
:107C9000190788F30E94763C803209F045CF809125
:107CA0000C0280FF01C16091060170910701660F0F
:107CB000771F7093070160930601A0910802B091AD
:107CC00009021097C9F0E8E0F1E09B01AD014E0F09
:107CD0005F1FF999FECF32BD21BD819180BDFA9A17
:107CE000F99A2F5F3F4FE417F50799F76A0F7B1F4B
:107CF00070930701609306018091C00085FFFCCF5F
:107D0000F092C6008091C00085FFFCCFB092C60003
:107D1000E1CE83E00E94C73CDDCE82E00E94C73CFA
:107D2000D9CE0E94763C809309020E94763C8093D3
:107D300008028091060190910701880F991F909386
:107D40000701809306010E94763C853409F4A6C0A1
:107D500080910C028E7F80930C020E94763C8032D0
:107D600009F0B8CE8091C00085FFFCCFF092C6002C
:107D7000609108027091090261157105B9F140E046
:107D800050E080910C02A82FA170B82FB27011C0E2
:107D9000BB2309F45CC0E0910601F0910701319624
:107DA000F0930701E09306014F5F5F4F46175707B7
:107DB000E8F4AA2369F3F999FECF209106013091E6
:107DC000070132BD21BDF89A90B58091C00085FFB2
:107DD000FCCF9093C6002F5F3F4F30930701209355
:107DE00006014F5F5F4F4617570718F38091C00099
:107DF00085FDE5CE8091C00085FFF8CFE0CE81E023
:107E00000E94C73C67CE0E94763C803209F08CCE3F
:107E10008091C00085FFFCCFF092C6008091C00029
:107E200085FFFCCFE092C6008091C00085FFFCCFAB
:107E3000D092C6008091C00085FFFCCFC092C600E2
:107E40008091C00085FFFCCFB092C60043CEE09188
:107E50000601F091070194918091C00085FFFCCF4D
:107E60009093C6009CCF80E10E94C73C33CE0E9415
:107E7000763C0E94763C182F0E94763C112309F430
:107E800083C0113009F484C08FE00E94C73C22CE29
:107E900080910C02816080930C02E5CE80910C02EF
:107EA000816080930C0259CF809107018823880F4D
:107EB000880B8A2180930B02809106019091070123
:107EC000880F991F90930701809306018091080203
:107ED00080FF09C080910802909109020196909359
:107EE000090280930802F894F999FECF1127E091D6
:107EF0000601F0910701C8E0D1E08091080290915D
:107F00000902103091F40091570001700130D9F34B
:107F100003E000935700E89500915700017001308D
:107F2000D9F301E100935700E89509901990009169
:107F3000570001700130D9F301E000935700E89534
:107F40001395103498F011270091570001700130FB
:107F5000D9F305E000935700E895009157000170B0
:107F60000130D9F301E100935700E895329602976A
:107F700009F0C7CF103011F00296E5CF112480919F
:107F8000C00085FFB9CEBCCE8EE10E94C73CA2CD19
:0C7F900085E90E94C73C9ECDF894FFCF0D
:027F9C00800063
:040000030000780081
:00000001FF
